Component: ARM Compiler 5.05 update 1 (build 106) Tool: armlink [4d0efa]

==============================================================================

Section Cross References

    startup_stm32f10x_hd.o(RESET) refers to startup_stm32f10x_hd.o(STACK) for __initial_sp
    startup_stm32f10x_hd.o(RESET) refers to startup_stm32f10x_hd.o(.text) for Reset_Handler
    startup_stm32f10x_hd.o(RESET) refers to stm32f10x_it.o(i.NMI_Handler) for NMI_Handler
    startup_stm32f10x_hd.o(RESET) refers to stm32f10x_it.o(i.HardFault_Handler) for HardFault_Handler
    startup_stm32f10x_hd.o(RESET) refers to stm32f10x_it.o(i.MemManage_Handler) for MemManage_Handler
    startup_stm32f10x_hd.o(RESET) refers to stm32f10x_it.o(i.BusFault_Handler) for BusFault_Handler
    startup_stm32f10x_hd.o(RESET) refers to stm32f10x_it.o(i.UsageFault_Handler) for UsageFault_Handler
    startup_stm32f10x_hd.o(RESET) refers to stm32f10x_it.o(i.SVC_Handler) for SVC_Handler
    startup_stm32f10x_hd.o(RESET) refers to stm32f10x_it.o(i.DebugMon_Handler) for DebugMon_Handler
    startup_stm32f10x_hd.o(RESET) refers to os_cpu_a.o(CODE) for OS_CPU_PendSVHandler
    startup_stm32f10x_hd.o(RESET) refers to os_cpu_c.o(i.OS_CPU_SysTickHandler) for OS_CPU_SysTickHandler
    startup_stm32f10x_hd.o(RESET) refers to stm32f10x_it.o(i.RTC_IRQHandler) for RTC_IRQHandler
    startup_stm32f10x_hd.o(RESET) refers to stm32f10x_it.o(i.EXTI3_IRQHandler) for EXTI3_IRQHandler
    startup_stm32f10x_hd.o(RESET) refers to stm32f10x_it.o(i.USB_HP_CAN1_TX_IRQHandler) for USB_HP_CAN1_TX_IRQHandler
    startup_stm32f10x_hd.o(RESET) refers to stm32f10x_it.o(i.USB_LP_CAN1_RX0_IRQHandler) for USB_LP_CAN1_RX0_IRQHandler
    startup_stm32f10x_hd.o(RESET) refers to stm32f10x_it.o(i.USART2_IRQHandler) for USART2_IRQHandler
    startup_stm32f10x_hd.o(RESET) refers to stm32f10x_it.o(i.USART3_IRQHandler) for USART3_IRQHandler
    startup_stm32f10x_hd.o(.text) refers to system_stm32f10x.o(i.SystemInit) for SystemInit
==============================================================================

Removing Unused input sections from the image.

    Removing system_stm32f10x.o(i.SystemCoreClockUpdate), (124 bytes).
    Removing misc.o(i.NVIC_SetVectorTable), (20 bytes).
    Removing misc.o(i.NVIC_SystemLPConfig), (28 bytes).
    Removing misc.o(i.SysTick_CLKSourceConfig), (28 bytes).
    Removing stm32f10x_adc.o(i.ADC_AnalogWatchdogCmd), (16 bytes).
    Removing stm32f10x_adc.o(i.ADC_AnalogWatchdogSingleChannelConfig), (12 bytes).
    Removing stm32f10x_adc.o(i.ADC_AnalogWatchdogThresholdsConfig), (6 bytes).
    Removing stm32f10x_adc.o(i.ADC_AutoInjectedConvCmd), (24 bytes).
    Removing stm32f10x_adc.o(i.ADC_ClearFlag), (6 bytes).
    Removing stm32f10x_adc.o(i.ADC_ClearITPendingBit), (8 bytes).
    Removing stm32f10x_adc.o(i.ADC_DeInit), (100 bytes).
    Removing stm32f10x_adc.o(i.ADC_DiscModeChannelCountConfig), (16 bytes).
    Removing stm32f10x_adc.o(i.ADC_DiscModeCmd), (24 bytes).
    Removing stm32f10x_adc.o(i.ADC_ExternalTrigConvCmd), (24 bytes).
    Removing stm32f10x_adc.o(i.ADC_ExternalTrigInjectedConvCmd), (24 bytes).
    Removing stm32f10x_adc.o(i.ADC_ExternalTrigInjectedConvConfig), (12 bytes).
    Removing stm32f10x_adc.o(i.ADC_GetConversionValue), (6 bytes).
    Removing stm32f10x_adc.o(i.ADC_GetDualModeConversionValue), (12 bytes).
==============================================================================

Image Symbol Table

    Local Symbols

    Symbol Name                              Value     Ov Type        Size  Object(Section)

    ../clib/../cmprslib/zerorunl2.c          0x00000000   Number         0  __dczerorl2.o ABSOLUTE
    ../clib/microlib/ctype/ctype.c           0x00000000   Number         0  isgraph_o.o ABSOLUTE
    ../clib/microlib/ctype/ctype.c           0x00000000   Number         0  ctype_c.o ABSOLUTE
    ../clib/microlib/ctype/ctype.c           0x00000000   Number         0  iscntrl_o.o ABSOLUTE
    ../clib/microlib/ctype/ctype.c           0x00000000   Number         0  ctype_o.o ABSOLUTE
    ../clib/microlib/ctype/ctype.c           0x00000000   Number         0  isupper_o.o ABSOLUTE
    ../clib/microlib/ctype/ctype.c           0x00000000   Number         0  isprint_o.o ABSOLUTE
    ../clib/microlib/ctype/ctype.c           0x00000000   Number         0  islower_o.o ABSOLUTE
    ../clib/microlib/ctype/ctype.c           0x00000000   Number         0  isdigit_o.o ABSOLUTE
    ../clib/microlib/ctype/ctype.c           0x00000000   Number         0  isspace_c.o ABSOLUTE
    ../clib/microlib/ctype/ctype.c           0x00000000   Number         0  isalnum_o.o ABSOLUTE
    ../clib/microlib/ctype/ctype.c           0x00000000   Number         0  isalpha_o.o ABSOLUTE
    ../clib/microlib/ctype/ctype.c           0x00000000   Number         0  ispunct_o.o ABSOLUTE
    ../clib/microlib/ctype/ctype.c           0x00000000   Number         0  isblank_o.o ABSOLUTE
    ../clib/microlib/ctype/ctype.c           0x00000000   Number         0  isspace_o.o ABSOLUTE
    ../clib/microlib/ctype/ctype.c           0x00000000   Number         0  isxdigit_o.o ABSOLUTE
    ../clib/microlib/division.c              0x00000000   Number         0  uldiv.o ABSOLUTE
    ../clib/microlib/division.c              0x00000000   Number         0  uidiv.o ABSOLUTE
    ../clib/microlib/errno.c                 0x00000000   Number         0  errno.o ABSOLUTE
    ../clib/microlib/init/entry.s            0x00000000   Number         0  entry2.o ABSOLUTE
    ../clib/microlib/init/entry.s            0x00000000   Number         0  entry9b.o ABSOLUTE
    ../clib/microlib/init/entry.s            0x00000000   Number         0  entry5.o ABSOLUTE
    ../clib/microlib/init/entry.s            0x00000000   Number         0  entry7b.o ABSOLUTE
    ../clib/microlib/init/entry.s            0x00000000   Number         0  entry.o ABSOLUTE
    ../clib/microlib/init/entry.s            0x00000000   Number         0  entry9a.o ABSOLUTE
    ../clib/microlib/init/entry.s            0x00000000   Number         0  entry8b.o ABSOLUTE
    ../clib/microlib/init/entry.s            0x00000000   Number         0  entry8a.o ABSOLUTE
    ../clib/microlib/init/entry.s            0x00000000   Number         0  entry11a.o ABSOLUTE
    ../clib/microlib/init/entry.s            0x00000000   Number         0  entry10b.o ABSOLUTE
    ../clib/microlib/init/entry.s            0x00000000   Number         0  entry10a.o ABSOLUTE
    ../clib/microlib/init/entry.s            0x00000000   Number         0  entry7a.o ABSOLUTE
    ../clib/microlib/init/entry.s            0x00000000   Number         0  entry11b.o ABSOLUTE
    ../clib/microlib/longlong.c              0x00000000   Number         0  llsshr.o ABSOLUTE
    ../clib/microlib/longlong.c              0x00000000   Number         0  llshl.o ABSOLUTE
    ../clib/microlib/longlong.c              0x00000000   Number         0  llushr.o ABSOLUTE
    ../clib/microlib/malloc/malloc.c         0x00000000   Number         0  malloca.o ABSOLUTE
    ../clib/microlib/malloc/malloc.c         0x00000000   Number         0  malloc.o ABSOLUTE
    ../clib/microlib/malloc/malloc.c         0x00000000   Number         0  mallocr.o ABSOLUTE
    ../clib/microlib/malloc/malloc.c         0x00000000   Number         0  mallocra.o ABSOLUTE
    ../clib/microlib/malloc/mvars.c          0x00000000   Number         0  mvars.o ABSOLUTE
    ../clib/microlib/printf/printf.c         0x00000000   Number         0  printf8.o ABSOLUTE
    ../clib/microlib/printf/printf.c         0x00000000   Number         0  printf7.o ABSOLUTE
    ../clib/microlib/printf/printf.c         0x00000000   Number         0  printf6.o ABSOLUTE
    ../clib/microlib/printf/printf.c         0x00000000   Number         0  printfb.o ABSOLUTE
    ../clib/microlib/printf/printf.c         0x00000000   Number         0  printfa.o ABSOLUTE
    ../clib/microlib/printf/printf.c         0x00000000   Number         0  printf0.o ABSOLUTE
    ../clib/microlib/printf/printf.c         0x00000000   Number         0  printf1.o ABSOLUTE
    ../clib/microlib/printf/printf.c         0x00000000   Number         0  printf2.o ABSOLUTE
    ../clib/microlib/printf/printf.c         0x00000000   Number         0  printf3.o ABSOLUTE
    ../clib/microlib/printf/printf.c         0x00000000   Number         0  printf4.o ABSOLUTE
    ../clib/microlib/printf/printf.c         0x00000000   Number         0  printf5.o ABSOLUTE
    ../clib/microlib/printf/stubs.s          0x00000000   Number         0  stubs.o ABSOLUTE
    ../clib/microlib/stdio/streams.c         0x00000000   Number         0  stdout.o ABSOLUTE
    ../clib/microlib/string/memcmp.c         0x00000000   Number         0  memcmp.o ABSOLUTE
    ../clib/microlib/string/memcpy.c         0x00000000   Number         0  memmovea.o ABSOLUTE
    ../clib/microlib/string/memcpy.c         0x00000000   Number         0  memmoveb.o ABSOLUTE
    ../clib/microlib/string/memcpy.c         0x00000000   Number         0  memcpya.o ABSOLUTE
    ../clib/microlib/string/memcpy.c         0x00000000   Number         0  memcpyb.o ABSOLUTE
    ../clib/microlib/string/memset.c         0x00000000   Number         0  memseta.o ABSOLUTE
    ../clib/microlib/string/strcat.c         0x00000000   Number         0  strcat.o ABSOLUTE
    ../clib/microlib/string/strcpy.c         0x00000000   Number         0  strcpy.o ABSOLUTE
    ../clib/microlib/string/strlen.c         0x00000000   Number         0  strlen.o ABSOLUTE
    ../clib/microlib/string/strncpy.c        0x00000000   Number         0  strncpy.o ABSOLUTE
    ../clib/microlib/string/strstr.c         0x00000000   Number         0  strstr.o ABSOLUTE
    ../clib/microlib/stubs.s                 0x00000000   Number         0  iusefp.o ABSOLUTE
    ../clib/scanf.c                          0x00000000   Number         0  atol.o ABSOLUTE
    ../clib/scanf.c                          0x00000000   Number         0  strtol.o ABSOLUTE
    ../clib/scanf.c                          0x00000000   Number         0  _strtoul.o ABSOLUTE
    ../clib/scanf.c                          0x00000000   Number         0  scanf_fp.o ABSOLUTE
    ../clib/scanf.c                          0x00000000   Number         0  _chval.o ABSOLUTE
    ../clib/scanf.c                          0x00000000   Number         0  strtod.o ABSOLUTE
    ../clib/scanf.c                          0x00000000   Number         0  _sgetc.o ABSOLUTE
    ../fplib/microlib/d2f.c                  0x00000000   Number         0  d2f.o ABSOLUTE
    ../fplib/microlib/f2d.c                  0x00000000   Number         0  f2d.o ABSOLUTE
    ../fplib/microlib/fpadd.c                0x00000000   Number         0  dadd.o ABSOLUTE
    ../fplib/microlib/fpadd.c                0x00000000   Number         0  fadd.o ABSOLUTE
    ../fplib/microlib/fpdiv.c                0x00000000   Number         0  ddiv.o ABSOLUTE
    ../fplib/microlib/fpepilogue.c           0x00000000   Number         0  depilogue.o ABSOLUTE
    ../fplib/microlib/fpepilogue.c           0x00000000   Number         0  fepilogue.o ABSOLUTE
    ../fplib/microlib/fpfix.c                0x00000000   Number         0  ffixui.o ABSOLUTE
    ../fplib/microlib/fpfix.c                0x00000000   Number         0  ffixi.o ABSOLUTE
    ../fplib/microlib/fpfix.c                0x00000000   Number         0  dfixul.o ABSOLUTE
    ../fplib/microlib/fpflt.c                0x00000000   Number         0  dflti.o ABSOLUTE
    ../fplib/microlib/fpflt.c                0x00000000   Number         0  ffltui.o ABSOLUTE
    ../fplib/microlib/fpflt.c                0x00000000   Number         0  fflti.o ABSOLUTE
    ../fplib/microlib/fpflt.c                0x00000000   Number         0  dfltul.o ABSOLUTE
    ../fplib/microlib/fpmul.c                0x00000000   Number         0  dmul.o ABSOLUTE
    ../fplib/microlib/fpmul.c                0x00000000   Number         0  fmul.o ABSOLUTE
    ../fplib/microlib/fpscalb.c              0x00000000   Number         0  dscalb.o ABSOLUTE
    ../mathlib/atof.c                        0x00000000   Number         0  atof.o ABSOLUTE
    ../mathlib/ceil.c                        0x00000000   Number         0  ceil.o ABSOLUTE
    ../mathlib/floor.c                       0x00000000   Number         0  floor.o ABSOLUTE
    ..\..\..\Utilities\Third_Party\STemWin522\GUI\ConvertColor\GUICC_565.c 0x00000000   Number         0  guicc_565.o ABSOLUTE
    ..\..\..\Utilities\Third_Party\STemWin522\GUI\Core\GUICC_0.c 0x00000000   Number         0  guicc_0.o ABSOLUTE
    ..\..\..\Utilities\Third_Party\STemWin522\GUI\Core\GUICC_444_12_1_Index2Color.c 0x00000000   Number         0  guicc_444_12_1_index2color.o ABSOLUTE
    ..\..\..\Utilities\Third_Party\STemWin522\GUI\Core\GUICC_444_12_Index2Color.c 0x00000000   Number         0  guicc_444_12_index2color.o ABSOLUTE
    ..\..\..\Utilities\Third_Party\STemWin522\GUI\Core\GUICC_444_16_Index2Color.c 0x00000000   Number         0  guicc_444_16_index2color.o ABSOLUTE
    ..\..\..\Utilities\Third_Party\STemWin522\GUI\Core\GUICC_555_Index2Color.c 0x00000000   Number         0  guicc_555_index2color.o ABSOLUTE
    ..\..\..\Utilities\Third_Party\STemWin522\GUI\Core\GUICC_565_Index2Color.c 0x00000000   Number         0  guicc_565_index2color.o ABSOLUTE
    ..\..\..\Utilities\Third_Party\STemWin522\GUI\Core\GUICC_8888.c 0x00000000   Number         0  guicc_8888.o ABSOLUTE
    ..\..\..\Utilities\Third_Party\STemWin522\GUI\Core\GUICC_8888_Index2Color.c 0x00000000   Number         0  guicc_8888_index2color.o ABSOLUTE
    ..\..\..\Utilities\Third_Party\STemWin522\GUI\Core\GUICC_888_Index2Color.c 0x00000000   Number         0  guicc_888_index2color.o ABSOLUTE
    ..\..\..\Utilities\Third_Party\STemWin522\GUI\Core\GUICC_M444_12_1_Index2Color.c 0x00000000   Number         0  guicc_m444_12_1_index2color.o ABSOLUTE
    ..\..\..\Utilities\Third_Party\STemWin522\GUI\Core\GUICC_M444_12_Index2Color.c 0x00000000   Number         0  guicc_m444_12_index2color.o ABSOLUTE
    ..\..\..\Utilities\Third_Party\STemWin522\GUI\Core\GUICC_M444_16_Index2Color.c 0x00000000   Number         0  guicc_m444_16_index2color.o ABSOLUTE
    ..\..\..\Utilities\Third_Party\STemWin522\GUI\Core\GUICC_M555_Index2Color.c 0x00000000   Number         0  guicc_m555_index2color.o ABSOLUTE
    ..\..\..\Utilities\Third_Party\STemWin522\GUI\Core\GUICC_M565_Index2Color.c 0x00000000   Number         0  guicc_m565_index2color.o ABSOLUTE
    ..\..\..\Utilities\Third_Party\STemWin522\GUI\Core\GUI_2DLib.c 0x00000000   Number         0  gui_2dlib.o ABSOLUTE
    ..\..\..\Utilities\Third_Party\STemWin522\GUI\Core\GUI_ALLOC_AllocInit.c 0x00000000   Number         0  gui_alloc_allocinit.o ABSOLUTE
    ..\..\..\Utilities\Third_Party\STemWin522\GUI\Core\GUI_ALLOC_AllocZero.c 0x00000000   Number         0  gui_alloc_alloczero.o ABSOLUTE
    ..\..\..\Utilities\Third_Party\STemWin522\GUI\Core\GUI_AddDecMin.c 0x00000000   Number         0  gui_adddecmin.o ABSOLUTE
    ..\..\..\Utilities\Third_Party\STemWin522\GUI\Core\GUI_AddDecShift.c 0x00000000   Number         0  gui_adddecshift.o ABSOLUTE
    ..\..\..\Utilities\Third_Party\STemWin522\GUI\Core\GUI_AddHex.c 0x00000000   Number         0  gui_addhex.o ABSOLUTE
    ..\..\..\Utilities\Third_Party\STemWin522\GUI\Core\GUI_Alloc.c 0x00000000   Number         0  gui_alloc.o ABSOLUTE
    ..\..\..\Utilities\Third_Party\STemWin522\GUI\Core\GUI_CalcColorDist.c 0x00000000   Number         0  gui_calccolordist.o ABSOLUTE
    ..\..\..\Utilities\Third_Party\STemWin522\GUI\Core\GUI_Char.c 0x00000000   Number         0  gui_char.o ABSOLUTE
    ..\..\..\Utilities\Third_Party\STemWin522\GUI\Core\GUI_CharLine.c 0x00000000   Number         0  gui_charline.o ABSOLUTE
    ..\..\..\Utilities\Third_Party\STemWin522\GUI\Core\GUI_CharM.c 0x00000000   Number         0  gui_charm.o ABSOLUTE
    ..\..\..\Utilities\Third_Party\STemWin522\GUI\Core\GUI_CharP.c 0x00000000   Number         0  gui_charp.o ABSOLUTE
    ..\..\..\Utilities\Third_Party\STemWin522\GUI\Core\GUI_CharPExt.c 0x00000000   Number         0  gui_charpext.o ABSOLUTE
    ..\..\..\Utilities\Third_Party\STemWin522\GUI\Core\GUI_Circ.c 0x00000000   Number         0  gui_circ.o ABSOLUTE
    ..\..\..\Utilities\Third_Party\STemWin522\GUI\Core\GUI_ClearRectEx.c 0x00000000   Number         0  gui_clearrectex.o ABSOLUTE
    ..\..\..\Utilities\Third_Party\STemWin522\GUI\Core\GUI_Core.c 0x00000000   Number         0  gui_core.o ABSOLUTE
    ..\..\..\Utilities\Third_Party\STemWin522\GUI\Core\GUI_Curs1.c 0x00000000   Number         0  gui_curs1.o ABSOLUTE
    ..\..\..\Utilities\Third_Party\STemWin522\GUI\Core\GUI_CursorArrowM.c 0x00000000   Number         0  gui_cursorarrowm.o ABSOLUTE
    ..\..\..\Utilities\Third_Party\STemWin522\GUI\Core\GUI_CursorArrowMPx.c 0x00000000   Number         0  gui_cursorarrowmpx.o ABSOLUTE
    ..\..\..\Utilities\Third_Party\STemWin522\GUI\Core\GUI_CursorHeaderM.c 0x00000000   Number         0  gui_cursorheaderm.o ABSOLUTE
    ..\..\..\Utilities\Third_Party\STemWin522\GUI\Core\GUI_CursorHeaderMPx.c 0x00000000   Number         0  gui_cursorheadermpx.o ABSOLUTE
    ..\..\..\Utilities\Third_Party\STemWin522\GUI\Core\GUI_CursorPal.c 0x00000000   Number         0  gui_cursorpal.o ABSOLUTE
    ..\..\..\Utilities\Third_Party\STemWin522\GUI\Core\GUI_Device.c 0x00000000   Number         0  gui_device.o ABSOLUTE
    ..\..\..\Utilities\Third_Party\STemWin522\GUI\Core\GUI_DispChar.c 0x00000000   Number         0  gui_dispchar.o ABSOLUTE
    ..\..\..\Utilities\Third_Party\STemWin522\GUI\Core\GUI_DispChars.c 0x00000000   Number         0  gui_dispchars.o ABSOLUTE
    ..\..\..\Utilities\Third_Party\STemWin522\GUI\Core\GUI_DispString.c 0x00000000   Number         0  gui_dispstring.o ABSOLUTE
    ..\..\..\Utilities\Third_Party\STemWin522\GUI\Core\GUI_DispStringAt.c 0x00000000   Number         0  gui_dispstringat.o ABSOLUTE
    ..\..\..\Utilities\Third_Party\STemWin522\GUI\Core\GUI_DispStringHCenter.c 0x00000000   Number         0  gui_dispstringhcenter.o ABSOLUTE
    ..\..\..\Utilities\Third_Party\STemWin522\GUI\Core\GUI_DispStringInRect.c 0x00000000   Number         0  gui_dispstringinrect.o ABSOLUTE
    ..\..\..\Utilities\Third_Party\STemWin522\GUI\Core\GUI_DispStringInRectEx.c 0x00000000   Number         0  gui_dispstringinrectex.o ABSOLUTE
    ..\..\..\Utilities\Third_Party\STemWin522\GUI\Core\GUI_DispStringInRectWrap.c 0x00000000   Number         0  gui_dispstringinrectwrap.o ABSOLUTE
    ..\..\..\Utilities\Third_Party\STemWin522\GUI\Core\GUI_DrawBitmap.c 0x00000000   Number         0  gui_drawbitmap.o ABSOLUTE
    ..\..\..\Utilities\Third_Party\STemWin522\GUI\Core\GUI_DrawBitmap_24.c 0x00000000   Number         0  gui_drawbitmap_24.o ABSOLUTE
    ..\..\..\Utilities\Third_Party\STemWin522\GUI\Core\GUI_DrawBitmap_444.c 0x00000000   Number         0  gui_drawbitmap_444.o ABSOLUTE
    ..\..\..\Utilities\Third_Party\STemWin522\GUI\Core\GUI_DrawBitmap_555.c 0x00000000   Number         0  gui_drawbitmap_555.o ABSOLUTE
    ..\..\..\Utilities\Third_Party\STemWin522\GUI\Core\GUI_DrawBitmap_565.c 0x00000000   Number         0  gui_drawbitmap_565.o ABSOLUTE
    ..\..\..\Utilities\Third_Party\STemWin522\GUI\Core\GUI_DrawBitmap_8888.c 0x00000000   Number         0  gui_drawbitmap_8888.o ABSOLUTE
    ..\..\..\Utilities\Third_Party\STemWin522\GUI\Core\GUI_DrawFocusRect.c 0x00000000   Number         0  gui_drawfocusrect.o ABSOLUTE
    ..\..\..\Utilities\Third_Party\STemWin522\GUI\Core\GUI_DrawGradient.c 0x00000000   Number         0  gui_drawgradient.o ABSOLUTE
    ..\..\..\Utilities\Third_Party\STemWin522\GUI\Core\GUI_DrawGraphEx.c 0x00000000   Number         0  gui_drawgraphex.o ABSOLUTE
    ..\..\..\Utilities\Third_Party\STemWin522\GUI\Core\GUI_DrawHLine.c 0x00000000   Number         0  gui_drawhline.o ABSOLUTE
    ..\..\..\Utilities\Third_Party\STemWin522\GUI\Core\GUI_DrawLine.c 0x00000000   Number         0  gui_drawline.o ABSOLUTE
    ..\..\..\Utilities\Third_Party\STemWin522\GUI\Core\GUI_DrawPixel.c 0x00000000   Number         0  gui_drawpixel.o ABSOLUTE
    ..\..\..\Utilities\Third_Party\STemWin522\GUI\Core\GUI_DrawPoint.c 0x00000000   Number         0  gui_drawpoint.o ABSOLUTE
    ..\..\..\Utilities\Third_Party\STemWin522\GUI\Core\GUI_DrawVLine.c 0x00000000   Number         0  gui_drawvline.o ABSOLUTE
    ..\..\..\Utilities\Third_Party\STemWin522\GUI\Core\GUI_EncExt.c 0x00000000   Number         0  gui_encext.o ABSOLUTE
    ..\..\..\Utilities\Third_Party\STemWin522\GUI\Core\GUI_ErrorOut.c 0x00000000   Number         0  gui_errorout.o ABSOLUTE
    ..\..\..\Utilities\Third_Party\STemWin522\GUI\Core\GUI_Exec.c 0x00000000   Number         0  gui_exec.o ABSOLUTE
    ..\..\..\Utilities\Third_Party\STemWin522\GUI\Core\GUI_FillPolygon.c 0x00000000   Number         0  gui_fillpolygon.o ABSOLUTE
    ..\..\..\Utilities\Third_Party\STemWin522\GUI\Core\GUI_FillRect.c 0x00000000   Number         0  gui_fillrect.o ABSOLUTE
    ..\..\..\Utilities\Third_Party\STemWin522\GUI\Core\GUI_FillRectEx.c 0x00000000   Number         0  gui_fillrectex.o ABSOLUTE
    ..\..\..\Utilities\Third_Party\STemWin522\GUI\Core\GUI_GetBitmapPixelIndex.c 0x00000000   Number         0  gui_getbitmappixelindex.o ABSOLUTE
    ..\..\..\Utilities\Third_Party\STemWin522\GUI\Core\GUI_GetClientRect.c 0x00000000   Number         0  gui_getclientrect.o ABSOLUTE
    ..\..\..\Utilities\Third_Party\STemWin522\GUI\Core\GUI_GetColor.c 0x00000000   Number         0  gui_getcolor.o ABSOLUTE
    ..\..\..\Utilities\Third_Party\STemWin522\GUI\Core\GUI_GetFontInfo.c 0x00000000   Number         0  gui_getfontinfo.o ABSOLUTE
    ..\..\..\Utilities\Third_Party\STemWin522\GUI\Core\GUI_GetFontSizeY.c 0x00000000   Number         0  gui_getfontsizey.o ABSOLUTE
    ..\..\..\Utilities\Third_Party\STemWin522\GUI\Core\GUI_GetLineStyle.c 0x00000000   Number         0  gui_getlinestyle.o ABSOLUTE
    ..\..\..\Utilities\Third_Party\STemWin522\GUI\Core\GUI_GetOrg.c 0x00000000   Number         0  gui_getorg.o ABSOLUTE
    ..\..\..\Utilities\Third_Party\STemWin522\GUI\Core\GUI_GetStringDistX.c 0x00000000   Number         0  gui_getstringdistx.o ABSOLUTE
    ..\..\..\Utilities\Third_Party\STemWin522\GUI\Core\GUI_GetTextExtend.c 0x00000000   Number         0  gui_gettextextend.o ABSOLUTE
    ..\..\..\Utilities\Third_Party\STemWin522\GUI\Core\GUI_GetYSizeOfFont.c 0x00000000   Number         0  gui_getysizeoffont.o ABSOLUTE
    ..\..\..\Utilities\Third_Party\STemWin522\GUI\Core\GUI_Goto.c 0x00000000   Number         0  gui_goto.o ABSOLUTE
    ..\..\..\Utilities\Third_Party\STemWin522\GUI\Core\GUI_InvertRect.c 0x00000000   Number         0  gui_invertrect.o ABSOLUTE
    ..\..\..\Utilities\Third_Party\STemWin522\GUI\Core\GUI_MergeRect.c 0x00000000   Number         0  gui_mergerect.o ABSOLUTE
    ..\..\..\Utilities\Third_Party\STemWin522\GUI\Core\GUI_MoveRect.c 0x00000000   Number         0  gui_moverect.o ABSOLUTE
    ..\..\..\Utilities\Third_Party\STemWin522\GUI\Core\GUI_OnKey.c 0x00000000   Number         0  gui_onkey.o ABSOLUTE
    ..\..\..\Utilities\Third_Party\STemWin522\GUI\Core\GUI_PID.c 0x00000000   Number         0  gui_pid.o ABSOLUTE
    ..\..\..\Utilities\Third_Party\STemWin522\GUI\Core\GUI_Pen.c 0x00000000   Number         0  gui_pen.o ABSOLUTE
    ..\..\..\Utilities\Third_Party\STemWin522\GUI\Core\GUI_Realloc.c 0x00000000   Number         0  gui_realloc.o ABSOLUTE
    ..\..\..\Utilities\Third_Party\STemWin522\GUI\Core\GUI_RectsIntersect.c 0x00000000   Number         0  gui_rectsintersect.o ABSOLUTE
    ..\..\..\Utilities\Third_Party\STemWin522\GUI\Core\GUI_SPRITE.c 0x00000000   Number         0  gui_sprite.o ABSOLUTE
    ..\..\..\Utilities\Third_Party\STemWin522\GUI\Core\GUI_SaveContext.c 0x00000000   Number         0  gui_savecontext.o ABSOLUTE
    ..\..\..\Utilities\Third_Party\STemWin522\GUI\Core\GUI_SelectLCD.c 0x00000000   Number         0  gui_selectlcd.o ABSOLUTE
    ..\..\..\Utilities\Third_Party\STemWin522\GUI\Core\GUI_SelectLayer.c 0x00000000   Number         0  gui_selectlayer.o ABSOLUTE
    ..\..\..\Utilities\Third_Party\STemWin522\GUI\Core\GUI_SetAlpha.c 0x00000000   Number         0  gui_setalpha.o ABSOLUTE
    ..\..\..\Utilities\Third_Party\STemWin522\GUI\Core\GUI_SetClipRect.c 0x00000000   Number         0  gui_setcliprect.o ABSOLUTE
    ..\..\..\Utilities\Third_Party\STemWin522\GUI\Core\GUI_SetColor.c 0x00000000   Number         0  gui_setcolor.o ABSOLUTE
    ..\..\..\Utilities\Third_Party\STemWin522\GUI\Core\GUI_SetColorIndex.c 0x00000000   Number         0  gui_setcolorindex.o ABSOLUTE
    ..\..\..\Utilities\Third_Party\STemWin522\GUI\Core\GUI_SetDefault.c 0x00000000   Number         0  gui_setdefault.o ABSOLUTE
    ..\..\..\Utilities\Third_Party\STemWin522\GUI\Core\GUI_SetDrawMode.c 0x00000000   Number         0  gui_setdrawmode.o ABSOLUTE
    ..\..\..\Utilities\Third_Party\STemWin522\GUI\Core\GUI_SetFont.c 0x00000000   Number         0  gui_setfont.o ABSOLUTE
    ..\..\..\Utilities\Third_Party\STemWin522\GUI\Core\GUI_SetLineStyle.c 0x00000000   Number         0  gui_setlinestyle.o ABSOLUTE
    ..\..\..\Utilities\Third_Party\STemWin522\GUI\Core\GUI_SetOrg.c 0x00000000   Number         0  gui_setorg.o ABSOLUTE
    ..\..\..\Utilities\Third_Party\STemWin522\GUI\Core\GUI_SetPixelIndex.c 0x00000000   Number         0  gui_setpixelindex.o ABSOLUTE
    ..\..\..\Utilities\Third_Party\STemWin522\GUI\Core\GUI_SetTextAlign.c 0x00000000   Number         0  gui_settextalign.o ABSOLUTE
    ..\..\..\Utilities\Third_Party\STemWin522\GUI\Core\GUI_SetTextMode.c 0x00000000   Number         0  gui_settextmode.o ABSOLUTE
    ..\..\..\Utilities\Third_Party\STemWin522\GUI\Core\GUI_Stream.c 0x00000000   Number         0  gui_stream.o ABSOLUTE
    ..\..\..\Utilities\Third_Party\STemWin522\GUI\Core\GUI_StreamCreate.c 0x00000000   Number         0  gui_streamcreate.o ABSOLUTE
    ..\..\..\Utilities\Third_Party\STemWin522\GUI\Core\GUI_TOUCH.c 0x00000000   Number         0  gui_touch.o ABSOLUTE
    ..\..\..\Utilities\Third_Party\STemWin522\GUI\Core\GUI_TOUCH_DriverAnalog.c 0x00000000   Number         0  gui_touch_driveranalog.o ABSOLUTE
    ..\..\..\Utilities\Third_Party\STemWin522\GUI\Core\GUI_TOUCH_StoreState.c 0x00000000   Number         0  gui_touch_storestate.o ABSOLUTE
    ..\..\..\Utilities\Third_Party\STemWin522\GUI\Core\GUI_TOUCH_StoreUnstable.c 0x00000000   Number         0  gui_touch_storeunstable.o ABSOLUTE
    ..\..\..\Utilities\Third_Party\STemWin522\GUI\Core\GUI_Task.c 0x00000000   Number         0  gui_task.o ABSOLUTE
    ..\..\..\Utilities\Third_Party\STemWin522\GUI\Core\GUI_Time.c 0x00000000   Number         0  gui_time.o ABSOLUTE
    ..\..\..\Utilities\Third_Party\STemWin522\GUI\Core\GUI_Timer.c 0x00000000   Number         0  gui_timer.o ABSOLUTE
    ..\..\..\Utilities\Third_Party\STemWin522\GUI\Core\GUI_UC.c 0x00000000   Number         0  gui_uc.o ABSOLUTE
    ..\..\..\Utilities\Third_Party\STemWin522\GUI\Core\GUI_UC_ConvertUC2UTF8.c 0x00000000   Number         0  gui_uc_convertuc2utf8.o ABSOLUTE
    ..\..\..\Utilities\Third_Party\STemWin522\GUI\Core\GUI_UC_ConvertUTF82UC.c 0x00000000   Number         0  gui_uc_convertutf82uc.o ABSOLUTE
    ..\..\..\Utilities\Third_Party\STemWin522\GUI\Core\GUI_UC_EncodeNone.c 0x00000000   Number         0  gui_uc_encodenone.o ABSOLUTE
    ..\..\..\Utilities\Third_Party\STemWin522\GUI\Core\GUI_UC_EncodeUTF8.c 0x00000000   Number         0  gui_uc_encodeutf8.o ABSOLUTE
    ..\..\..\Utilities\Third_Party\STemWin522\GUI\Core\GUI_Val.c 0x00000000   Number         0  gui_val.o ABSOLUTE
    ..\..\..\Utilities\Third_Party\STemWin522\GUI\Core\GUI_Valf.c 0x00000000   Number         0  gui_valf.o ABSOLUTE
    ..\..\..\Utilities\Third_Party\STemWin522\GUI\Core\GUI_WaitEvent.c 0x00000000   Number         0  gui_waitevent.o ABSOLUTE
    ..\..\..\Utilities\Third_Party\STemWin522\GUI\Core\GUI_XBF.c 0x00000000   Number         0  gui_xbf.o ABSOLUTE
    ..\..\..\Utilities\Third_Party\STemWin522\GUI\Core\GUI_XBF_Prop.c 0x00000000   Number         0  gui_xbf_prop.o ABSOLUTE
    ..\..\..\Utilities\Third_Party\STemWin522\GUI\Core\GUI__AddSpaceHex.c 0x00000000   Number         0  gui__addspacehex.o ABSOLUTE
    ..\..\..\Utilities\Third_Party\STemWin522\GUI\Core\GUI__Alpha.c 0x00000000   Number         0  gui__alpha.o ABSOLUTE
    ..\..\..\Utilities\Third_Party\STemWin522\GUI\Core\GUI__BiDiRouting.c 0x00000000   Number         0  gui__bidirouting.o ABSOLUTE
    ..\..\..\Utilities\Third_Party\STemWin522\GUI\Core\GUI__CalcTextRect.c 0x00000000   Number         0  gui__calctextrect.o ABSOLUTE
    ..\..\..\Utilities\Third_Party\STemWin522\GUI\Core\GUI__CompactPixelIndices.c 0x00000000   Number         0  gui__compactpixelindices.o ABSOLUTE
    ..\..\..\Utilities\Third_Party\STemWin522\GUI\Core\GUI__DivTbl_15_255.c 0x00000000   Number         0  gui__divtbl_15_255.o ABSOLUTE
    ..\..\..\Utilities\Third_Party\STemWin522\GUI\Core\GUI__DivTbl_255_31.c 0x00000000   Number         0  gui__divtbl_255_31.o ABSOLUTE
    ..\..\..\Utilities\Third_Party\STemWin522\GUI\Core\GUI__DivTbl_255_63.c 0x00000000   Number         0  gui__divtbl_255_63.o ABSOLUTE
    ..\..\..\Utilities\Third_Party\STemWin522\GUI\Core\GUI__DivTbl_31_255.c 0x00000000   Number         0  gui__divtbl_31_255.o ABSOLUTE
    ..\..\..\Utilities\Third_Party\STemWin522\GUI\Core\GUI__DivTbl_63_255.c 0x00000000   Number         0  gui__divtbl_63_255.o ABSOLUTE
    ..\..\..\Utilities\Third_Party\STemWin522\GUI\Core\GUI__DivideRound32.c 0x00000000   Number         0  gui__divideround32.o ABSOLUTE
    ..\..\..\Utilities\Third_Party\STemWin522\GUI\Core\GUI__DrawBitmap16bpp.c 0x00000000   Number         0  gui__drawbitmap16bpp.o ABSOLUTE
    ..\..\..\Utilities\Third_Party\STemWin522\GUI\Core\GUI__DrawTwinArc.c 0x00000000   Number         0  gui__drawtwinarc.o ABSOLUTE
    ..\..\..\Utilities\Third_Party\STemWin522\GUI\Core\GUI__ExpandPixelIndices.c 0x00000000   Number         0  gui__expandpixelindices.o ABSOLUTE
    ..\..\..\Utilities\Third_Party\STemWin522\GUI\Core\GUI__GetCursorPos.c 0x00000000   Number         0  gui__getcursorpos.o ABSOLUTE
    ..\..\..\Utilities\Third_Party\STemWin522\GUI\Core\GUI__GetFontSizeY.c 0x00000000   Number         0  gui__getfontsizey.o ABSOLUTE
    ..\..\..\Utilities\Third_Party\STemWin522\GUI\Core\GUI__GetNumChars.c 0x00000000   Number         0  gui__getnumchars.o ABSOLUTE
    ..\..\..\Utilities\Third_Party\STemWin522\GUI\Core\GUI__HandleEOLine.c 0x00000000   Number         0  gui__handleeoline.o ABSOLUTE
    ..\..\..\Utilities\Third_Party\STemWin522\GUI\Core\GUI__IntersectRect.c 0x00000000   Number         0  gui__intersectrect.o ABSOLUTE
    ..\..\..\Utilities\Third_Party\STemWin522\GUI\Core\GUI__IntersectRects.c 0x00000000   Number         0  gui__intersectrects.o ABSOLUTE
    ..\..\..\Utilities\Third_Party\STemWin522\GUI\Core\GUI__ManageCache.c 0x00000000   Number         0  gui__managecache.o ABSOLUTE
    ..\..\..\Utilities\Third_Party\STemWin522\GUI\Core\GUI__Read.c 0x00000000   Number         0  gui__read.o ABSOLUTE
    ..\..\..\Utilities\Third_Party\STemWin522\GUI\Core\GUI__ReduceRect.c 0x00000000   Number         0  gui__reducerect.o ABSOLUTE
    ..\..\..\Utilities\Third_Party\STemWin522\GUI\Core\GUI__SetPixelAlpha.c 0x00000000   Number         0  gui__setpixelalpha.o ABSOLUTE
    ..\..\..\Utilities\Third_Party\STemWin522\GUI\Core\GUI__SetText.c 0x00000000   Number         0  gui__settext.o ABSOLUTE
    ..\..\..\Utilities\Third_Party\STemWin522\GUI\Core\GUI__Wrap.c 0x00000000   Number         0  gui__wrap.o ABSOLUTE
    ..\..\..\Utilities\Third_Party\STemWin522\GUI\Core\GUI__memset.c 0x00000000   Number         0  gui__memset.o ABSOLUTE
    ..\..\..\Utilities\Third_Party\STemWin522\GUI\Core\GUI__memset16.c 0x00000000   Number         0  gui__memset16.o ABSOLUTE
    ..\..\..\Utilities\Third_Party\STemWin522\GUI\Core\GUI__sqrt32.c 0x00000000   Number         0  gui__sqrt32.o ABSOLUTE
    ..\..\..\Utilities\Third_Party\STemWin522\GUI\Core\GUI__strcmp.c 0x00000000   Number         0  gui__strcmp.o ABSOLUTE
    ..\..\..\Utilities\Third_Party\STemWin522\GUI\Core\GUI__strlen.c 0x00000000   Number         0  gui__strlen.o ABSOLUTE
    ..\..\..\Utilities\Third_Party\STemWin522\GUI\Core\LCD.c 0x00000000   Number         0  lcd.o ABSOLUTE
    ..\..\..\Utilities\Third_Party\STemWin522\GUI\Core\LCD_AA.c 0x00000000   Number         0  lcd_aa.o ABSOLUTE
    ..\..\..\Utilities\Third_Party\STemWin522\GUI\Core\LCD_Color.c 0x00000000   Number         0  lcd_color.o ABSOLUTE
    ..\..\..\Utilities\Third_Party\STemWin522\GUI\Core\LCD_GetColorIndex.c 0x00000000   Number         0  lcd_getcolorindex.o ABSOLUTE
    ..\..\..\Utilities\Third_Party\STemWin522\GUI\Core\LCD_GetEx.c 0x00000000   Number         0  lcd_getex.o ABSOLUTE
    ..\..\..\Utilities\Third_Party\STemWin522\GUI\Core\LCD_GetNumDisplays.c 0x00000000   Number         0  lcd_getnumdisplays.o ABSOLUTE
    ..\..\..\Utilities\Third_Party\STemWin522\GUI\Core\LCD_GetP.c 0x00000000   Number         0  lcd_getp.o ABSOLUTE
    ..\..\..\Utilities\Third_Party\STemWin522\GUI\Core\LCD_GetPixelColor.c 0x00000000   Number         0  lcd_getpixelcolor.o ABSOLUTE
    ..\..\..\Utilities\Third_Party\STemWin522\GUI\Core\LCD_Mirror.c 0x00000000   Number         0  lcd_mirror.o ABSOLUTE
    ..\..\..\Utilities\Third_Party\STemWin522\GUI\Core\LCD_NextPixelAPI.c 0x00000000   Number         0  lcd_nextpixelapi.o ABSOLUTE
    ..\..\..\Utilities\Third_Party\STemWin522\GUI\Core\LCD_RLE16.c 0x00000000   Number         0  lcd_rle16.o ABSOLUTE
    ..\..\..\Utilities\Third_Party\STemWin522\GUI\Core\LCD_RLE32.c 0x00000000   Number         0  lcd_rle32.o ABSOLUTE
    ..\..\..\Utilities\Third_Party\STemWin522\GUI\Core\LCD_RLE4.c 0x00000000   Number         0  lcd_rle4.o ABSOLUTE
    ..\..\..\Utilities\Third_Party\STemWin522\GUI\Core\LCD_RLE8.c 0x00000000   Number         0  lcd_rle8.o ABSOLUTE
    ..\..\..\Utilities\Third_Party\STemWin522\GUI\Core\LCD_RLEAlpha.c 0x00000000   Number         0  lcd_rlealpha.o ABSOLUTE
    ..\..\..\Utilities\Third_Party\STemWin522\GUI\Core\LCD_ReadRect.c 0x00000000   Number         0  lcd_readrect.o ABSOLUTE
    ..\..\..\Utilities\Third_Party\STemWin522\GUI\Core\LCD_RotateCCW.c 0x00000000   Number         0  lcd_rotateccw.o ABSOLUTE
    ..\..\..\Utilities\Third_Party\STemWin522\GUI\Core\LCD_RotateCW.c 0x00000000   Number         0  lcd_rotatecw.o ABSOLUTE
    ..\..\..\Utilities\Third_Party\STemWin522\GUI\Core\LCD_SelectLCD.c 0x00000000   Number         0  lcd_selectlcd.o ABSOLUTE
    ..\..\..\Utilities\Third_Party\STemWin522\GUI\Core\LCD_Set.c 0x00000000   Number         0  lcd_set.o ABSOLUTE
    ..\..\..\Utilities\Third_Party\STemWin522\GUI\Core\LCD_SetClipRectEx.c 0x00000000   Number         0  lcd_setcliprectex.o ABSOLUTE
    ..\..\..\Utilities\Third_Party\STemWin522\GUI\Core\LCD_UpdateColorIndices.c 0x00000000   Number         0  lcd_updatecolorindices.o ABSOLUTE
    ..\..\..\Utilities\Third_Party\STemWin522\GUI\DisplayDriver\GUIDRV_FlexColor.c 0x00000000   Number         0  guidrv_flexcolor.o ABSOLUTE
    ..\..\..\Utilities\Third_Party\STemWin522\GUI\DisplayDriver\GUIDRV_FlexColor_16bpp_C0B16.c 0x00000000   Number         0  guidrv_flexcolor_16bpp_c0b16.o ABSOLUTE
    ..\..\..\Utilities\Third_Party\STemWin522\GUI\DisplayDriver\GUIDRV_FlexColor_Func66709.c 0x00000000   Number         0  guidrv_flexcolor_func66709.o ABSOLUTE
    ..\..\..\Utilities\Third_Party\STemWin522\GUI\Font\F08_1.c 0x00000000   Number         0  f08_1.o ABSOLUTE
    ..\..\..\Utilities\Third_Party\STemWin522\GUI\Font\F08_ASCII.c 0x00000000   Number         0  f08_ascii.o ABSOLUTE
    ..\..\..\Utilities\Third_Party\STemWin522\GUI\Font\F10_ASCII.c 0x00000000   Number         0  f10_ascii.o ABSOLUTE
    ..\..\..\Utilities\Third_Party\STemWin522\GUI\Font\F13B_ASCII.c 0x00000000   Number         0  f13b_ascii.o ABSOLUTE
    ..\..\..\Utilities\Third_Party\STemWin522\GUI\Font\F13_1.c 0x00000000   Number         0  f13_1.o ABSOLUTE
    ..\..\..\Utilities\Third_Party\STemWin522\GUI\Font\F13_ASCII.c 0x00000000   Number         0  f13_ascii.o ABSOLUTE
    ..\..\..\Utilities\Third_Party\STemWin522\GUI\Font\F16B_ASCII.c 0x00000000   Number         0  f16b_ascii.o ABSOLUTE
    ..\..\..\Utilities\Third_Party\STemWin522\GUI\Font\F16_ASCII.c 0x00000000   Number         0  f16_ascii.o ABSOLUTE
    ..\..\..\Utilities\Third_Party\STemWin522\GUI\Font\F20B_ASCII.c 0x00000000   Number         0  f20b_ascii.o ABSOLUTE
    ..\..\..\Utilities\Third_Party\STemWin522\GUI\Font\F20_ASCII.c 0x00000000   Number         0  f20_ascii.o ABSOLUTE
    ..\..\..\Utilities\Third_Party\STemWin522\GUI\Font\F24B_ASCII.c 0x00000000   Number         0  f24b_ascii.o ABSOLUTE
    ..\..\..\Utilities\Third_Party\STemWin522\GUI\Font\F24_ASCII.c 0x00000000   Number         0  f24_ascii.o ABSOLUTE
    ..\..\..\Utilities\Third_Party\STemWin522\GUI\Font\F32B_ASCII.c 0x00000000   Number         0  f32b_ascii.o ABSOLUTE
    ..\..\..\Utilities\Third_Party\STemWin522\GUI\Font\F6x8.c 0x00000000   Number         0  f6x8.o ABSOLUTE
    ..\..\..\Utilities\Third_Party\STemWin522\GUI\MemDev\GUIDEV.c 0x00000000   Number         0  guidev.o ABSOLUTE
    ..\..\..\Utilities\Third_Party\STemWin522\GUI\MemDev\GUIDEV_16.c 0x00000000   Number         0  guidev_16.o ABSOLUTE
    ..\..\..\Utilities\Third_Party\STemWin522\GUI\MemDev\GUIDEV_32.c 0x00000000   Number         0  guidev_32.o ABSOLUTE
    ..\..\..\Utilities\Third_Party\STemWin522\GUI\MemDev\GUIDEV_Banding.c 0x00000000   Number         0  guidev_banding.o ABSOLUTE
    ..\..\..\Utilities\Third_Party\STemWin522\GUI\MemDev\GUIDEV_Clear.c 0x00000000   Number         0  guidev_clear.o ABSOLUTE
    ..\..\..\Utilities\Third_Party\STemWin522\GUI\MemDev\GUIDEV_CreateFixed.c 0x00000000   Number         0  guidev_createfixed.o ABSOLUTE
    ..\..\..\Utilities\Third_Party\STemWin522\GUI\MemDev\GUIDEV_GetDataPtr.c 0x00000000   Number         0  guidev_getdataptr.o ABSOLUTE
    ..\..\..\Utilities\Third_Party\STemWin522\GUI\MemDev\GUIDEV_GetPos.c 0x00000000   Number         0  guidev_getpos.o ABSOLUTE
    ..\..\..\Utilities\Third_Party\STemWin522\GUI\MemDev\GUIDEV_GetXSize.c 0x00000000   Number         0  guidev_getxsize.o ABSOLUTE
    ..\..\..\Utilities\Third_Party\STemWin522\GUI\MemDev\GUIDEV_GetYSize.c 0x00000000   Number         0  guidev_getysize.o ABSOLUTE
    ..\..\..\Utilities\Third_Party\STemWin522\GUI\MemDev\GUIDEV_ReduceYSize.c 0x00000000   Number         0  guidev_reduceysize.o ABSOLUTE
    ..\..\..\Utilities\Third_Party\STemWin522\GUI\MemDev\GUIDEV_SetOrg.c 0x00000000   Number         0  guidev_setorg.o ABSOLUTE
    ..\..\..\Utilities\Third_Party\STemWin522\GUI\MemDev\GUIDEV_StaticDevices.c 0x00000000   Number         0  guidev_staticdevices.o ABSOLUTE
    ..\..\..\Utilities\Third_Party\STemWin522\GUI\MemDev\GUIDEV_Usage.c 0x00000000   Number         0  guidev_usage.o ABSOLUTE
    ..\..\..\Utilities\Third_Party\STemWin522\GUI\MemDev\GUIDEV_UsageBM.c 0x00000000   Number         0  guidev_usagebm.o ABSOLUTE
    ..\..\..\Utilities\Third_Party\STemWin522\GUI\MemDev\GUIDEV_Write.c 0x00000000   Number         0  guidev_write.o ABSOLUTE
    ..\..\..\Utilities\Third_Party\STemWin522\GUI\MemDev\GUIDEV_WriteToActiveAlpha.c 0x00000000   Number         0  guidev_writetoactivealpha.o ABSOLUTE
    ..\..\..\Utilities\Third_Party\STemWin522\GUI\MemDev\GUIDEV_WriteToActiveOpaque.c 0x00000000   Number         0  guidev_writetoactiveopaque.o ABSOLUTE
    ..\..\..\Utilities\Third_Party\STemWin522\GUI\WM\WM.c 0x00000000   Number         0  wm.o ABSOLUTE
    ..\..\..\Utilities\Third_Party\STemWin522\GUI\WM\WM_AttachWindow.c 0x00000000   Number         0  wm_attachwindow.o ABSOLUTE
    ..\..\..\Utilities\Third_Party\STemWin522\GUI\WM\WM_BringToBottom.c 0x00000000   Number         0  wm_bringtobottom.o ABSOLUTE
    ..\..\..\Utilities\Third_Party\STemWin522\GUI\WM\WM_BringToTop.c 0x00000000   Number         0  wm_bringtotop.o ABSOLUTE
    ..\..\..\Utilities\Third_Party\STemWin522\GUI\WM\WM_CheckScrollPos.c 0x00000000   Number         0  wm_checkscrollpos.o ABSOLUTE
    ..\..\..\Utilities\Third_Party\STemWin522\GUI\WM\WM_CriticalHandle.c 0x00000000   Number         0  wm_criticalhandle.o ABSOLUTE
    ..\..\..\Utilities\Third_Party\STemWin522\GUI\WM\WM_EnableWindow.c 0x00000000   Number         0  wm_enablewindow.o ABSOLUTE
    ..\..\..\Utilities\Third_Party\STemWin522\GUI\WM\WM_ForEachDesc.c 0x00000000   Number         0  wm_foreachdesc.o ABSOLUTE
    ..\..\..\Utilities\Third_Party\STemWin522\GUI\WM\WM_GetBkColor.c 0x00000000   Number         0  wm_getbkcolor.o ABSOLUTE
    ..\..\..\Utilities\Third_Party\STemWin522\GUI\WM\WM_GetClientRect.c 0x00000000   Number         0  wm_getclientrect.o ABSOLUTE
    ..\..\..\Utilities\Third_Party\STemWin522\GUI\WM\WM_GetClientWindow.c 0x00000000   Number         0  wm_getclientwindow.o ABSOLUTE
    ..\..\..\Utilities\Third_Party\STemWin522\GUI\WM\WM_GetDesktopWindow.c 0x00000000   Number         0  wm_getdesktopwindow.o ABSOLUTE
    ..\..\..\Utilities\Third_Party\STemWin522\GUI\WM\WM_GetDesktopWindowEx.c 0x00000000   Number         0  wm_getdesktopwindowex.o ABSOLUTE
    ..\..\..\Utilities\Third_Party\STemWin522\GUI\WM\WM_GetDialogItem.c 0x00000000   Number         0  wm_getdialogitem.o ABSOLUTE
    ..\..\..\Utilities\Third_Party\STemWin522\GUI\WM\WM_GetFirstChild.c 0x00000000   Number         0  wm_getfirstchild.o ABSOLUTE
    ..\..\..\Utilities\Third_Party\STemWin522\GUI\WM\WM_GetFlags.c 0x00000000   Number         0  wm_getflags.o ABSOLUTE
    ..\..\..\Utilities\Third_Party\STemWin522\GUI\WM\WM_GetFocussedWindow.c 0x00000000   Number         0  wm_getfocussedwindow.o ABSOLUTE
    ..\..\..\Utilities\Third_Party\STemWin522\GUI\WM\WM_GetId.c 0x00000000   Number         0  wm_getid.o ABSOLUTE
    ..\..\..\Utilities\Third_Party\STemWin522\GUI\WM\WM_GetInsideRect.c 0x00000000   Number         0  wm_getinsiderect.o ABSOLUTE
    ..\..\..\Utilities\Third_Party\STemWin522\GUI\WM\WM_GetInsideRectExScrollbar.c 0x00000000   Number         0  wm_getinsiderectexscrollbar.o ABSOLUTE
    ..\..\..\Utilities\Third_Party\STemWin522\GUI\WM\WM_GetInvalidRect.c 0x00000000   Number         0  wm_getinvalidrect.o ABSOLUTE
    ..\..\..\Utilities\Third_Party\STemWin522\GUI\WM\WM_GetNextSibling.c 0x00000000   Number         0  wm_getnextsibling.o ABSOLUTE
    ..\..\..\Utilities\Third_Party\STemWin522\GUI\WM\WM_GetOrg.c 0x00000000   Number         0  wm_getorg.o ABSOLUTE
    ..\..\..\Utilities\Third_Party\STemWin522\GUI\WM\WM_GetParent.c 0x00000000   Number         0  wm_getparent.o ABSOLUTE
    ..\..\..\Utilities\Third_Party\STemWin522\GUI\WM\WM_GetScrollPartner.c 0x00000000   Number         0  wm_getscrollpartner.o ABSOLUTE
    ..\..\..\Utilities\Third_Party\STemWin522\GUI\WM\WM_GetScrollState.c 0x00000000   Number         0  wm_getscrollstate.o ABSOLUTE
    ..\..\..\Utilities\Third_Party\STemWin522\GUI\WM\WM_GetScrollbar.c 0x00000000   Number         0  wm_getscrollbar.o ABSOLUTE
    ..\..\..\Utilities\Third_Party\STemWin522\GUI\WM\WM_GetWindowRect.c 0x00000000   Number         0  wm_getwindowrect.o ABSOLUTE
    ..\..\..\Utilities\Third_Party\STemWin522\GUI\WM\WM_GetWindowSize.c 0x00000000   Number         0  wm_getwindowsize.o ABSOLUTE
    ..\..\..\Utilities\Third_Party\STemWin522\GUI\WM\WM_HasCaptured.c 0x00000000   Number         0  wm_hascaptured.o ABSOLUTE
    ..\..\..\Utilities\Third_Party\STemWin522\GUI\WM\WM_HasFocus.c 0x00000000   Number         0  wm_hasfocus.o ABSOLUTE
    ..\..\..\Utilities\Third_Party\STemWin522\GUI\WM\WM_Hide.c 0x00000000   Number         0  wm_hide.o ABSOLUTE
    ..\..\..\Utilities\Third_Party\STemWin522\GUI\WM\WM_IsFocussable.c 0x00000000   Number         0  wm_isfocussable.o ABSOLUTE
    ..\..\..\Utilities\Third_Party\STemWin522\GUI\WM\WM_IsWindow.c 0x00000000   Number         0  wm_iswindow.o ABSOLUTE
    ..\..\..\Utilities\Third_Party\STemWin522\GUI\WM\WM_MakeModal.c 0x00000000   Number         0  wm_makemodal.o ABSOLUTE
    ..\..\..\Utilities\Third_Party\STemWin522\GUI\WM\WM_MemDev.c 0x00000000   Number         0  wm_memdev.o ABSOLUTE
    ..\..\..\Utilities\Third_Party\STemWin522\GUI\WM\WM_Move.c 0x00000000   Number         0  wm_move.o ABSOLUTE
    ..\..\..\Utilities\Third_Party\STemWin522\GUI\WM\WM_MoveChildTo.c 0x00000000   Number         0  wm_movechildto.o ABSOLUTE
    ..\..\..\Utilities\Third_Party\STemWin522\GUI\WM\WM_NotifyParent.c 0x00000000   Number         0  wm_notifyparent.o ABSOLUTE
    ..\..\..\Utilities\Third_Party\STemWin522\GUI\WM\WM_OnKey.c 0x00000000   Number         0  wm_onkey.o ABSOLUTE
    ..\..\..\Utilities\Third_Party\STemWin522\GUI\WM\WM_PID__GetPrevState.c 0x00000000   Number         0  wm_pid__getprevstate.o ABSOLUTE
    ..\..\..\Utilities\Third_Party\STemWin522\GUI\WM\WM_ResizeWindow.c 0x00000000   Number         0  wm_resizewindow.o ABSOLUTE
    ..\..\..\Utilities\Third_Party\STemWin522\GUI\WM\WM_Screen2Win.c 0x00000000   Number         0  wm_screen2win.o ABSOLUTE
    ..\..\..\Utilities\Third_Party\STemWin522\GUI\WM\WM_SendMessageNoPara.c 0x00000000   Number         0  wm_sendmessagenopara.o ABSOLUTE
    ..\..\..\Utilities\Third_Party\STemWin522\GUI\WM\WM_SendToParent.c 0x00000000   Number         0  wm_sendtoparent.o ABSOLUTE
    ..\..\..\Utilities\Third_Party\STemWin522\GUI\WM\WM_SetCallback.c 0x00000000   Number         0  wm_setcallback.o ABSOLUTE
    ..\..\..\Utilities\Third_Party\STemWin522\GUI\WM\WM_SetCapture.c 0x00000000   Number         0  wm_setcapture.o ABSOLUTE
    ..\..\..\Utilities\Third_Party\STemWin522\GUI\WM\WM_SetCaptureMove.c 0x00000000   Number         0  wm_setcapturemove.o ABSOLUTE
    ..\..\..\Utilities\Third_Party\STemWin522\GUI\WM\WM_SetCreateFlags.c 0x00000000   Number         0  wm_setcreateflags.o ABSOLUTE
    ..\..\..\Utilities\Third_Party\STemWin522\GUI\WM\WM_SetFocus.c 0x00000000   Number         0  wm_setfocus.o ABSOLUTE
    ..\..\..\Utilities\Third_Party\STemWin522\GUI\WM\WM_SetFocusOnNextChild.c 0x00000000   Number         0  wm_setfocusonnextchild.o ABSOLUTE
    ..\..\..\Utilities\Third_Party\STemWin522\GUI\WM\WM_SetFocusOnPrevChild.c 0x00000000   Number         0  wm_setfocusonprevchild.o ABSOLUTE
    ..\..\..\Utilities\Third_Party\STemWin522\GUI\WM\WM_SetScrollState.c 0x00000000   Number         0  wm_setscrollstate.o ABSOLUTE
    ..\..\..\Utilities\Third_Party\STemWin522\GUI\WM\WM_SetScrollbar.c 0x00000000   Number         0  wm_setscrollbar.o ABSOLUTE
    ..\..\..\Utilities\Third_Party\STemWin522\GUI\WM\WM_SetSize.c 0x00000000   Number         0  wm_setsize.o ABSOLUTE
    ..\..\..\Utilities\Third_Party\STemWin522\GUI\WM\WM_SetTrans.c 0x00000000   Number         0  wm_settrans.o ABSOLUTE
    ..\..\..\Utilities\Third_Party\STemWin522\GUI\WM\WM_SetUserClipRect.c 0x00000000   Number         0  wm_setusercliprect.o ABSOLUTE
    ..\..\..\Utilities\Third_Party\STemWin522\GUI\WM\WM_SetWindowPos.c 0x00000000   Number         0  wm_setwindowpos.o ABSOLUTE
    ..\..\..\Utilities\Third_Party\STemWin522\GUI\WM\WM_SetXSize.c 0x00000000   Number         0  wm_setxsize.o ABSOLUTE
    ..\..\..\Utilities\Third_Party\STemWin522\GUI\WM\WM_SetYSize.c 0x00000000   Number         0  wm_setysize.o ABSOLUTE
    ..\..\..\Utilities\Third_Party\STemWin522\GUI\WM\WM_Show.c 0x00000000   Number         0  wm_show.o ABSOLUTE
    ..\..\..\Utilities\Third_Party\STemWin522\GUI\WM\WM_Timer.c 0x00000000   Number         0  wm_timer.o ABSOLUTE
    ..\..\..\Utilities\Third_Party\STemWin522\GUI\WM\WM_Touch.c 0x00000000   Number         0  wm_touch.o ABSOLUTE
    ..\..\..\Utilities\Third_Party\STemWin522\GUI\WM\WM_UserData.c 0x00000000   Number         0  wm_userdata.o ABSOLUTE
    ..\..\..\Utilities\Third_Party\STemWin522\GUI\WM\WM_ValidateWindow.c 0x00000000   Number         0  wm_validatewindow.o ABSOLUTE
    ..\..\..\Utilities\Third_Party\STemWin522\GUI\WM\WM__ForEachDesc.c 0x00000000   Number         0  wm__foreachdesc.o ABSOLUTE
    ..\..\..\Utilities\Third_Party\STemWin522\GUI\WM\WM__GetFirstSibling.c 0x00000000   Number         0  wm__getfirstsibling.o ABSOLUTE
    ..\..\..\Utilities\Third_Party\STemWin522\GUI\WM\WM__GetFocussedChild.c 0x00000000   Number         0  wm__getfocussedchild.o ABSOLUTE
    ..\..\..\Utilities\Third_Party\STemWin522\GUI\WM\WM__GetLastSibling.c 0x00000000   Number         0  wm__getlastsibling.o ABSOLUTE
    ..\..\..\Utilities\Third_Party\STemWin522\GUI\WM\WM__GetPrevSibling.c 0x00000000   Number         0  wm__getprevsibling.o ABSOLUTE
    ..\..\..\Utilities\Third_Party\STemWin522\GUI\WM\WM__IsAncestor.c 0x00000000   Number         0  wm__isancestor.o ABSOLUTE
    ..\..\..\Utilities\Third_Party\STemWin522\GUI\WM\WM__IsChild.c 0x00000000   Number         0  wm__ischild.o ABSOLUTE
    ..\..\..\Utilities\Third_Party\STemWin522\GUI\WM\WM__IsEnabled.c 0x00000000   Number         0  wm__isenabled.o ABSOLUTE
    ..\..\..\Utilities\Third_Party\STemWin522\GUI\WM\WM__Screen2Client.c 0x00000000   Number         0  wm__screen2client.o ABSOLUTE
    ..\..\..\Utilities\Third_Party\STemWin522\GUI\WM\WM__SendMessage.c 0x00000000   Number         0  wm__sendmessage.o ABSOLUTE
    ..\..\..\Utilities\Third_Party\STemWin522\GUI\WM\WM__SendMessageIfEnabled.c 0x00000000   Number         0  wm__sendmessageifenabled.o ABSOLUTE
    ..\..\..\Utilities\Third_Party\STemWin522\GUI\WM\WM__SendMessageNoPara.c 0x00000000   Number         0  wm__sendmessagenopara.o ABSOLUTE
    ..\..\..\Utilities\Third_Party\STemWin522\GUI\WM\WM__UpdateChildPositions.c 0x00000000   Number         0  wm__updatechildpositions.o ABSOLUTE
    ..\..\..\Utilities\Third_Party\STemWin522\GUI\Widget\BUTTON.c 0x00000000   Number         0  button.o ABSOLUTE
    ..\..\..\Utilities\Third_Party\STemWin522\GUI\Widget\BUTTON_Bitmap.c 0x00000000   Number         0  button_bitmap.o ABSOLUTE
    ..\..\..\Utilities\Third_Party\STemWin522\GUI\Widget\BUTTON_Create.c 0x00000000   Number         0  button_create.o ABSOLUTE
    ..\..\..\Utilities\Third_Party\STemWin522\GUI\Widget\BUTTON_CreateIndirect.c 0x00000000   Number         0  button_createindirect.o ABSOLUTE
    ..\..\..\Utilities\Third_Party\STemWin522\GUI\Widget\BUTTON_SelfDraw.c 0x00000000   Number         0  button_selfdraw.o ABSOLUTE
    ..\..\..\Utilities\Third_Party\STemWin522\GUI\Widget\BUTTON_SetTextAlign.c 0x00000000   Number         0  button_settextalign.o ABSOLUTE
    ..\..\..\Utilities\Third_Party\STemWin522\GUI\Widget\BUTTON_Skin.c 0x00000000   Number         0  button_skin.o ABSOLUTE
    ..\..\..\Utilities\Third_Party\STemWin522\GUI\Widget\BUTTON_SkinClassic.c 0x00000000   Number         0  button_skinclassic.o ABSOLUTE
    ..\..\..\Utilities\Third_Party\STemWin522\GUI\Widget\BUTTON_SkinFlex.c 0x00000000   Number         0  button_skinflex.o ABSOLUTE
    ..\..\..\Utilities\Third_Party\STemWin522\GUI\Widget\BUTTON__SetBitmapObj.c 0x00000000   Number         0  button__setbitmapobj.o ABSOLUTE
    ..\..\..\Utilities\Third_Party\STemWin522\GUI\Widget\CHECKBOX.c 0x00000000   Number         0  checkbox.o ABSOLUTE
    ..\..\..\Utilities\Third_Party\STemWin522\GUI\Widget\CHECKBOX_Image.c 0x00000000   Number         0  checkbox_image.o ABSOLUTE
    ..\..\..\Utilities\Third_Party\STemWin522\GUI\Widget\CHECKBOX_SetState.c 0x00000000   Number         0  checkbox_setstate.o ABSOLUTE
    ..\..\..\Utilities\Third_Party\STemWin522\GUI\Widget\CHECKBOX_Skin.c 0x00000000   Number         0  checkbox_skin.o ABSOLUTE
    ..\..\..\Utilities\Third_Party\STemWin522\GUI\Widget\CHECKBOX_SkinClassic.c 0x00000000   Number         0  checkbox_skinclassic.o ABSOLUTE
    ..\..\..\Utilities\Third_Party\STemWin522\GUI\Widget\CHECKBOX_SkinFlex.c 0x00000000   Number         0  checkbox_skinflex.o ABSOLUTE
    ..\..\..\Utilities\Third_Party\STemWin522\GUI\Widget\DIALOG.c 0x00000000   Number         0  dialog.o ABSOLUTE
    ..\..\..\Utilities\Third_Party\STemWin522\GUI\Widget\DROPDOWN.c 0x00000000   Number         0  dropdown.o ABSOLUTE
    ..\..\..\Utilities\Third_Party\STemWin522\GUI\Widget\DROPDOWN_Skin.c 0x00000000   Number         0  dropdown_skin.o ABSOLUTE
    ..\..\..\Utilities\Third_Party\STemWin522\GUI\Widget\DROPDOWN_SkinClassic.c 0x00000000   Number         0  dropdown_skinclassic.o ABSOLUTE
    ..\..\..\Utilities\Third_Party\STemWin522\GUI\Widget\DROPDOWN_SkinFlex.c 0x00000000   Number         0  dropdown_skinflex.o ABSOLUTE
    ..\..\..\Utilities\Third_Party\STemWin522\GUI\Widget\EDIT.c 0x00000000   Number         0  edit.o ABSOLUTE
    ..\..\..\Utilities\Third_Party\STemWin522\GUI\Widget\EDITUlong.c 0x00000000   Number         0  editulong.o ABSOLUTE
    ..\..\..\Utilities\Third_Party\STemWin522\GUI\Widget\EDIT_CreateIndirect.c 0x00000000   Number         0  edit_createindirect.o ABSOLUTE
    ..\..\..\Utilities\Third_Party\STemWin522\GUI\Widget\EDIT_EnableBlink.c 0x00000000   Number         0  edit_enableblink.o ABSOLUTE
    ..\..\..\Utilities\Third_Party\STemWin522\GUI\Widget\FRAMEWIN.c 0x00000000   Number         0  framewin.o ABSOLUTE
    ..\..\..\Utilities\Third_Party\STemWin522\GUI\Widget\FRAMEWIN_Button.c 0x00000000   Number         0  framewin_button.o ABSOLUTE
    ..\..\..\Utilities\Third_Party\STemWin522\GUI\Widget\FRAMEWIN_ButtonClose.c 0x00000000   Number         0  framewin_buttonclose.o ABSOLUTE
    ..\..\..\Utilities\Third_Party\STemWin522\GUI\Widget\FRAMEWIN_CreateIndirect.c 0x00000000   Number         0  framewin_createindirect.o ABSOLUTE
    ..\..\..\Utilities\Third_Party\STemWin522\GUI\Widget\FRAMEWIN_Default.c 0x00000000   Number         0  framewin_default.o ABSOLUTE
    ..\..\..\Utilities\Third_Party\STemWin522\GUI\Widget\FRAMEWIN_Get.c 0x00000000   Number         0  framewin_get.o ABSOLUTE
    ..\..\..\Utilities\Third_Party\STemWin522\GUI\Widget\FRAMEWIN_SetColors.c 0x00000000   Number         0  framewin_setcolors.o ABSOLUTE
    ..\..\..\Utilities\Third_Party\STemWin522\GUI\Widget\FRAMEWIN_SetFont.c 0x00000000   Number         0  framewin_setfont.o ABSOLUTE
    ..\..\..\Utilities\Third_Party\STemWin522\GUI\Widget\FRAMEWIN_SetOwnerDraw.c 0x00000000   Number         0  framewin_setownerdraw.o ABSOLUTE
    ..\..\..\Utilities\Third_Party\STemWin522\GUI\Widget\FRAMEWIN_SetTitleHeight.c 0x00000000   Number         0  framewin_settitleheight.o ABSOLUTE
    ..\..\..\Utilities\Third_Party\STemWin522\GUI\Widget\FRAMEWIN_Skin.c 0x00000000   Number         0  framewin_skin.o ABSOLUTE
    ..\..\..\Utilities\Third_Party\STemWin522\GUI\Widget\FRAMEWIN_SkinClassic.c 0x00000000   Number         0  framewin_skinclassic.o ABSOLUTE
    ..\..\..\Utilities\Third_Party\STemWin522\GUI\Widget\FRAMEWIN_SkinFlex.c 0x00000000   Number         0  framewin_skinflex.o ABSOLUTE
    ..\..\..\Utilities\Third_Party\STemWin522\GUI\Widget\FRAMEWIN__UpdateButtons.c 0x00000000   Number         0  framewin__updatebuttons.o ABSOLUTE
    ..\..\..\Utilities\Third_Party\STemWin522\GUI\Widget\GRAPH.c 0x00000000   Number         0  graph.o ABSOLUTE
    ..\..\..\Utilities\Third_Party\STemWin522\GUI\Widget\GRAPH_DATA_YT.c 0x00000000   Number         0  graph_data_yt.o ABSOLUTE
    ..\..\..\Utilities\Third_Party\STemWin522\GUI\Widget\GRAPH_SCALE.c 0x00000000   Number         0  graph_scale.o ABSOLUTE
    ..\..\..\Utilities\Third_Party\STemWin522\GUI\Widget\GUI_ARRAY.c 0x00000000   Number         0  gui_array.o ABSOLUTE
    ..\..\..\Utilities\Third_Party\STemWin522\GUI\Widget\GUI_ARRAY_DeleteItem.c 0x00000000   Number         0  gui_array_deleteitem.o ABSOLUTE
    ..\..\..\Utilities\Third_Party\STemWin522\GUI\Widget\GUI_ARRAY_InsertItem.c 0x00000000   Number         0  gui_array_insertitem.o ABSOLUTE
    ..\..\..\Utilities\Third_Party\STemWin522\GUI\Widget\GUI_ARRAY_ResizeItem.c 0x00000000   Number         0  gui_array_resizeitem.o ABSOLUTE
    ..\..\..\Utilities\Third_Party\STemWin522\GUI\Widget\GUI_DRAW.c 0x00000000   Number         0  gui_draw.o ABSOLUTE
    ..\..\..\Utilities\Third_Party\STemWin522\GUI\Widget\GUI_DRAW_BITMAP.c 0x00000000   Number         0  gui_draw_bitmap.o ABSOLUTE
    ..\..\..\Utilities\Third_Party\STemWin522\GUI\Widget\GUI_DRAW_Self.c 0x00000000   Number         0  gui_draw_self.o ABSOLUTE
    ..\..\..\Utilities\Third_Party\STemWin522\GUI\Widget\HEADER.c 0x00000000   Number         0  header.o ABSOLUTE
    ..\..\..\Utilities\Third_Party\STemWin522\GUI\Widget\HEADER_GetSel.c 0x00000000   Number         0  header_getsel.o ABSOLUTE
    ..\..\..\Utilities\Third_Party\STemWin522\GUI\Widget\HEADER_Skin.c 0x00000000   Number         0  header_skin.o ABSOLUTE
    ..\..\..\Utilities\Third_Party\STemWin522\GUI\Widget\HEADER_SkinClassic.c 0x00000000   Number         0  header_skinclassic.o ABSOLUTE
    ..\..\..\Utilities\Third_Party\STemWin522\GUI\Widget\HEADER_SkinFlex.c 0x00000000   Number         0  header_skinflex.o ABSOLUTE
    ..\..\..\Utilities\Third_Party\STemWin522\GUI\Widget\ICONVIEW.c 0x00000000   Number         0  iconview.o ABSOLUTE
    ..\..\..\Utilities\Third_Party\STemWin522\GUI\Widget\LISTBOX.c 0x00000000   Number         0  listbox.o ABSOLUTE
    ..\..\..\Utilities\Third_Party\STemWin522\GUI\Widget\LISTBOX_AddStringH.c 0x00000000   Number         0  listbox_addstringh.o ABSOLUTE
    ..\..\..\Utilities\Third_Party\STemWin522\GUI\Widget\LISTBOX_Create.c 0x00000000   Number         0  listbox_create.o ABSOLUTE
    ..\..\..\Utilities\Third_Party\STemWin522\GUI\Widget\LISTBOX_Font.c 0x00000000   Number         0  listbox_font.o ABSOLUTE
    ..\..\..\Utilities\Third_Party\STemWin522\GUI\Widget\LISTBOX_ItemDisabled.c 0x00000000   Number         0  listbox_itemdisabled.o ABSOLUTE
    ..\..\..\Utilities\Third_Party\STemWin522\GUI\Widget\LISTBOX_ItemSpacing.c 0x00000000   Number         0  listbox_itemspacing.o ABSOLUTE
    ..\..\..\Utilities\Third_Party\STemWin522\GUI\Widget\LISTBOX_SetAutoScroll.c 0x00000000   Number         0  listbox_setautoscroll.o ABSOLUTE
    ..\..\..\Utilities\Third_Party\STemWin522\GUI\Widget\LISTBOX_SetBkColor.c 0x00000000   Number         0  listbox_setbkcolor.o ABSOLUTE
    ..\..\..\Utilities\Third_Party\STemWin522\GUI\Widget\LISTBOX_SetOwner.c 0x00000000   Number         0  listbox_setowner.o ABSOLUTE
    ..\..\..\Utilities\Third_Party\STemWin522\GUI\Widget\LISTBOX_SetScrollbarColor.c 0x00000000   Number         0  listbox_setscrollbarcolor.o ABSOLUTE
    ..\..\..\Utilities\Third_Party\STemWin522\GUI\Widget\LISTBOX_SetScrollbarWidth.c 0x00000000   Number         0  listbox_setscrollbarwidth.o ABSOLUTE
    ..\..\..\Utilities\Third_Party\STemWin522\GUI\Widget\LISTBOX_SetTextAlign.c 0x00000000   Number         0  listbox_settextalign.o ABSOLUTE
    ..\..\..\Utilities\Third_Party\STemWin522\GUI\Widget\LISTBOX_SetTextColor.c 0x00000000   Number         0  listbox_settextcolor.o ABSOLUTE
    ..\..\..\Utilities\Third_Party\STemWin522\GUI\Widget\LISTVIEW.c 0x00000000   Number         0  listview.o ABSOLUTE
    ..\..\..\Utilities\Third_Party\STemWin522\GUI\Widget\LISTVIEW_CreateIndirect.c 0x00000000   Number         0  listview_createindirect.o ABSOLUTE
    ..\..\..\Utilities\Third_Party\STemWin522\GUI\Widget\LISTVIEW_DeleteRow.c 0x00000000   Number         0  listview_deleterow.o ABSOLUTE
    ..\..\..\Utilities\Third_Party\STemWin522\GUI\Widget\LISTVIEW_DisableRow.c 0x00000000   Number         0  listview_disablerow.o ABSOLUTE
    ..\..\..\Utilities\Third_Party\STemWin522\GUI\Widget\LISTVIEW_GetHeader.c 0x00000000   Number         0  listview_getheader.o ABSOLUTE
    ..\..\..\Utilities\Third_Party\STemWin522\GUI\Widget\LISTVIEW_GetItemText.c 0x00000000   Number         0  listview_getitemtext.o ABSOLUTE
    ..\..\..\Utilities\Third_Party\STemWin522\GUI\Widget\LISTVIEW_GetNumColumns.c 0x00000000   Number         0  listview_getnumcolumns.o ABSOLUTE
    ..\..\..\Utilities\Third_Party\STemWin522\GUI\Widget\LISTVIEW_GetNumRows.c 0x00000000   Number         0  listview_getnumrows.o ABSOLUTE
    ..\..\..\Utilities\Third_Party\STemWin522\GUI\Widget\LISTVIEW_GetSel.c 0x00000000   Number         0  listview_getsel.o ABSOLUTE
    ..\..\..\Utilities\Third_Party\STemWin522\GUI\Widget\LISTVIEW_GetWrapMode.c 0x00000000   Number         0  listview_getwrapmode.o ABSOLUTE
    ..\..\..\Utilities\Third_Party\STemWin522\GUI\Widget\LISTVIEW_SetAutoScroll.c 0x00000000   Number         0  listview_setautoscroll.o ABSOLUTE
    ..\..\..\Utilities\Third_Party\STemWin522\GUI\Widget\LISTVIEW_SetFont.c 0x00000000   Number         0  listview_setfont.o ABSOLUTE
    ..\..\..\Utilities\Third_Party\STemWin522\GUI\Widget\LISTVIEW_SetGridVis.c 0x00000000   Number         0  listview_setgridvis.o ABSOLUTE
    ..\..\..\Utilities\Third_Party\STemWin522\GUI\Widget\LISTVIEW_SetLBorder.c 0x00000000   Number         0  listview_setlborder.o ABSOLUTE
    ..\..\..\Utilities\Third_Party\STemWin522\GUI\Widget\LISTVIEW_SetRBorder.c 0x00000000   Number         0  listview_setrborder.o ABSOLUTE
    ..\..\..\Utilities\Third_Party\STemWin522\GUI\Widget\LISTVIEW_SetRowHeight.c 0x00000000   Number         0  listview_setrowheight.o ABSOLUTE
    ..\..\..\Utilities\Third_Party\STemWin522\GUI\Widget\LISTVIEW_SetTextAlign.c 0x00000000   Number         0  listview_settextalign.o ABSOLUTE
    ..\..\..\Utilities\Third_Party\STemWin522\GUI\Widget\MESSAGEBOX.c 0x00000000   Number         0  messagebox.o ABSOLUTE
    ..\..\..\Utilities\Third_Party\STemWin522\GUI\Widget\MULTIEDIT.c 0x00000000   Number         0  multiedit.o ABSOLUTE
    ..\..\..\Utilities\Third_Party\STemWin522\GUI\Widget\MULTIEDIT_CreateIndirect.c 0x00000000   Number         0  multiedit_createindirect.o ABSOLUTE
    ..\..\..\Utilities\Third_Party\STemWin522\GUI\Widget\MULTIPAGE.c 0x00000000   Number         0  multipage.o ABSOLUTE
    ..\..\..\Utilities\Third_Party\STemWin522\GUI\Widget\MULTIPAGE_Skin.c 0x00000000   Number         0  multipage_skin.o ABSOLUTE
    ..\..\..\Utilities\Third_Party\STemWin522\GUI\Widget\MULTIPAGE_SkinClassic.c 0x00000000   Number         0  multipage_skinclassic.o ABSOLUTE
    ..\..\..\Utilities\Third_Party\STemWin522\GUI\Widget\MULTIPAGE_SkinFlex.c 0x00000000   Number         0  multipage_skinflex.o ABSOLUTE
    ..\..\..\Utilities\Third_Party\STemWin522\GUI\Widget\PROGBAR.c 0x00000000   Number         0  progbar.o ABSOLUTE
    ..\..\..\Utilities\Third_Party\STemWin522\GUI\Widget\PROGBAR_Skin.c 0x00000000   Number         0  progbar_skin.o ABSOLUTE
    ..\..\..\Utilities\Third_Party\STemWin522\GUI\Widget\PROGBAR_SkinClassic.c 0x00000000   Number         0  progbar_skinclassic.o ABSOLUTE
    ..\..\..\Utilities\Third_Party\STemWin522\GUI\Widget\PROGBAR_SkinFlex.c 0x00000000   Number         0  progbar_skinflex.o ABSOLUTE
    ..\..\..\Utilities\Third_Party\STemWin522\GUI\Widget\RADIO.c 0x00000000   Number         0  radio.o ABSOLUTE
    ..\..\..\Utilities\Third_Party\STemWin522\GUI\Widget\RADIO_Image.c 0x00000000   Number         0  radio_image.o ABSOLUTE
    ..\..\..\Utilities\Third_Party\STemWin522\GUI\Widget\RADIO_Skin.c 0x00000000   Number         0  radio_skin.o ABSOLUTE
    ..\..\..\Utilities\Third_Party\STemWin522\GUI\Widget\RADIO_SkinClassic.c 0x00000000   Number         0  radio_skinclassic.o ABSOLUTE
    ..\..\..\Utilities\Third_Party\STemWin522\GUI\Widget\RADIO_SkinFlex.c 0x00000000   Number         0  radio_skinflex.o ABSOLUTE
    ..\..\..\Utilities\Third_Party\STemWin522\GUI\Widget\SCROLLBAR.c 0x00000000   Number         0  scrollbar.o ABSOLUTE
    ..\..\..\Utilities\Third_Party\STemWin522\GUI\Widget\SCROLLBAR_Create.c 0x00000000   Number         0  scrollbar_create.o ABSOLUTE
    ..\..\..\Utilities\Third_Party\STemWin522\GUI\Widget\SCROLLBAR_Defaults.c 0x00000000   Number         0  scrollbar_defaults.o ABSOLUTE
    ..\..\..\Utilities\Third_Party\STemWin522\GUI\Widget\SCROLLBAR_GetValue.c 0x00000000   Number         0  scrollbar_getvalue.o ABSOLUTE
    ..\..\..\Utilities\Third_Party\STemWin522\GUI\Widget\SCROLLBAR_SetColor.c 0x00000000   Number         0  scrollbar_setcolor.o ABSOLUTE
    ..\..\..\Utilities\Third_Party\STemWin522\GUI\Widget\SCROLLBAR_SetWidth.c 0x00000000   Number         0  scrollbar_setwidth.o ABSOLUTE
    ..\..\..\Utilities\Third_Party\STemWin522\GUI\Widget\SCROLLBAR_Skin.c 0x00000000   Number         0  scrollbar_skin.o ABSOLUTE
    ..\..\..\Utilities\Third_Party\STemWin522\GUI\Widget\SCROLLBAR_SkinClassic.c 0x00000000   Number         0  scrollbar_skinclassic.o ABSOLUTE
    ..\..\..\Utilities\Third_Party\STemWin522\GUI\Widget\SCROLLBAR_SkinFlex.c 0x00000000   Number         0  scrollbar_skinflex.o ABSOLUTE
    ..\..\..\Utilities\Third_Party\STemWin522\GUI\Widget\SLIDER.c 0x00000000   Number         0  slider.o ABSOLUTE
    ..\..\..\Utilities\Third_Party\STemWin522\GUI\Widget\SLIDER_CreateIndirect.c 0x00000000   Number         0  slider_createindirect.o ABSOLUTE
    ..\..\..\Utilities\Third_Party\STemWin522\GUI\Widget\SLIDER_Skin.c 0x00000000   Number         0  slider_skin.o ABSOLUTE
    ..\..\..\Utilities\Third_Party\STemWin522\GUI\Widget\SLIDER_SkinClassic.c 0x00000000   Number         0  slider_skinclassic.o ABSOLUTE
    ..\..\..\Utilities\Third_Party\STemWin522\GUI\Widget\SLIDER_SkinFlex.c 0x00000000   Number         0  slider_skinflex.o ABSOLUTE
    ..\..\..\Utilities\Third_Party\STemWin522\GUI\Widget\TEXT.c 0x00000000   Number         0  text.o ABSOLUTE
    ..\..\..\Utilities\Third_Party\STemWin522\GUI\Widget\TEXT_Create.c 0x00000000   Number         0  text_create.o ABSOLUTE
    ..\..\..\Utilities\Third_Party\STemWin522\GUI\Widget\TEXT_CreateIndirect.c 0x00000000   Number         0  text_createindirect.o ABSOLUTE
    ..\..\..\Utilities\Third_Party\STemWin522\GUI\Widget\TEXT_Default.c 0x00000000   Number         0  text_default.o ABSOLUTE
    ..\..\..\Utilities\Third_Party\STemWin522\GUI\Widget\TEXT_SetBkColor.c 0x00000000   Number         0  text_setbkcolor.o ABSOLUTE
    ..\..\..\Utilities\Third_Party\STemWin522\GUI\Widget\TEXT_SetFont.c 0x00000000   Number         0  text_setfont.o ABSOLUTE
    ..\..\..\Utilities\Third_Party\STemWin522\GUI\Widget\TEXT_SetText.c 0x00000000   Number         0  text_settext.o ABSOLUTE
    ..\..\..\Utilities\Third_Party\STemWin522\GUI\Widget\TEXT_SetTextAlign.c 0x00000000   Number         0  text_settextalign.o ABSOLUTE
    ..\..\..\Utilities\Third_Party\STemWin522\GUI\Widget\TEXT_SetTextColor.c 0x00000000   Number         0  text_settextcolor.o ABSOLUTE
    ..\..\..\Utilities\Third_Party\STemWin522\GUI\Widget\WIDGET.c 0x00000000   Number         0  widget.o ABSOLUTE
    ..\..\..\Utilities\Third_Party\STemWin522\GUI\Widget\WIDGET_Effect_3D.c 0x00000000   Number         0  widget_effect_3d.o ABSOLUTE
    ..\..\..\Utilities\Third_Party\STemWin522\GUI\Widget\WIDGET_Effect_None.c 0x00000000   Number         0  widget_effect_none.o ABSOLUTE
    ..\..\..\Utilities\Third_Party\STemWin522\GUI\Widget\WIDGET_Effect_Simple.c 0x00000000   Number         0  widget_effect_simple.o ABSOLUTE
    ..\..\..\Utilities\Third_Party\STemWin522\GUI\Widget\WIDGET_FillStringInRect.c 0x00000000   Number         0  widget_fillstringinrect.o ABSOLUTE
    ..\..\..\Utilities\Third_Party\STemWin522\GUI\Widget\WIDGET_SetEffect.c 0x00000000   Number         0  widget_seteffect.o ABSOLUTE
    ..\..\..\Utilities\Third_Party\STemWin522\GUI\Widget\WIDGET_SetWidth.c 0x00000000   Number         0  widget_setwidth.o ABSOLUTE
    ..\..\Libraries\CMSIS\core_cm3.c         0x00000000   Number         0  core_cm3.o ABSOLUTE
    ..\..\Libraries\CMSIS\startup\startup_stm32f10x_hd.s 0x00000000   Number         0  startup_stm32f10x_hd.o ABSOLUTE
    ..\..\Libraries\CMSIS\system_stm32f10x.c 0x00000000   Number         0  system_stm32f10x.o ABSOLUTE
    ..\..\Libraries\FWlib\src\misc.c         0x00000000   Number         0  misc.o ABSOLUTE
    ..\..\Libraries\FWlib\src\stm32f10x_adc.c 0x00000000   Number         0  stm32f10x_adc.o ABSOLUTE
    ..\..\Libraries\FWlib\src\stm32f10x_bkp.c 0x00000000   Number         0  stm32f10x_bkp.o ABSOLUTE
    ..\..\Libraries\FWlib\src\stm32f10x_can.c 0x00000000   Number         0  stm32f10x_can.o ABSOLUTE
    ..\..\Libraries\FWlib\src\stm32f10x_cec.c 0x00000000   Number         0  stm32f10x_cec.o ABSOLUTE
    ..\..\Libraries\FWlib\src\stm32f10x_crc.c 0x00000000   Number         0  stm32f10x_crc.o ABSOLUTE
    ..\..\Libraries\FWlib\src\stm32f10x_dac.c 0x00000000   Number         0  stm32f10x_dac.o ABSOLUTE
    ..\..\Libraries\FWlib\src\stm32f10x_dbgmcu.c 0x00000000   Number         0  stm32f10x_dbgmcu.o ABSOLUTE
    ..\..\Libraries\FWlib\src\stm32f10x_dma.c 0x00000000   Number         0  stm32f10x_dma.o ABSOLUTE
    ..\..\Libraries\FWlib\src\stm32f10x_exti.c 0x00000000   Number         0  stm32f10x_exti.o ABSOLUTE
    ..\..\Libraries\FWlib\src\stm32f10x_flash.c 0x00000000   Number         0  stm32f10x_flash.o ABSOLUTE
    ..\..\Libraries\FWlib\src\stm32f10x_fsmc.c 0x00000000   Number         0  stm32f10x_fsmc.o ABSOLUTE
    ..\..\Libraries\FWlib\src\stm32f10x_gpio.c 0x00000000   Number         0  stm32f10x_gpio.o ABSOLUTE
    ..\..\Libraries\FWlib\src\stm32f10x_i2c.c 0x00000000   Number         0  stm32f10x_i2c.o ABSOLUTE
    ..\..\Libraries\FWlib\src\stm32f10x_iwdg.c 0x00000000   Number         0  stm32f10x_iwdg.o ABSOLUTE
    ..\..\Libraries\FWlib\src\stm32f10x_pwr.c 0x00000000   Number         0  stm32f10x_pwr.o ABSOLUTE
    ..\..\Libraries\FWlib\src\stm32f10x_rcc.c 0x00000000   Number         0  stm32f10x_rcc.o ABSOLUTE
    ..\..\Libraries\FWlib\src\stm32f10x_rtc.c 0x00000000   Number         0  stm32f10x_rtc.o ABSOLUTE
    ..\..\Libraries\FWlib\src\stm32f10x_sdio.c 0x00000000   Number         0  stm32f10x_sdio.o ABSOLUTE
    ..\..\Libraries\FWlib\src\stm32f10x_spi.c 0x00000000   Number         0  stm32f10x_spi.o ABSOLUTE
    ..\..\Libraries\FWlib\src\stm32f10x_tim.c 0x00000000   Number         0  stm32f10x_tim.o ABSOLUTE
    ..\..\Libraries\FWlib\src\stm32f10x_usart.c 0x00000000   Number         0  stm32f10x_usart.o ABSOLUTE
    ..\..\Libraries\FWlib\src\stm32f10x_wwdg.c 0x00000000   Number         0  stm32f10x_wwdg.o ABSOLUTE
    ..\..\Mass_Storage\src\hw_config.c       0x00000000   Number         0  hw_config.o ABSOLUTE
    ..\..\Mass_Storage\src\mass_mal.c        0x00000000   Number         0  mass_mal.o ABSOLUTE
    ..\..\Mass_Storage\src\memory.c          0x00000000   Number         0  memory.o ABSOLUTE
    ..\..\Mass_Storage\src\scsi_data.c       0x00000000   Number         0  scsi_data.o ABSOLUTE
    ..\..\Mass_Storage\src\usb_bot.c         0x00000000   Number         0  usb_bot.o ABSOLUTE
    ..\..\Mass_Storage\src\usb_desc.c        0x00000000   Number         0  usb_desc.o ABSOLUTE
    ..\..\Mass_Storage\src\usb_endp.c        0x00000000   Number         0  usb_endp.o ABSOLUTE
    ..\..\Mass_Storage\src\usb_istr.c        0x00000000   Number         0  usb_istr.o ABSOLUTE
    ..\..\Mass_Storage\src\usb_prop.c        0x00000000   Number         0  usb_prop.o ABSOLUTE
    ..\..\Mass_Storage\src\usb_pwr.c         0x00000000   Number         0  usb_pwr.o ABSOLUTE
    ..\..\Mass_Storage\src\usb_scsi.c        0x00000000   Number         0  usb_scsi.o ABSOLUTE
    ..\..\STM32_USB-FS-Device_Driver\src\usb_core.c 0x00000000   Number         0  usb_core.o ABSOLUTE
    ..\..\STM32_USB-FS-Device_Driver\src\usb_init.c 0x00000000   Number         0  usb_init.o ABSOLUTE
    ..\..\STM32_USB-FS-Device_Driver\src\usb_int.c 0x00000000   Number         0  usb_int.o ABSOLUTE
    ..\..\STM32_USB-FS-Device_Driver\src\usb_mem.c 0x00000000   Number         0  usb_mem.o ABSOLUTE
    ..\..\STM32_USB-FS-Device_Driver\src\usb_regs.c 0x00000000   Number         0  usb_regs.o ABSOLUTE
    ..\..\STM32_USB-FS-Device_Driver\src\usb_sil.c 0x00000000   Number         0  usb_sil.o ABSOLUTE
    ..\..\STemWinLibrary522\Config\GUIConf.c 0x00000000   Number         0  guiconf.o ABSOLUTE
    ..\..\STemWinLibrary522\Config\LCDConf_FlexColor_Template.c 0x00000000   Number         0  lcdconf_flexcolor_template.o ABSOLUTE
    ..\..\STemWinLibrary522\OS\GUI_X_Touch_Analog.c 0x00000000   Number         0  gui_x_touch_analog.o ABSOLUTE
    ..\..\STemWinLibrary522\OS\GUI_X_uCOS.c  0x00000000   Number         0  gui_x_ucos.o ABSOLUTE
    ..\..\User\app\ADCapp.c                  0x00000000   Number         0  adcapp.o ABSOLUTE
    ..\..\User\app\Breathingapp.c            0x00000000   Number         0  breathingapp.o ABSOLUTE
    ..\..\User\app\Calculatorapp.c           0x00000000   Number         0  calculatorapp.o ABSOLUTE
    ..\..\User\app\Cameraapp.c               0x00000000   Number         0  cameraapp.o ABSOLUTE
    ..\..\User\app\Clockapp.c                0x00000000   Number         0  clockapp.o ABSOLUTE
    ..\..\User\app\EEPROMapp.c               0x00000000   Number         0  eepromapp.o ABSOLUTE
    ..\..\User\app\Humitureapp.c             0x00000000   Number         0  humitureapp.o ABSOLUTE
    ..\..\User\app\KEYapp.c                  0x00000000   Number         0  keyapp.o ABSOLUTE
    ..\..\User\app\Messageapp.c              0x00000000   Number         0  messageapp.o ABSOLUTE
    ..\..\User\app\Phoneapp.c                0x00000000   Number         0  phoneapp.o ABSOLUTE
    ..\..\User\app\Touch_CalibrationApp.c    0x00000000   Number         0  touch_calibrationapp.o ABSOLUTE
    ..\..\User\app\USBapp.c                  0x00000000   Number         0  usbapp.o ABSOLUTE
    ..\..\User\app\UserApp.c                 0x00000000   Number         0  userapp.o ABSOLUTE
    ..\..\User\app\Wifi.c                    0x00000000   Number         0  wifi.o ABSOLUTE
    ..\..\User\app\app.c                     0x00000000   Number         0  app.o ABSOLUTE
    ..\..\User\app\appicon.c                 0x00000000   Number         0  appicon.o ABSOLUTE
    ..\..\User\app\keypadapp.c               0x00000000   Number         0  keypadapp.o ABSOLUTE
    ..\..\User\app\pysearch.c                0x00000000   Number         0  pysearch.o ABSOLUTE
    ..\..\User\bsp\Beep\beep.c               0x00000000   Number         0  beep.o ABSOLUTE
    ..\..\User\bsp\EEPROM\bsp_i2c_ee.c       0x00000000   Number         0  bsp_i2c_ee.o ABSOLUTE
    ..\..\User\bsp\EEPROM\bsp_i2c_gpio_ee.c  0x00000000   Number         0  bsp_i2c_gpio_ee.o ABSOLUTE
    ..\..\User\bsp\ESP8266\bsp_esp8266.c     0x00000000   Number         0  bsp_esp8266.o ABSOLUTE
    ..\..\User\bsp\Key\key.c                 0x00000000   Number         0  key.o ABSOLUTE
    ..\..\User\bsp\TouchPad\TouchPad.c       0x00000000   Number         0  touchpad.o ABSOLUTE
    ..\..\User\bsp\breathinglight\bsp_breathing.c 0x00000000   Number         0  bsp_breathing.o ABSOLUTE
    ..\..\User\bsp\bsp.c                     0x00000000   Number         0  bsp.o ABSOLUTE
    ..\..\User\bsp\lcd\bsp_ili9341_lcd.c     0x00000000   Number         0  bsp_ili9341_lcd.o ABSOLUTE
    ..\..\User\bsp\lcd\bsp_xpt2046_lcd.c     0x00000000   Number         0  bsp_xpt2046_lcd.o ABSOLUTE
    ..\..\User\bsp\led\bsp_led.c             0x00000000   Number         0  bsp_led.o ABSOLUTE
    ..\..\User\bsp\ov7725\bsp_ov7725.c       0x00000000   Number         0  bsp_ov7725.o ABSOLUTE
    ..\..\User\bsp\ov7725\bsp_sccb.c         0x00000000   Number         0  bsp_sccb.o ABSOLUTE
    ..\..\User\bsp\rtc\bsp_calendar.c        0x00000000   Number         0  bsp_calendar.o ABSOLUTE
    ..\..\User\bsp\rtc\bsp_date.c            0x00000000   Number         0  bsp_date.o ABSOLUTE
    ..\..\User\bsp\rtc\bsp_rtc.c             0x00000000   Number         0  bsp_rtc.o ABSOLUTE
    ..\..\User\bsp\sim900a\bsp_usart2.c      0x00000000   Number         0  bsp_usart2.o ABSOLUTE
    ..\..\User\bsp\sim900a\sim900a.c         0x00000000   Number         0  sim900a.o ABSOLUTE
    ..\..\User\bsp\spi_flash\fatfs_flash_spi.c 0x00000000   Number         0  fatfs_flash_spi.o ABSOLUTE
    ..\..\User\bsp\usart\bsp_usart1.c        0x00000000   Number         0  bsp_usart1.o ABSOLUTE
    ..\..\User\common.c                      0x00000000   Number         0  common.o ABSOLUTE
    ..\..\User\main.c                        0x00000000   Number         0  main.o ABSOLUTE
    ..\..\User\os\os_app_hooks.c             0x00000000   Number         0  os_app_hooks.o ABSOLUTE
    ..\..\User\stm32f10x_it.c                0x00000000   Number         0  stm32f10x_it.o ABSOLUTE
    ..\..\ff10\diskio.c                      0x00000000   Number         0  diskio.o ABSOLUTE
    ..\..\ff10\ff.c                          0x00000000   Number         0  ff.o ABSOLUTE
    ..\..\ff10\firecc936.c                   0x00000000   Number         0  firecc936.o ABSOLUTE
    ..\..\uCOS-III\uC-CPU\ARM-Cortex-M3\RealView\cpu_a.asm 0x00000000   Number         0  cpu_a.o ABSOLUTE
    ..\..\uCOS-III\uC-CPU\ARM-Cortex-M3\RealView\cpu_c.c 0x00000000   Number         0  cpu_c.o ABSOLUTE
    ..\..\uCOS-III\uC-CPU\cpu_core.c         0x00000000   Number         0  cpu_core.o ABSOLUTE
    ..\..\uCOS-III\uC-LIB\Ports\ARM-Cortex-M3\RealView\lib_mem_a.asm 0x00000000   Number         0  lib_mem_a.o ABSOLUTE
    ..\..\uCOS-III\uC-LIB\lib_ascii.c        0x00000000   Number         0  lib_ascii.o ABSOLUTE
    ..\..\uCOS-III\uC-LIB\lib_math.c         0x00000000   Number         0  lib_math.o ABSOLUTE
    ..\..\uCOS-III\uC-LIB\lib_mem.c          0x00000000   Number         0  lib_mem.o ABSOLUTE
    ..\..\uCOS-III\uC-LIB\lib_str.c          0x00000000   Number         0  lib_str.o ABSOLUTE
    ..\..\uCOS-III\uCOS-III\Ports\ARM-Cortex-M3\Generic\RealView\os_cpu_a.s 0x00000000   Number         0  os_cpu_a.o ABSOLUTE
    ..\..\uCOS-III\uCOS-III\Ports\ARM-Cortex-M3\Generic\RealView\os_cpu_c.c 0x00000000   Number         0  os_cpu_c.o ABSOLUTE
    ..\..\uCOS-III\uCOS-III\Source\os_cfg_app.c 0x00000000   Number         0  os_cfg_app.o ABSOLUTE
    ..\..\uCOS-III\uCOS-III\Source\os_core.c 0x00000000   Number         0  os_core.o ABSOLUTE
    ..\..\uCOS-III\uCOS-III\Source\os_dbg.c  0x00000000   Number         0  os_dbg.o ABSOLUTE
    ..\..\uCOS-III\uCOS-III\Source\os_flag.c 0x00000000   Number         0  os_flag.o ABSOLUTE
    ..\..\uCOS-III\uCOS-III\Source\os_int.c  0x00000000   Number         0  os_int.o ABSOLUTE
    ..\..\uCOS-III\uCOS-III\Source\os_mem.c  0x00000000   Number         0  os_mem.o ABSOLUTE
    ..\..\uCOS-III\uCOS-III\Source\os_msg.c  0x00000000   Number         0  os_msg.o ABSOLUTE
    ..\..\uCOS-III\uCOS-III\Source\os_mutex.c 0x00000000   Number         0  os_mutex.o ABSOLUTE
    ..\..\uCOS-III\uCOS-III\Source\os_pend_multi.c 0x00000000   Number         0  os_pend_multi.o ABSOLUTE
    ..\..\uCOS-III\uCOS-III\Source\os_prio.c 0x00000000   Number         0  os_prio.o ABSOLUTE
    ..\..\uCOS-III\uCOS-III\Source\os_q.c    0x00000000   Number         0  os_q.o ABSOLUTE
    ..\..\uCOS-III\uCOS-III\Source\os_sem.c  0x00000000   Number         0  os_sem.o ABSOLUTE
    ..\..\uCOS-III\uCOS-III\Source\os_stat.c 0x00000000   Number         0  os_stat.o ABSOLUTE
    ..\..\uCOS-III\uCOS-III\Source\os_task.c 0x00000000   Number         0  os_task.o ABSOLUTE
    ..\..\uCOS-III\uCOS-III\Source\os_tick.c 0x00000000   Number         0  os_tick.o ABSOLUTE
    ..\..\uCOS-III\uCOS-III\Source\os_time.c 0x00000000   Number         0  os_time.o ABSOLUTE
    ..\..\uCOS-III\uCOS-III\Source\os_tmr.c  0x00000000   Number         0  os_tmr.o ABSOLUTE
    ..\..\uCOS-III\uCOS-III\Source\os_var.c  0x00000000   Number         0  os_var.o ABSOLUTE
    ..\\..\\Libraries\\CMSIS\\core_cm3.c     0x00000000   Number         0  core_cm3.o ABSOLUTE
    cdcmple.s                                0x00000000   Number         0  cdcmple.o ABSOLUTE
    cdrcmple.s                               0x00000000   Number         0  cdrcmple.o ABSOLUTE
    cfcmple.s                                0x00000000   Number         0  cfcmple.o ABSOLUTE
    dc.s                                     0x00000000   Number         0  dc.o ABSOLUTE
    handlers.s                               0x00000000   Number         0  handlers.o ABSOLUTE
    init.s                                   0x00000000   Number         0  init.o ABSOLUTE
    RESET                                    0x08000000   Section      304  startup_stm32f10x_hd.o(RESET)
    .ARM.Collect$$$$00000000                 0x08000130   Section        0  entry.o(.ARM.Collect$$$$00000000)
    .ARM.Collect$$$$00000001                 0x08000130   Section        4  entry2.o(.ARM.Collect$$$$00000001)
    .ARM.Collect$$$$00000004                 0x08000134   Section        4  entry5.o(.ARM.Collect$$$$00000004)
    .ARM.Collect$$$$00000008                 0x08000138   Section        0  entry7b.o(.ARM.Collect$$$$00000008)
    .ARM.Collect$$$$0000000A                 0x08000138   Section        0  entry8b.o(.ARM.Collect$$$$0000000A)
    .ARM.Collect$$$$0000000B                 0x08000138   Section        8  entry9a.o(.ARM.Collect$$$$0000000B)
    .ARM.Collect$$$$0000000D                 0x08000140   Section        0  entry10a.o(.ARM.Collect$$$$0000000D)
    .ARM.Collect$$$$0000000F                 0x08000140   Section        0  entry11a.o(.ARM.Collect$$$$0000000F)
    .ARM.Collect$$$$00002712                 0x08000140   Section        4  entry2.o(.ARM.Collect$$$$00002712)
    __lit__00000000                          0x08000140   Data           4  entry2.o(.ARM.Collect$$$$00002712)
    .emb_text                                0x08000144   Section       32  core_cm3.o(.emb_text)
    .text                                    0x08000164   Section       36  startup_stm32f10x_hd.o(.text)
    .text                                    0x08000188   Section       52  cpu_a.o(.text)
    .text                                    0x080001bc   Section        0  uldiv.o(.text)
    .text                                    0x0800021e   Section        0  memmovea.o(.text)
    .text                                    0x0800025e   Section        0  memseta.o(.text)
    .text                                    0x08000282   Section        0  strcat.o(.text)
    .text                                    0x0800029a   Section        0  strstr.o(.text)
    .text                                    0x080002be   Section        0  strlen.o(.text)
    .text                                    0x080002cc   Section        0  memcmp.o(.text)
    .text                                    0x080002e6   Section        0  strcpy.o(.text)
    .text                                    0x080002f8   Section        0  atol.o(.text)
    .text                                    0x08000312   Section        0  fadd.o(.text)
    .text                                    0x080003c2   Section        0  fmul.o(.text)
    .text                                    0x08000426   Section        0  dadd.o(.text)
    .text                                    0x08000574   Section        0  dmul.o(.text)
    .text                                    0x08000658   Section        0  ddiv.o(.text)
    .text                                    0x08000736   Section        0  dscalb.o(.text)
    .text                                    0x08000764   Section        0  fflti.o(.text)
    .text                                    0x08000776   Section        0  ffltui.o(.text)
    .text                                    0x08000780   Section        0  dflti.o(.text)
    .text                                    0x080007a2   Section        0  ffixi.o(.text)
    .text                                    0x080007d4   Section        0  ffixui.o(.text)
    .text                                    0x080007fc   Section        0  f2d.o(.text)
    .text                                    0x08000824   Section       48  cdcmple.o(.text)
    .text                                    0x08000854   Section        0  d2f.o(.text)
    .text                                    0x0800088c   Section       20  cfcmple.o(.text)
    .text                                    0x080008a0   Section        0  uidiv.o(.text)
    .text                                    0x080008cc   Section        0  llshl.o(.text)
    .text                                    0x080008ea   Section        0  llushr.o(.text)
    .text                                    0x0800090a   Section        0  llsshr.o(.text)
    .text                                    0x08000930   Section        0  strtod.o(.text)
    _local_sscanf                            0x08000931   Thumb Code    54  strtod.o(.text)
    .text                                    0x080009cc   Section        0  strtol.o(.text)
    .text                                    0x08000a3c   Section        0  fepilogue.o(.text)
    .text                                    0x08000a3c   Section        0  iusefp.o(.text)
    .text                                    0x08000aaa   Section        0  depilogue.o(.text)
    .text                                    0x08000b64   Section        0  dfixul.o(.text)
    .text                                    0x08000b94   Section       48  cdrcmple.o(.text)
    .text                                    0x08000bc4   Section       36  init.o(.text)
    .text                                    0x08000be8   Section        0  ctype_o.o(.text)
    .text                                    0x08000bf0   Section        0  isspace_o.o(.text)
    .text                                    0x08000c04   Section        0  scanf_fp.o(.text)
    _fp_value                                0x08000c05   Thumb Code   256  scanf_fp.o(.text)
    .text                                    0x08000f3c   Section        0  _sgetc.o(.text)
    .text                                    0x08000f7c   Section        0  _strtoul.o(.text)
    .text                                    0x0800101a   Section        0  _chval.o(.text)
    .text                                    0x08001036   Section        0  dfltul.o(.text)
    .text                                    0x0800104e   Section        0  __dczerorl2.o(.text)
    CODE                                     0x080010a4   Section      132  os_cpu_a.o(CODE)
    i.ADC1_GPIO_Config                       0x08001128   Section        0  adcapp.o(i.ADC1_GPIO_Config)
    ADC1_GPIO_Config                         0x08001129   Thumb Code    42  adcapp.o(i.ADC1_GPIO_Config)
    i.ADC1_Init                              0x08001158   Section        0  adcapp.o(i.ADC1_Init)
    ADC1_Init                                0x08001159   Thumb Code    14  adcapp.o(i.ADC1_Init)
    i.ADC1_Mode_Config                       0x08001168   Section        0  adcapp.o(i.ADC1_Mode_Config)
    ADC1_Mode_Config                         0x08001169   Thumb Code   180  adcapp.o(i.ADC1_Mode_Config)
    i.ADC_Cmd                                0x08001228   Section        0  stm32f10x_adc.o(i.ADC_Cmd)
    i.ADC_DMACmd                             0x08001240   Section        0  stm32f10x_adc.o(i.ADC_DMACmd)
    i.ADC_GetCalibrationStatus               0x08001258   Section        0  stm32f10x_adc.o(i.ADC_GetCalibrationStatus)
    i.ADC_GetResetCalibrationStatus          0x08001266   Section        0  stm32f10x_adc.o(i.ADC_GetResetCalibrationStatus)
    i.ADC_Init                               0x08001274   Section        0  stm32f10x_adc.o(i.ADC_Init)
    i.ADC_RegularChannelConfig               0x080012bc   Section        0  stm32f10x_adc.o(i.ADC_RegularChannelConfig)
    i.ADC_ResetCalibration                   0x08001330   Section        0  stm32f10x_adc.o(i.ADC_ResetCalibration)
    i.ADC_SoftwareStartConvCmd               0x0800133a   Section        0  stm32f10x_adc.o(i.ADC_SoftwareStartConvCmd)
    i.ADC_StartCalibration                   0x08001352   Section        0  stm32f10x_adc.o(i.ADC_StartCalibration)
    i.Abs                                    0x0800135c   Section        0  gui_drawline.o(i.Abs)
    Abs                                      0x0800135d   Thumb Code     8  gui_drawline.o(i.Abs)
    i.AppObjCreate                           0x08001364   Section        0  main.o(i.AppObjCreate)
    AppObjCreate                             0x08001365   Thumb Code     2  main.o(i.AppObjCreate)
    i.AppTaskCreate                          0x08001368   Section        0  main.o(i.AppTaskCreate)
    AppTaskCreate                            0x08001369   Thumb Code    90  main.o(i.AppTaskCreate)
    i.AppTaskStart                           0x080013fc   Section        0  main.o(i.AppTaskStart)
    AppTaskStart                             0x080013fd   Thumb Code    66  main.o(i.AppTaskStart)
    i.AppTaskUpdate                          0x080014a0   Section        0  main.o(i.AppTaskUpdate)
    AppTaskUpdate                            0x080014a1   Thumb Code   112  main.o(i.AppTaskUpdate)
    i.AppTaskUserapp                         0x0800151c   Section        0  main.o(i.AppTaskUserapp)
    AppTaskUserapp                           0x0800151d   Thumb Code    18  main.o(i.AppTaskUserapp)
    i.BKP_DeInit                             0x08001534   Section        0  stm32f10x_bkp.o(i.BKP_DeInit)
    i.BKP_ReadBackupRegister                 0x08001548   Section        0  stm32f10x_bkp.o(i.BKP_ReadBackupRegister)
    i.BKP_WriteBackupRegister                0x0800155c   Section        0  stm32f10x_bkp.o(i.BKP_WriteBackupRegister)
    i.BSP_CPU_ClkFreq                        0x08001570   Section        0  bsp.o(i.BSP_CPU_ClkFreq)
    i.BSP_Init                               0x08001580   Section        0  bsp.o(i.BSP_Init)
    i.BSP_Tick_Init                          0x08001654   Section        0  bsp.o(i.BSP_Tick_Init)
    i.BUTTON_Callback                        0x08001670   Section        0  button.o(i.BUTTON_Callback)
    i.BUTTON_CreateAsChild                   0x0800174c   Section        0  button_create.o(i.BUTTON_CreateAsChild)
    i.BUTTON_CreateEx                        0x08001766   Section        0  button.o(i.BUTTON_CreateEx)
    i.BUTTON_CreateIndirect                  0x08001782   Section        0  button_createindirect.o(i.BUTTON_CreateIndirect)
    i.BUTTON_CreateUser                      0x080017c8   Section        0  button.o(i.BUTTON_CreateUser)
    i.BUTTON_DrawSkinFlex                    0x08001844   Section        0  button_skinflex.o(i.BUTTON_DrawSkinFlex)
    i.BUTTON_SetBitmap                       0x08001a7c   Section        0  button_bitmap.o(i.BUTTON_SetBitmap)
    i.BUTTON_SetBitmapEx                     0x08001a88   Section        0  button_bitmap.o(i.BUTTON_SetBitmapEx)
    i.BUTTON_SetDefaultSkin                  0x08001aa8   Section        0  button_skin.o(i.BUTTON_SetDefaultSkin)
    i.BUTTON_SetFocussable                   0x08001ac4   Section        0  button.o(i.BUTTON_SetFocussable)
    i.BUTTON_SetFont                         0x08001ad4   Section        0  button.o(i.BUTTON_SetFont)
    i.BUTTON_SetPressed                      0x08001afc   Section        0  button.o(i.BUTTON_SetPressed)
    i.BUTTON_SetSelfDraw                     0x08001b0e   Section        0  button_selfdraw.o(i.BUTTON_SetSelfDraw)
    i.BUTTON_SetSelfDrawEx                   0x08001b1a   Section        0  button_selfdraw.o(i.BUTTON_SetSelfDrawEx)
    i.BUTTON_SetText                         0x08001b3a   Section        0  button.o(i.BUTTON_SetText)
    i.BUTTON_SetTextAlign                    0x08001b94   Section        0  button_settextalign.o(i.BUTTON_SetTextAlign)
    i.BUTTON__SetDrawObj                     0x08001bbe   Section        0  button__setbitmapobj.o(i.BUTTON__SetDrawObj)
    i.Beep_Init                              0x08001bfc   Section        0  beep.o(i.Beep_Init)
    i.Bot_Abort                              0x08001c34   Section        0  usb_bot.o(i.Bot_Abort)
    i.Bsp_NVIC_Configuration                 0x08001c74   Section        0  bsp.o(i.Bsp_NVIC_Configuration)
    Bsp_NVIC_Configuration                   0x08001c75   Thumb Code     8  bsp.o(i.Bsp_NVIC_Configuration)
    i.BusFault_Handler                       0x08001c7c   Section        0  stm32f10x_it.o(i.BusFault_Handler)
    i.ByteSwap                               0x08001c7e   Section        0  usb_regs.o(i.ByteSwap)
    i.CBW_Decode                             0x08001c88   Section        0  usb_bot.o(i.CBW_Decode)
    i.CHECKBOX_DrawSkinFlex                  0x08001edc   Section        0  checkbox_skinflex.o(i.CHECKBOX_DrawSkinFlex)
    i.CHECKBOX_GetSkinFlexButtonSize         0x08001fb8   Section        0  checkbox_skinflex.o(i.CHECKBOX_GetSkinFlexButtonSize)
    i.CHECKBOX_SetDefaultSkin                0x08001fd8   Section        0  checkbox_skin.o(i.CHECKBOX_SetDefaultSkin)
    i.CHECKBOX__GetButtonSize                0x08001ff4   Section        0  checkbox.o(i.CHECKBOX__GetButtonSize)
    i.CL_DispChar                            0x08002018   Section        0  gui_dispchar.o(i.CL_DispChar)
    CL_DispChar                              0x08002019   Thumb Code   134  gui_dispchar.o(i.CL_DispChar)
    i.CPU_Init                               0x080020a4   Section        0  cpu_core.o(i.CPU_Init)
    i.CPU_TS_Init                            0x080020a8   Section        0  cpu_core.o(i.CPU_TS_Init)
    CPU_TS_Init                              0x080020a9   Thumb Code    10  cpu_core.o(i.CPU_TS_Init)
    i.CPU_TS_TmrFreqSet                      0x080020b8   Section        0  cpu_core.o(i.CPU_TS_TmrFreqSet)
    i.CPU_TS_TmrInit                         0x080020c4   Section        0  bsp.o(i.CPU_TS_TmrInit)
    i.CPU_TS_TmrRd                           0x080020f4   Section        0  bsp.o(i.CPU_TS_TmrRd)
    i.CTR_HP                                 0x08002100   Section        0  usb_int.o(i.CTR_HP)
    i.CTR_LP                                 0x08002184   Section        0  usb_int.o(i.CTR_LP)
    i.ClearDTOG_RX                           0x08002338   Section        0  usb_regs.o(i.ClearDTOG_RX)
    i.ClearDTOG_TX                           0x08002360   Section        0  usb_regs.o(i.ClearDTOG_TX)
    i.Clear_Status_Out                       0x08002388   Section        0  usb_regs.o(i.Clear_Status_Out)
    i.CreateBotWin                           0x080023a8   Section        0  app.o(i.CreateBotWin)
    CreateBotWin                             0x080023a9   Thumb Code   116  app.o(i.CreateBotWin)
    i.CreateMidWin                           0x0800242c   Section        0  app.o(i.CreateMidWin)
    CreateMidWin                             0x0800242d   Thumb Code   186  app.o(i.CreateMidWin)
    i.CreateTopWin                           0x080024fc   Section        0  app.o(i.CreateTopWin)
    CreateTopWin                             0x080024fd   Thumb Code   134  app.o(i.CreateTopWin)
    i.DHT11_Init                             0x080025a8   Section        0  wifi.o(i.DHT11_Init)
    i.DHT11_ReadLoop                         0x080025cc   Section        0  wifi.o(i.DHT11_ReadLoop)
    i.DIALOG_GetBkColor                      0x08002650   Section        0  dialog.o(i.DIALOG_GetBkColor)
    i.DMA_Cmd                                0x0800265c   Section        0  stm32f10x_dma.o(i.DMA_Cmd)
    i.DMA_DeInit                             0x08002678   Section        0  stm32f10x_dma.o(i.DMA_DeInit)
    i.DMA_Init                               0x08002770   Section        0  stm32f10x_dma.o(i.DMA_Init)
    i.DROPDOWN_DrawSkinFlex                  0x080027ac   Section        0  dropdown_skinflex.o(i.DROPDOWN_DrawSkinFlex)
    i.DROPDOWN_SetDefaultSkin                0x08002858   Section        0  dropdown_skin.o(i.DROPDOWN_SetDefaultSkin)
    i.DROPDOWN__GetpItemLocked               0x08002874   Section        0  dropdown.o(i.DROPDOWN__GetpItemLocked)
    i.DS18B20_Get_Temp                       0x0800289e   Section        0  humitureapp.o(i.DS18B20_Get_Temp)
    i.DS18B20_Init                           0x08002908   Section        0  humitureapp.o(i.DS18B20_Init)
    i.DS18B20_Presence                       0x0800291c   Section        0  humitureapp.o(i.DS18B20_Presence)
    DS18B20_Presence                         0x0800291d   Thumb Code    84  humitureapp.o(i.DS18B20_Presence)
    i.DS18B20_Read_Bit                       0x08002974   Section        0  humitureapp.o(i.DS18B20_Read_Bit)
    DS18B20_Read_Bit                         0x08002975   Thumb Code    54  humitureapp.o(i.DS18B20_Read_Bit)
    i.DS18B20_Read_Byte                      0x080029b0   Section        0  humitureapp.o(i.DS18B20_Read_Byte)
    i.DS18B20_Rst                            0x080029cc   Section        0  humitureapp.o(i.DS18B20_Rst)
    DS18B20_Rst                              0x080029cd   Thumb Code    42  humitureapp.o(i.DS18B20_Rst)
    i.DS18B20_Write_Byte                     0x080029fc   Section        0  humitureapp.o(i.DS18B20_Write_Byte)
    i.DataStageIn                            0x08002a58   Section        0  usb_core.o(i.DataStageIn)
    DataStageIn                              0x08002a59   Thumb Code   158  usb_core.o(i.DataStageIn)
    i.DataStageOut                           0x08002b10   Section        0  usb_core.o(i.DataStageOut)
    DataStageOut                             0x08002b11   Thumb Code   140  usb_core.o(i.DataStageOut)
    i.Data_Setup0                            0x08002bb0   Section        0  usb_core.o(i.Data_Setup0)
    Data_Setup0                              0x08002bb1   Thumb Code   402  usb_core.o(i.Data_Setup0)
    i.DebugMon_Handler                       0x08002d68   Section        0  stm32f10x_it.o(i.DebugMon_Handler)
    i.DisableCamera                          0x08002d6c   Section        0  bsp_ov7725.o(i.DisableCamera)
    i.EDIT_AddKey                            0x08002e0c   Section        0  edit.o(i.EDIT_AddKey)
    i.EDIT_Callback                          0x08002f24   Section        0  edit.o(i.EDIT_Callback)
    i.EDIT_CreateIndirect                    0x08002fec   Section        0  edit_createindirect.o(i.EDIT_CreateIndirect)
    i.EDIT_CreateUser                        0x08003038   Section        0  edit.o(i.EDIT_CreateUser)
    i.EDIT_EnableBlink                       0x080030dc   Section        0  edit_enableblink.o(i.EDIT_EnableBlink)
    i.EDIT_GetText                           0x0800312c   Section        0  edit.o(i.EDIT_GetText)
    i.EDIT_GetValue                          0x0800318c   Section        0  edit.o(i.EDIT_GetValue)
    i.EDIT_SetCursorAtPixel                  0x080031b2   Section        0  edit.o(i.EDIT_SetCursorAtPixel)
    i.EDIT_SetFont                           0x08003270   Section        0  edit.o(i.EDIT_SetFont)
    i.EDIT_SetText                           0x0800329a   Section        0  edit.o(i.EDIT_SetText)
    i.EDIT_SetTextAlign                      0x08003364   Section        0  edit.o(i.EDIT_SetTextAlign)
    i.EDIT_SetTextColor                      0x0800338e   Section        0  edit.o(i.EDIT_SetTextColor)
    i.EDIT_SetUlongMode                      0x080033c4   Section        0  editulong.o(i.EDIT_SetUlongMode)
    i.EDIT_SetValue                          0x08003430   Section        0  edit.o(i.EDIT_SetValue)
    i.EDIT__SetCursorPos                     0x08003436   Section        0  edit.o(i.EDIT__SetCursorPos)
    i.EDIT__SetValueUnsigned                 0x0800348a   Section        0  edit.o(i.EDIT__SetValueUnsigned)
    i.EP1_IN_Callback                        0x08003490   Section        0  usb_endp.o(i.EP1_IN_Callback)
    i.EP2_OUT_Callback                       0x080034a4   Section        0  usb_endp.o(i.EP2_OUT_Callback)
    i.ESP8266_AT_Test                        0x080034b8   Section        0  bsp_esp8266.o(i.ESP8266_AT_Test)
    i.ESP8266_Cmd                            0x08003504   Section        0  bsp_esp8266.o(i.ESP8266_Cmd)
    i.ESP8266_Enable_MultipleId              0x08003598   Section        0  bsp_esp8266.o(i.ESP8266_Enable_MultipleId)
    i.ESP8266_GPIO_Config                    0x080035dc   Section        0  bsp_esp8266.o(i.ESP8266_GPIO_Config)
    ESP8266_GPIO_Config                      0x080035dd   Thumb Code    56  bsp_esp8266.o(i.ESP8266_GPIO_Config)
    i.ESP8266_Init                           0x08003618   Section        0  bsp_esp8266.o(i.ESP8266_Init)
    i.ESP8266_JoinAP                         0x08003634   Section        0  bsp_esp8266.o(i.ESP8266_JoinAP)
    i.ESP8266_Link_Server                    0x08003678   Section        0  bsp_esp8266.o(i.ESP8266_Link_Server)
    i.ESP8266_Net_Mode_Choose                0x08003730   Section        0  bsp_esp8266.o(i.ESP8266_Net_Mode_Choose)
    i.ESP8266_Post                           0x080037b4   Section        0  wifi.o(i.ESP8266_Post)
    i.ESP8266_Rst                            0x0800397c   Section        0  bsp_esp8266.o(i.ESP8266_Rst)
    i.ESP8266_SendString                     0x080039a4   Section        0  bsp_esp8266.o(i.ESP8266_SendString)
    i.ESP8266_USART_Config                   0x08003a34   Section        0  bsp_esp8266.o(i.ESP8266_USART_Config)
    ESP8266_USART_Config                     0x08003a35   Thumb Code   150  bsp_esp8266.o(i.ESP8266_USART_Config)
    i.ESP8266_USART_NVIC_Configuration       0x08003ad4   Section        0  bsp_esp8266.o(i.ESP8266_USART_NVIC_Configuration)
    ESP8266_USART_NVIC_Configuration         0x08003ad5   Thumb Code    34  bsp_esp8266.o(i.ESP8266_USART_NVIC_Configuration)
    i.ESP8266_stop                           0x08003af8   Section        0  bsp_esp8266.o(i.ESP8266_stop)
    i.EXTI3_IRQHandler                       0x08003b4c   Section        0  stm32f10x_it.o(i.EXTI3_IRQHandler)
    i.EXTI_ClearITPendingBit                 0x08003bb0   Section        0  stm32f10x_exti.o(i.EXTI_ClearITPendingBit)
    i.EXTI_GenerateSWInterrupt               0x08003bbc   Section        0  stm32f10x_exti.o(i.EXTI_GenerateSWInterrupt)
    i.EXTI_GetITStatus                       0x08003bcc   Section        0  stm32f10x_exti.o(i.EXTI_GetITStatus)
    i.EXTI_Init                              0x08003bec   Section        0  stm32f10x_exti.o(i.EXTI_Init)
    i.EditMessage                            0x08003c60   Section        0  messageapp.o(i.EditMessage)
    EditMessage                              0x08003c61   Thumb Code   172  messageapp.o(i.EditMessage)
    i.FIFO_GPIO_Config                       0x08003d3c   Section        0  bsp_ov7725.o(i.FIFO_GPIO_Config)
    FIFO_GPIO_Config                         0x08003d3d   Thumb Code   176  bsp_ov7725.o(i.FIFO_GPIO_Config)
    i.FRAMEWIN_AddButton                     0x08003dfc   Section        0  framewin_button.o(i.FRAMEWIN_AddButton)
    i.FRAMEWIN_AddCloseButton                0x08003e74   Section        0  framewin_buttonclose.o(i.FRAMEWIN_AddCloseButton)
    i.FRAMEWIN_Callback                      0x08003e9c   Section        0  framewin.o(i.FRAMEWIN_Callback)
    i.FRAMEWIN_CreateIndirect                0x08004080   Section        0  framewin_createindirect.o(i.FRAMEWIN_CreateIndirect)
    i.FRAMEWIN_CreateUser                    0x080040c0   Section        0  framewin.o(i.FRAMEWIN_CreateUser)
    i.FRAMEWIN_DrawSkinFlex                  0x080041b0   Section        0  framewin_skinflex.o(i.FRAMEWIN_DrawSkinFlex)
    i.FRAMEWIN_GetActive                     0x0800452c   Section        0  framewin_get.o(i.FRAMEWIN_GetActive)
    i.FRAMEWIN_GetBorderSize                 0x0800455a   Section        0  framewin_get.o(i.FRAMEWIN_GetBorderSize)
    i.FRAMEWIN_GetBorderSizeEx               0x0800458c   Section        0  framewin_get.o(i.FRAMEWIN_GetBorderSizeEx)
    i.FRAMEWIN_GetDefaultFont                0x080045c0   Section        0  framewin_default.o(i.FRAMEWIN_GetDefaultFont)
    i.FRAMEWIN_GetTitleHeight                0x080045cc   Section        0  framewin_get.o(i.FRAMEWIN_GetTitleHeight)
    i.FRAMEWIN_OwnerDraw                     0x08004606   Section        0  framewin_skinclassic.o(i.FRAMEWIN_OwnerDraw)
    i.FRAMEWIN_SetActive                     0x080046bc   Section        0  framewin.o(i.FRAMEWIN_SetActive)
    i.FRAMEWIN_SetClientColor                0x080046da   Section        0  framewin_setcolors.o(i.FRAMEWIN_SetClientColor)
    i.FRAMEWIN_SetDefaultSkin                0x08004708   Section        0  framewin_skin.o(i.FRAMEWIN_SetDefaultSkin)
    i.FRAMEWIN_SetFont                       0x08004730   Section        0  framewin_setfont.o(i.FRAMEWIN_SetFont)
    i.FRAMEWIN_SetOwnerDraw                  0x0800479c   Section        0  framewin_setownerdraw.o(i.FRAMEWIN_SetOwnerDraw)
    i.FRAMEWIN_SetText                       0x080047c6   Section        0  framewin.o(i.FRAMEWIN_SetText)
    i.FRAMEWIN_SetTextAlign                  0x0800480c   Section        0  framewin.o(i.FRAMEWIN_SetTextAlign)
    i.FRAMEWIN_SetTextColor                  0x08004840   Section        0  framewin_setcolors.o(i.FRAMEWIN_SetTextColor)
    i.FRAMEWIN_SetTitleHeight                0x08004876   Section        0  framewin_settitleheight.o(i.FRAMEWIN_SetTitleHeight)
    i.FRAMEWIN__CalcPositions                0x080048f2   Section        0  framewin.o(i.FRAMEWIN__CalcPositions)
    i.FRAMEWIN__CalcTitleHeight              0x080049c0   Section        0  framewin.o(i.FRAMEWIN__CalcTitleHeight)
    i.FRAMEWIN__GetBorderSize                0x080049e0   Section        0  framewin.o(i.FRAMEWIN__GetBorderSize)
    i.FRAMEWIN__GetTitleLimits               0x08004a24   Section        0  framewin.o(i.FRAMEWIN__GetTitleLimits)
    i.FRAMEWIN__UpdateButtons                0x08004ab0   Section        0  framewin__updatebuttons.o(i.FRAMEWIN__UpdateButtons)
    i.FRAMEWIN__UpdatePositions              0x08004b92   Section        0  framewin.o(i.FRAMEWIN__UpdatePositions)
    i.FRAMEWIN__cbClient                     0x08004c00   Section        0  framewin.o(i.FRAMEWIN__cbClient)
    FRAMEWIN__cbClient                       0x08004c01   Thumb Code   232  framewin.o(i.FRAMEWIN__cbClient)
    i.FSMC_NORSRAMCmd                        0x08004ce8   Section        0  stm32f10x_fsmc.o(i.FSMC_NORSRAMCmd)
    i.FSMC_NORSRAMInit                       0x08004d0c   Section        0  stm32f10x_fsmc.o(i.FSMC_NORSRAMInit)
    i.FUN_ICON000Clicked                     0x08004dd8   Section        0  phoneapp.o(i.FUN_ICON000Clicked)
    i.FUN_ICON001Clicked                     0x08004fb0   Section        0  messageapp.o(i.FUN_ICON001Clicked)
    i.FUN_ICON100Clicked                     0x0800514c   Section        0  keyapp.o(i.FUN_ICON100Clicked)
    i.FUN_ICON101Clicked                     0x08005224   Section        0  breathingapp.o(i.FUN_ICON101Clicked)
    i.FUN_ICON102Clicked                     0x080052b8   Section        0  adcapp.o(i.FUN_ICON102Clicked)
    i.FUN_ICON103Clicked                     0x08005488   Section        0  eepromapp.o(i.FUN_ICON103Clicked)
    i.FUN_ICON104Clicked                     0x080055cc   Section        0  clockapp.o(i.FUN_ICON104Clicked)
    i.FUN_ICON105Clicked                     0x080056a4   Section        0  usbapp.o(i.FUN_ICON105Clicked)
    i.FUN_ICON106Clicked                     0x08005770   Section        0  wifi.o(i.FUN_ICON106Clicked)
    i.FUN_ICON107Clicked                     0x08005ac8   Section        0  humitureapp.o(i.FUN_ICON107Clicked)
    i.FUN_ICON108Clicked                     0x08005c1c   Section        0  cameraapp.o(i.FUN_ICON108Clicked)
    i.FUN_ICON109Clicked                     0x08005da8   Section        0  calculatorapp.o(i.FUN_ICON109Clicked)
    i.FUN_ICON110Clicked                     0x08005e20   Section        0  userapp.o(i.FUN_ICON110Clicked)
    i.GL_DispChar                            0x08005e90   Section        0  gui_char.o(i.GL_DispChar)
    i.GL_DrawBitmap                          0x08005ed0   Section        0  gui_drawbitmap.o(i.GL_DrawBitmap)
    i.GL_DrawLine                            0x08005f6c   Section        0  gui_drawline.o(i.GL_DrawLine)
    i.GL_DrawLine1Ex                         0x08005f7c   Section        0  gui_drawline.o(i.GL_DrawLine1Ex)
    i.GL_DrawLineEx                          0x08006148   Section        0  gui_drawline.o(i.GL_DrawLineEx)
    i.GL_DrawPoint                           0x08006254   Section        0  gui_drawpoint.o(i.GL_DrawPoint)
    i.GL_FillCircle                          0x08006274   Section        0  gui_circ.o(i.GL_FillCircle)
    i.GL_FillPolygon                         0x08006330   Section        0  gui_fillpolygon.o(i.GL_FillPolygon)
    i.GL_SetDefault                          0x08006510   Section        0  gui_setdefault.o(i.GL_SetDefault)
    i.GPIO_EXTILineConfig                    0x08006550   Section        0  stm32f10x_gpio.o(i.GPIO_EXTILineConfig)
    i.GPIO_Init                              0x08006578   Section        0  stm32f10x_gpio.o(i.GPIO_Init)
    i.GPIO_PinRemapConfig                    0x08006620   Section        0  stm32f10x_gpio.o(i.GPIO_PinRemapConfig)
    i.GPIO_ReadInputDataBit                  0x0800667c   Section        0  stm32f10x_gpio.o(i.GPIO_ReadInputDataBit)
    i.GPIO_ResetBits                         0x0800668a   Section        0  stm32f10x_gpio.o(i.GPIO_ResetBits)
    i.GPIO_SetBits                           0x0800668e   Section        0  stm32f10x_gpio.o(i.GPIO_SetBits)
    i.GRAPH_AttachData                       0x08006692   Section        0  graph.o(i.GRAPH_AttachData)
    i.GRAPH_AttachScale                      0x080066d6   Section        0  graph.o(i.GRAPH_AttachScale)
    i.GRAPH_Callback                         0x0800671a   Section        0  graph.o(i.GRAPH_Callback)
    i.GRAPH_CreateEx                         0x080067a8   Section        0  graph.o(i.GRAPH_CreateEx)
    i.GRAPH_CreateUser                       0x080067c4   Section        0  graph.o(i.GRAPH_CreateUser)
    i.GRAPH_DATA_YT_AddValue                 0x08006848   Section        0  graph_data_yt.o(i.GRAPH_DATA_YT_AddValue)
    i.GRAPH_DATA_YT_Create                   0x08006884   Section        0  graph_data_yt.o(i.GRAPH_DATA_YT_Create)
    i.GRAPH_DATA_YT_SetAlign                 0x08006904   Section        0  graph_data_yt.o(i.GRAPH_DATA_YT_SetAlign)
    i.GRAPH_SCALE_Create                     0x08006938   Section        0  graph_scale.o(i.GRAPH_SCALE_Create)
    i.GRAPH_SCALE_SetFactor                  0x08006990   Section        0  graph_scale.o(i.GRAPH_SCALE_SetFactor)
    i.GRAPH_SCALE_SetTextColor               0x080069cc   Section        0  graph_scale.o(i.GRAPH_SCALE_SetTextColor)
    i.GRAPH_SetBorder                        0x08006a00   Section        0  graph.o(i.GRAPH_SetBorder)
    i.GRAPH_SetGridDistY                     0x08006a42   Section        0  graph.o(i.GRAPH_SetGridDistY)
    i.GRAPH_SetGridFixedX                    0x08006a76   Section        0  graph.o(i.GRAPH_SetGridFixedX)
    i.GRAPH_SetGridVis                       0x08006abe   Section        0  graph.o(i.GRAPH_SetGridVis)
    i.GRAPH_SetUserDraw                      0x08006af6   Section        0  graph.o(i.GRAPH_SetUserDraw)
    i.GRAPH__AddValue                        0x08006b20   Section        0  graph.o(i.GRAPH__AddValue)
    i.GRAPH__InvalidateGraph                 0x08006b84   Section        0  graph.o(i.GRAPH__InvalidateGraph)
    i.GUIDRV_FlexColor_Config                0x08006bec   Section        0  guidrv_flexcolor.o(i.GUIDRV_FlexColor_Config)
    i.GUIDRV_FlexColor_SetFunc               0x08006c2c   Section        0  guidrv_flexcolor.o(i.GUIDRV_FlexColor_SetFunc)
    i.GUIDRV_FlexColor_SetFunc66709          0x08006c60   Section        0  guidrv_flexcolor_func66709.o(i.GUIDRV_FlexColor_SetFunc66709)
    i.GUIDRV_FlexColor_SetMode16bppC0B16     0x08006cc0   Section        0  guidrv_flexcolor_16bpp_c0b16.o(i.GUIDRV_FlexColor_SetMode16bppC0B16)
    i.GUIDRV_FlexColor__GetPixelIndexNoCache 0x08006d18   Section        0  guidrv_flexcolor.o(i.GUIDRV_FlexColor__GetPixelIndexNoCache)
    i.GUIDRV_FlexColor__InitOnce             0x08006dd8   Section        0  guidrv_flexcolor.o(i.GUIDRV_FlexColor__InitOnce)
    i.GUIDRV_FlexColor__SetLog2Phys          0x08006e10   Section        0  guidrv_flexcolor.o(i.GUIDRV_FlexColor__SetLog2Phys)
    i.GUIDRV_FlexColor__SetPixelIndexNoCache 0x08006e48   Section        0  guidrv_flexcolor.o(i.GUIDRV_FlexColor__SetPixelIndexNoCache)
    i.GUIMONO_DispChar                       0x08006ee4   Section        0  gui_charm.o(i.GUIMONO_DispChar)
    i.GUIMONO_GetCharDistX                   0x08007018   Section        0  gui_charm.o(i.GUIMONO_GetCharDistX)
    i.GUIMONO_GetFontInfo                    0x08007030   Section        0  gui_charm.o(i.GUIMONO_GetFontInfo)
    i.GUIMONO_IsInFont                       0x08007036   Section        0  gui_charm.o(i.GUIMONO_IsInFont)
    i.GUIPROP_DispChar                       0x08007070   Section        0  gui_charp.o(i.GUIPROP_DispChar)
    i.GUIPROP_GetCharDistX                   0x08007138   Section        0  gui_charp.o(i.GUIPROP_GetCharDistX)
    i.GUIPROP_GetFontInfo                    0x08007178   Section        0  gui_charp.o(i.GUIPROP_GetFontInfo)
    i.GUIPROP_IsInFont                       0x0800717e   Section        0  gui_charp.o(i.GUIPROP_IsInFont)
    i.GUIPROP__FindChar                      0x0800718e   Section        0  gui_charp.o(i.GUIPROP__FindChar)
    i.GUITASK_CopyContext                    0x080071a4   Section        0  gui_task.o(i.GUITASK_CopyContext)
    i.GUITASK_Init                           0x080071ec   Section        0  gui_task.o(i.GUITASK_Init)
    i.GUI_ALLOC_AllocInit                    0x08007228   Section        0  gui_alloc_allocinit.o(i.GUI_ALLOC_AllocInit)
    i.GUI_ALLOC_AllocNoInit                  0x08007268   Section        0  gui_alloc.o(i.GUI_ALLOC_AllocNoInit)
    i.GUI_ALLOC_AllocZero                    0x08007286   Section        0  gui_alloc_alloczero.o(i.GUI_ALLOC_AllocZero)
    i.GUI_ALLOC_AssignMemory                 0x080072b4   Section        0  gui_alloc.o(i.GUI_ALLOC_AssignMemory)
    i.GUI_ALLOC_Free                         0x080072c4   Section        0  gui_alloc.o(i.GUI_ALLOC_Free)
    i.GUI_ALLOC_FreeFixedBlock               0x08007300   Section        0  gui_alloc.o(i.GUI_ALLOC_FreeFixedBlock)
    i.GUI_ALLOC_FreePtr                      0x08007318   Section        0  gui_alloc.o(i.GUI_ALLOC_FreePtr)
    i.GUI_ALLOC_FreePtrArray                 0x08007334   Section        0  gui_alloc.o(i.GUI_ALLOC_FreePtrArray)
    i.GUI_ALLOC_GetFixedBlock                0x08007350   Section        0  gui_alloc.o(i.GUI_ALLOC_GetFixedBlock)
    i.GUI_ALLOC_GetMaxSize                   0x080073f8   Section        0  gui_alloc.o(i.GUI_ALLOC_GetMaxSize)
    i.GUI_ALLOC_GetSize                      0x08007438   Section        0  gui_alloc.o(i.GUI_ALLOC_GetSize)
    i.GUI_ALLOC_Lock                         0x08007454   Section        0  gui_alloc.o(i.GUI_ALLOC_Lock)
    i.GUI_ALLOC_LockH                        0x08007464   Section        0  gui_alloc.o(i.GUI_ALLOC_LockH)
    i.GUI_ALLOC_Realloc                      0x08007480   Section        0  gui_realloc.o(i.GUI_ALLOC_Realloc)
    i.GUI_ALLOC_RequestSize                  0x080074d8   Section        0  gui_alloc.o(i.GUI_ALLOC_RequestSize)
    i.GUI_ALLOC_SetAvBlockSize               0x0800750c   Section        0  gui_alloc.o(i.GUI_ALLOC_SetAvBlockSize)
    i.GUI_ALLOC_Unlock                       0x08007528   Section        0  gui_alloc.o(i.GUI_ALLOC_Unlock)
    i.GUI_ALLOC_UnlockH                      0x08007538   Section        0  gui_alloc.o(i.GUI_ALLOC_UnlockH)
    i.GUI_ALLOC_h2p                          0x08007568   Section        0  gui_alloc.o(i.GUI_ALLOC_h2p)
    i.GUI_ARRAY_AddItem                      0x08007580   Section        0  gui_array.o(i.GUI_ARRAY_AddItem)
    i.GUI_ARRAY_Create                       0x080075fa   Section        0  gui_array.o(i.GUI_ARRAY_Create)
    i.GUI_ARRAY_Delete                       0x08007600   Section        0  gui_array.o(i.GUI_ARRAY_Delete)
    i.GUI_ARRAY_DeleteItem                   0x08007650   Section        0  gui_array_deleteitem.o(i.GUI_ARRAY_DeleteItem)
    i.GUI_ARRAY_GetNumItems                  0x080076aa   Section        0  gui_array.o(i.GUI_ARRAY_GetNumItems)
    i.GUI_ARRAY_GethItem                     0x080076c2   Section        0  gui_array.o(i.GUI_ARRAY_GethItem)
    i.GUI_ARRAY_GetpItemLocked               0x080076e2   Section        0  gui_array.o(i.GUI_ARRAY_GetpItemLocked)
    i.GUI_ARRAY__GethItem                    0x08007702   Section        0  gui_array.o(i.GUI_ARRAY__GethItem)
    i.GUI_ARRAY__GetpItemLocked              0x08007726   Section        0  gui_array.o(i.GUI_ARRAY__GetpItemLocked)
    i.GUI_AddDecShift                        0x0800773c   Section        0  gui_adddecshift.o(i.GUI_AddDecShift)
    i.GUI_AddHex                             0x080077d4   Section        0  gui_addhex.o(i.GUI_AddHex)
    i.GUI_AddSign                            0x08007804   Section        0  gui_adddecshift.o(i.GUI_AddSign)
    i.GUI_CURSOR_GetStateEx                  0x0800781c   Section        0  gui_curs1.o(i.GUI_CURSOR_GetStateEx)
    i.GUI_CURSOR_SelectEx                    0x0800783c   Section        0  gui_curs1.o(i.GUI_CURSOR_SelectEx)
    i.GUI_CURSOR_SetPositionEx               0x0800790c   Section        0  gui_curs1.o(i.GUI_CURSOR_SetPositionEx)
    i.GUI_CalcColorDist                      0x08007984   Section        0  gui_calccolordist.o(i.GUI_CalcColorDist)
    i.GUI_Clear                              0x080079c8   Section        0  gui_core.o(i.GUI_Clear)
    i.GUI_ClearRect                          0x080079e4   Section        0  gui_core.o(i.GUI_ClearRect)
    i.GUI_ClearRectEx                        0x08007a4c   Section        0  gui_clearrectex.o(i.GUI_ClearRectEx)
    i.GUI_CreateDialogBox                    0x08007a60   Section        0  dialog.o(i.GUI_CreateDialogBox)
    i.GUI_DEVICE_Create                      0x08007b0c   Section        0  gui_device.o(i.GUI_DEVICE_Create)
    i.GUI_DEVICE_CreateAndLink               0x08007b5c   Section        0  gui_device.o(i.GUI_DEVICE_CreateAndLink)
    i.GUI_DEVICE_Delete                      0x08007b84   Section        0  gui_device.o(i.GUI_DEVICE_Delete)
    i.GUI_DEVICE_Link                        0x08007b88   Section        0  gui_device.o(i.GUI_DEVICE_Link)
    i.GUI_DEVICE_LinkDevices                 0x08007c08   Section        0  gui_device.o(i.GUI_DEVICE_LinkDevices)
    i.GUI_DEVICE_Unlink                      0x08007c1a   Section        0  gui_device.o(i.GUI_DEVICE_Unlink)
    i.GUI_DEVICE_UnlinkTaskDevices           0x08007c20   Section        0  gui_device.o(i.GUI_DEVICE_UnlinkTaskDevices)
    i.GUI_DEVICE__GetpDevice                 0x08007c64   Section        0  gui_device.o(i.GUI_DEVICE__GetpDevice)
    i.GUI_DEVICE__GetpDriver                 0x08007c88   Section        0  gui_device.o(i.GUI_DEVICE__GetpDriver)
    i.GUI_DRAW_BITMAP_Create                 0x08007cac   Section        0  gui_draw_bitmap.o(i.GUI_DRAW_BITMAP_Create)
    i.GUI_DRAW_SELF_Create                   0x08007cec   Section        0  gui_draw_self.o(i.GUI_DRAW_SELF_Create)
    i.GUI_DRAW__Draw                         0x08007d28   Section        0  gui_draw.o(i.GUI_DRAW__Draw)
    i.GUI_DRAW__GetXSize                     0x08007d54   Section        0  gui_draw.o(i.GUI_DRAW__GetXSize)
    i.GUI_DRAW__GetYSize                     0x08007d76   Section        0  gui_draw.o(i.GUI_DRAW__GetYSize)
    i.GUI_Delay                              0x08007d98   Section        0  gui_time.o(i.GUI_Delay)
    i.GUI_DispChar                           0x08007e00   Section        0  gui_dispchar.o(i.GUI_DispChar)
    i.GUI_DispCharAt                         0x08007e18   Section        0  gui_dispchar.o(i.GUI_DispCharAt)
    i.GUI_DispChars                          0x08007e40   Section        0  gui_dispchars.o(i.GUI_DispChars)
    i.GUI_DispDecShift                       0x08007e54   Section        0  gui_val.o(i.GUI_DispDecShift)
    i.GUI_DispFloatMin                       0x08007e68   Section        0  gui_valf.o(i.GUI_DispFloatMin)
    i.GUI_DispNextLine                       0x08007e70   Section        0  gui_char.o(i.GUI_DispNextLine)
    i.GUI_DispSDecShift                      0x08007e94   Section        0  gui_val.o(i.GUI_DispSDecShift)
    i.GUI_DispString                         0x08007ec0   Section        0  gui_dispstring.o(i.GUI_DispString)
    i.GUI_DispStringAt                       0x08007fc8   Section        0  gui_dispstringat.o(i.GUI_DispStringAt)
    i.GUI_DispStringHCenterAt                0x08007ff0   Section        0  gui_dispstringhcenter.o(i.GUI_DispStringHCenterAt)
    i.GUI_DispStringInRect                   0x08008024   Section        0  gui_dispstringinrect.o(i.GUI_DispStringInRect)
    i.GUI_DispStringInRectEx                 0x0800802c   Section        0  gui_dispstringinrectex.o(i.GUI_DispStringInRectEx)
    i.GUI_DispStringInRectMax                0x080080b0   Section        0  gui_dispstringinrect.o(i.GUI_DispStringInRectMax)
    i.GUI_DispStringInRectWrap               0x080080fc   Section        0  gui_dispstringinrectwrap.o(i.GUI_DispStringInRectWrap)
    i.GUI_DrawBitmap                         0x0800820c   Section        0  gui_drawbitmap.o(i.GUI_DrawBitmap)
    i.GUI_DrawFocusRect                      0x08008264   Section        0  gui_drawfocusrect.o(i.GUI_DrawFocusRect)
    i.GUI_DrawGradientH                      0x08008310   Section        0  gui_drawgradient.o(i.GUI_DrawGradientH)
    i.GUI_DrawGradientV                      0x08008388   Section        0  gui_drawgradient.o(i.GUI_DrawGradientV)
    i.GUI_DrawGraphEx                        0x08008400   Section        0  gui_drawgraphex.o(i.GUI_DrawGraphEx)
    i.GUI_DrawHLine                          0x08008454   Section        0  gui_drawhline.o(i.GUI_DrawHLine)
    i.GUI_DrawLine                           0x080084ac   Section        0  gui_drawline.o(i.GUI_DrawLine)
    i.GUI_DrawPixel                          0x080084f4   Section        0  gui_drawpixel.o(i.GUI_DrawPixel)
    i.GUI_DrawRect                           0x08008540   Section        0  gui_2dlib.o(i.GUI_DrawRect)
    i.GUI_DrawStreamedBitmap                 0x080085c0   Section        0  gui_stream.o(i.GUI_DrawStreamedBitmap)
    i.GUI_DrawVLine                          0x08008600   Section        0  gui_drawvline.o(i.GUI_DrawVLine)
    i.GUI_EndDialog                          0x08008650   Section        0  dialog.o(i.GUI_EndDialog)
    i.GUI_ErrorOut                           0x08008674   Section        0  gui_errorout.o(i.GUI_ErrorOut)
    i.GUI_ErrorOut1                          0x08008694   Section        0  gui_errorout.o(i.GUI_ErrorOut1)
    i.GUI_Exec                               0x080086d4   Section        0  gui_exec.o(i.GUI_Exec)
    i.GUI_Exec1                              0x080086e8   Section        0  gui_exec.o(i.GUI_Exec1)
    i.GUI_ExecCreatedDialog                  0x08008708   Section        0  dialog.o(i.GUI_ExecCreatedDialog)
    i.GUI_FillCircle                         0x0800872c   Section        0  gui_circ.o(i.GUI_FillCircle)
    i.GUI_FillRect                           0x0800876c   Section        0  gui_fillrect.o(i.GUI_FillRect)
    i.GUI_FillRectEx                         0x080087c4   Section        0  gui_fillrectex.o(i.GUI_FillRectEx)
    i.GUI_GetBitmapPixelIndex                0x080087d8   Section        0  gui_getbitmappixelindex.o(i.GUI_GetBitmapPixelIndex)
    i.GUI_GetBitmapPixelIndexEx              0x080087ee   Section        0  gui_getbitmappixelindex.o(i.GUI_GetBitmapPixelIndexEx)
    i.GUI_GetBitsPerPixelEx                  0x08008878   Section        0  lcd_getex.o(i.GUI_GetBitsPerPixelEx)
    i.GUI_GetBkColor                         0x0800888c   Section        0  gui_getcolor.o(i.GUI_GetBkColor)
    i.GUI_GetCharDistX                       0x080088a4   Section        0  gui_char.o(i.GUI_GetCharDistX)
    i.GUI_GetCharDistXEx                     0x080088c8   Section        0  gui_char.o(i.GUI_GetCharDistXEx)
    i.GUI_GetClientRect                      0x080088f0   Section        0  gui_getclientrect.o(i.GUI_GetClientRect)
    i.GUI_GetColor                           0x080088fa   Section        0  gui_getcolor.o(i.GUI_GetColor)
    i.GUI_GetCursorLayer                     0x08008914   Section        0  gui_selectlayer.o(i.GUI_GetCursorLayer)
    i.GUI_GetDialogStatusPtr                 0x08008928   Section        0  dialog.o(i.GUI_GetDialogStatusPtr)
    i.GUI_GetFontDistY                       0x08008944   Section        0  gui_char.o(i.GUI_GetFontDistY)
    i.GUI_GetFontInfo                        0x08008960   Section        0  gui_getfontinfo.o(i.GUI_GetFontInfo)
    i.GUI_GetFontSizeY                       0x08008998   Section        0  gui_getfontsizey.o(i.GUI_GetFontSizeY)
    i.GUI_GetLayerPosEx                      0x080089ac   Section        0  gui_selectlayer.o(i.GUI_GetLayerPosEx)
    i.GUI_GetLineStyle                       0x080089d4   Section        0  gui_getlinestyle.o(i.GUI_GetLineStyle)
    i.GUI_GetOrg                             0x080089ec   Section        0  gui_getorg.o(i.GUI_GetOrg)
    i.GUI_GetStringDistX                     0x08008a06   Section        0  gui_getstringdistx.o(i.GUI_GetStringDistX)
    i.GUI_GetTextExtend                      0x08008a1c   Section        0  gui_gettextextend.o(i.GUI_GetTextExtend)
    i.GUI_GetTime                            0x08008a9c   Section        0  gui_time.o(i.GUI_GetTime)
    i.GUI_GetYAdjust                         0x08008aa0   Section        0  gui_char.o(i.GUI_GetYAdjust)
    i.GUI_GetYDistOfFont                     0x08008adc   Section        0  gui_getysizeoffont.o(i.GUI_GetYDistOfFont)
    i.GUI_GetYSizeOfFont                     0x08008ae4   Section        0  gui_getysizeoffont.o(i.GUI_GetYSizeOfFont)
    i.GUI_GetpfColor2IndexEx                 0x08008aec   Section        0  lcd_getex.o(i.GUI_GetpfColor2IndexEx)
    i.GUI_GetpfIndex2ColorEx                 0x08008afc   Section        0  lcd_getex.o(i.GUI_GetpfIndex2ColorEx)
    i.GUI_GotoXY                             0x08008b0c   Section        0  gui_goto.o(i.GUI_GotoXY)
    i.GUI_Init                               0x08008b30   Section        0  gui_core.o(i.GUI_Init)
    i.GUI_InvertRect                         0x08008b9c   Section        0  gui_invertrect.o(i.GUI_InvertRect)
    i.GUI_Lock                               0x08008c04   Section        0  gui_task.o(i.GUI_Lock)
    i.GUI_Long2Len                           0x08008c8c   Section        0  gui_adddecshift.o(i.GUI_Long2Len)
    i.GUI_MEMDEV_Clear                       0x08008cb8   Section        0  guidev_clear.o(i.GUI_MEMDEV_Clear)
    i.GUI_MEMDEV_CopyToLCD                   0x08008cfc   Section        0  guidev.o(i.GUI_MEMDEV_CopyToLCD)
    i.GUI_MEMDEV_CopyToLCDAt                 0x08008d08   Section        0  guidev.o(i.GUI_MEMDEV_CopyToLCDAt)
    i.GUI_MEMDEV_CreateEx                    0x08008db0   Section        0  guidev.o(i.GUI_MEMDEV_CreateEx)
    i.GUI_MEMDEV_Delete                      0x08008e30   Section        0  guidev.o(i.GUI_MEMDEV_Delete)
    i.GUI_MEMDEV_Draw                        0x08008e78   Section        0  guidev_banding.o(i.GUI_MEMDEV_Draw)
    i.GUI_MEMDEV_GetBitsPerPixel             0x08008f9c   Section        0  guidev.o(i.GUI_MEMDEV_GetBitsPerPixel)
    i.GUI_MEMDEV_GetDataPtr                  0x08008fce   Section        0  guidev_getdataptr.o(i.GUI_MEMDEV_GetDataPtr)
    i.GUI_MEMDEV_GetXPos                     0x08008ff0   Section        0  guidev_getpos.o(i.GUI_MEMDEV_GetXPos)
    i.GUI_MEMDEV_GetXSize                    0x08009024   Section        0  guidev_getxsize.o(i.GUI_MEMDEV_GetXSize)
    i.GUI_MEMDEV_GetYPos                     0x08009058   Section        0  guidev_getpos.o(i.GUI_MEMDEV_GetYPos)
    i.GUI_MEMDEV_GetYSize                    0x0800908c   Section        0  guidev_getysize.o(i.GUI_MEMDEV_GetYSize)
    i.GUI_MEMDEV_Paint1Static                0x080090c0   Section        0  guidev_staticdevices.o(i.GUI_MEMDEV_Paint1Static)
    i.GUI_MEMDEV_ReduceYSize                 0x080090d4   Section        0  guidev_reduceysize.o(i.GUI_MEMDEV_ReduceYSize)
    i.GUI_MEMDEV_Select                      0x0800910c   Section        0  guidev.o(i.GUI_MEMDEV_Select)
    i.GUI_MEMDEV_SetOrg                      0x08009168   Section        0  guidev_setorg.o(i.GUI_MEMDEV_SetOrg)
    i.GUI_MEMDEV_Write                       0x080091cc   Section        0  guidev_write.o(i.GUI_MEMDEV_Write)
    i.GUI_MEMDEV_WriteAt                     0x080091d8   Section        0  guidev_write.o(i.GUI_MEMDEV_WriteAt)
    i.GUI_MEMDEV__CreateFixed                0x08009240   Section        0  guidev.o(i.GUI_MEMDEV__CreateFixed)
    i.GUI_MEMDEV__SetAlphaCallback           0x0800932c   Section        0  guidev_banding.o(i.GUI_MEMDEV__SetAlphaCallback)
    i.GUI_MEMDEV__WriteToActiveAlpha         0x08009338   Section        0  guidev_writetoactivealpha.o(i.GUI_MEMDEV__WriteToActiveAlpha)
    i.GUI_MEMDEV__WriteToActiveAt            0x08009450   Section        0  guidev.o(i.GUI_MEMDEV__WriteToActiveAt)
    i.GUI_MEMDEV__WriteToActiveOpaque        0x08009480   Section        0  guidev_writetoactiveopaque.o(i.GUI_MEMDEV__WriteToActiveOpaque)
    i.GUI_MergeRect                          0x080094bc   Section        0  gui_mergerect.o(i.GUI_MergeRect)
    i.GUI_MessageBox                         0x08009514   Section        0  messagebox.o(i.GUI_MessageBox)
    i.GUI_MoveRect                           0x08009522   Section        0  gui_moverect.o(i.GUI_MoveRect)
    i.GUI_PID_GetState                       0x08009540   Section        0  gui_pid.o(i.GUI_PID_GetState)
    i.GUI_PID_IsEmpty                        0x0800958c   Section        0  gui_pid.o(i.GUI_PID_IsEmpty)
    i.GUI_PID_StoreState                     0x080095a4   Section        0  gui_pid.o(i.GUI_PID_StoreState)
    i.GUI_PollKeyMsg                         0x080095c0   Section        0  gui_onkey.o(i.GUI_PollKeyMsg)
    i.GUI_ReadRectEx                         0x080095f4   Section        0  lcd_readrect.o(i.GUI_ReadRectEx)
    i.GUI_RectsIntersect                     0x08009654   Section        0  gui_rectsintersect.o(i.GUI_RectsIntersect)
    i.GUI_RestoreContext                     0x0800968c   Section        0  gui_savecontext.o(i.GUI_RestoreContext)
    i.GUI_SPRITE_Delete                      0x0800969c   Section        0  gui_sprite.o(i.GUI_SPRITE_Delete)
    i.GUI_SPRITE_SetPosition                 0x080096e6   Section        0  gui_sprite.o(i.GUI_SPRITE_SetPosition)
    i.GUI_SPRITE_Show                        0x08009708   Section        0  gui_sprite.o(i.GUI_SPRITE_Show)
    i.GUI_SPRITE__CreateEx                   0x08009750   Section        0  gui_sprite.o(i.GUI_SPRITE__CreateEx)
    i.GUI_SaveContext_W                      0x08009804   Section        0  gui_savecontext.o(i.GUI_SaveContext_W)
    i.GUI_SelectLCD                          0x08009814   Section        0  gui_selectlcd.o(i.GUI_SelectLCD)
    i.GUI_SelectLayer                        0x08009830   Section        0  gui_selectlayer.o(i.GUI_SelectLayer)
    i.GUI_SetAlpha                           0x08009860   Section        0  gui_setalpha.o(i.GUI_SetAlpha)
    i.GUI_SetBkColor                         0x080098d8   Section        0  gui_setcolor.o(i.GUI_SetBkColor)
    i.GUI_SetClipRect                        0x080098ee   Section        0  gui_setcliprect.o(i.GUI_SetClipRect)
    i.GUI_SetColor                           0x08009906   Section        0  gui_setcolor.o(i.GUI_SetColor)
    i.GUI_SetDefaultFont                     0x0800991c   Section        0  gui_core.o(i.GUI_SetDefaultFont)
    i.GUI_SetDialogStatusPtr                 0x08009928   Section        0  dialog.o(i.GUI_SetDialogStatusPtr)
    i.GUI_SetDrawMode                        0x0800993e   Section        0  gui_setdrawmode.o(i.GUI_SetDrawMode)
    i.GUI_SetFont                            0x08009958   Section        0  gui_setfont.o(i.GUI_SetFont)
    i.GUI_SetLayerPosEx                      0x08009978   Section        0  gui_selectlayer.o(i.GUI_SetLayerPosEx)
    i.GUI_SetLayerSizeEx                     0x08009998   Section        0  gui_selectlayer.o(i.GUI_SetLayerSizeEx)
    i.GUI_SetLayerVisEx                      0x080099b8   Section        0  gui_selectlayer.o(i.GUI_SetLayerVisEx)
    i.GUI_SetLineStyle                       0x080099d4   Section        0  gui_setlinestyle.o(i.GUI_SetLineStyle)
    i.GUI_SetOrg                             0x080099f0   Section        0  gui_setorg.o(i.GUI_SetOrg)
    i.GUI_SetPenSize                         0x08009a30   Section        0  gui_pen.o(i.GUI_SetPenSize)
    i.GUI_SetTextAlign                       0x08009a4c   Section        0  gui_settextalign.o(i.GUI_SetTextAlign)
    i.GUI_SetTextMode                        0x08009a6c   Section        0  gui_settextmode.o(i.GUI_SetTextMode)
    i.GUI_SignalEvent                        0x08009a8c   Section        0  gui_waitevent.o(i.GUI_SignalEvent)
    i.GUI_StoreKey                           0x08009a9c   Section        0  gui_onkey.o(i.GUI_StoreKey)
    i.GUI_TIMER_Create                       0x08009aac   Section        0  gui_timer.o(i.GUI_TIMER_Create)
    i.GUI_TIMER_Delete                       0x08009b3c   Section        0  gui_timer.o(i.GUI_TIMER_Delete)
    i.GUI_TIMER_Exec                         0x08009b64   Section        0  gui_timer.o(i.GUI_TIMER_Exec)
    i.GUI_TIMER_GetFlag                      0x08009bd8   Section        0  gui_timer.o(i.GUI_TIMER_GetFlag)
    i.GUI_TIMER_Restart                      0x08009c0a   Section        0  gui_timer.o(i.GUI_TIMER_Restart)
    i.GUI_TIMER_SetPeriod                    0x08009c42   Section        0  gui_timer.o(i.GUI_TIMER_SetPeriod)
    i.GUI_TIMER__GetFirstTimer               0x08009c64   Section        0  gui_timer.o(i.GUI_TIMER__GetFirstTimer)
    i.GUI_TIMER__GetNextTimerLin             0x08009c8c   Section        0  gui_timer.o(i.GUI_TIMER__GetNextTimerLin)
    i.GUI_TIMER__GetPeriod                   0x08009cc4   Section        0  gui_timer.o(i.GUI_TIMER__GetPeriod)
    i.GUI_TIMER__IsActive                    0x08009cf8   Section        0  gui_timer.o(i.GUI_TIMER__IsActive)
    i.GUI_TOUCH_Calibrate                    0x08009d14   Section        0  gui_touch_driveranalog.o(i.GUI_TOUCH_Calibrate)
    i.GUI_TOUCH_Exec                         0x08009dc4   Section        0  gui_touch_driveranalog.o(i.GUI_TOUCH_Exec)
    i.GUI_TOUCH_GetState                     0x08009f20   Section        0  gui_touch.o(i.GUI_TOUCH_GetState)
    i.GUI_TOUCH_GetxPhys                     0x08009f38   Section        0  gui_touch_driveranalog.o(i.GUI_TOUCH_GetxPhys)
    i.GUI_TOUCH_GetyPhys                     0x08009f44   Section        0  gui_touch_driveranalog.o(i.GUI_TOUCH_GetyPhys)
    i.GUI_TOUCH_SetOrientation               0x08009f50   Section        0  gui_touch_driveranalog.o(i.GUI_TOUCH_SetOrientation)
    i.GUI_TOUCH_StoreState                   0x08009f5c   Section        0  gui_touch_storestate.o(i.GUI_TOUCH_StoreState)
    i.GUI_TOUCH_StoreStateEx                 0x08009f80   Section        0  gui_touch.o(i.GUI_TOUCH_StoreStateEx)
    i.GUI_TOUCH_StoreUnstable                0x08009fa8   Section        0  gui_touch_storeunstable.o(i.GUI_TOUCH_StoreUnstable)
    i.GUI_TOUCH_X_ActivateX                  0x08009fd8   Section        0  gui_x_touch_analog.o(i.GUI_TOUCH_X_ActivateX)
    i.GUI_TOUCH_X_ActivateY                  0x08009fda   Section        0  gui_x_touch_analog.o(i.GUI_TOUCH_X_ActivateY)
    i.GUI_TOUCH_X_MeasureX                   0x08009fdc   Section        0  gui_x_touch_analog.o(i.GUI_TOUCH_X_MeasureX)
    i.GUI_TOUCH_X_MeasureY                   0x08009fe2   Section        0  gui_x_touch_analog.o(i.GUI_TOUCH_X_MeasureY)
    i.GUI_UC_ConvertUC2UTF8                  0x08009fe8   Section        0  gui_uc_convertuc2utf8.o(i.GUI_UC_ConvertUC2UTF8)
    i.GUI_UC_ConvertUTF82UC                  0x0800a01e   Section        0  gui_uc_convertutf82uc.o(i.GUI_UC_ConvertUTF82UC)
    i.GUI_UC_Encode                          0x0800a060   Section        0  gui_uc.o(i.GUI_UC_Encode)
    i.GUI_UC_GetCharCode                     0x0800a084   Section        0  gui_uc.o(i.GUI_UC_GetCharCode)
    i.GUI_UC_GetCharSize                     0x0800a0a4   Section        0  gui_uc.o(i.GUI_UC_GetCharSize)
    i.GUI_UC_SetEncodeUTF8                   0x0800a0c4   Section        0  gui_uc_encodeutf8.o(i.GUI_UC_SetEncodeUTF8)
    i.GUI_UC__CalcSizeOfChar                 0x0800a0e0   Section        0  gui_uc.o(i.GUI_UC__CalcSizeOfChar)
    i.GUI_UC__GetCharCodeInc                 0x0800a0ec   Section        0  gui_uc.o(i.GUI_UC__GetCharCodeInc)
    i.GUI_UC__NumBytes2NumChars              0x0800a118   Section        0  gui_uc.o(i.GUI_UC__NumBytes2NumChars)
    i.GUI_UC__NumChars2NumBytes              0x0800a144   Section        0  gui_uc.o(i.GUI_UC__NumChars2NumBytes)
    i.GUI_USAGE_AddRect                      0x0800a16c   Section        0  guidev_usage.o(i.GUI_USAGE_AddRect)
    i.GUI_USAGE_BM_AddHLine                  0x0800a194   Section        0  guidev_usagebm.o(i.GUI_USAGE_BM_AddHLine)
    GUI_USAGE_BM_AddHLine                    0x0800a195   Thumb Code   116  guidev_usagebm.o(i.GUI_USAGE_BM_AddHLine)
    i.GUI_USAGE_BM_AddPixel                  0x0800a208   Section        0  guidev_usagebm.o(i.GUI_USAGE_BM_AddPixel)
    GUI_USAGE_BM_AddPixel                    0x0800a209   Thumb Code    44  guidev_usagebm.o(i.GUI_USAGE_BM_AddPixel)
    i.GUI_USAGE_BM_Clear                     0x0800a234   Section        0  guidev_usagebm.o(i.GUI_USAGE_BM_Clear)
    GUI_USAGE_BM_Clear                       0x0800a235   Thumb Code    14  guidev_usagebm.o(i.GUI_USAGE_BM_Clear)
    i.GUI_USAGE_BM_Create                    0x0800a244   Section        0  guidev_usagebm.o(i.GUI_USAGE_BM_Create)
    i.GUI_USAGE_BM_GetNextDirty              0x0800a2a0   Section        0  guidev_usagebm.o(i.GUI_USAGE_BM_GetNextDirty)
    GUI_USAGE_BM_GetNextDirty                0x0800a2a1   Thumb Code   190  guidev_usagebm.o(i.GUI_USAGE_BM_GetNextDirty)
    i.GUI_USAGE_DecUseCnt                    0x0800a35e   Section        0  guidev_usage.o(i.GUI_USAGE_DecUseCnt)
    i.GUI_Unlock                             0x0800a38c   Section        0  gui_task.o(i.GUI_Unlock)
    i.GUI_WaitEvent                          0x0800a3a0   Section        0  gui_waitevent.o(i.GUI_WaitEvent)
    i.GUI_WrapGetNumLines                    0x0800a400   Section        0  gui_dispstringinrectwrap.o(i.GUI_WrapGetNumLines)
    i.GUI_XBF_CreateFont                     0x0800a42c   Section        0  gui_xbf.o(i.GUI_XBF_CreateFont)
    i.GUI_XBF__GetCharDistX                  0x0800a4cc   Section        0  gui_xbf.o(i.GUI_XBF__GetCharDistX)
    i.GUI_XBF__GetFontInfo                   0x0800a53c   Section        0  gui_xbf.o(i.GUI_XBF__GetFontInfo)
    i.GUI_XBF__GetOff                        0x0800a550   Section        0  gui_xbf.o(i.GUI_XBF__GetOff)
    i.GUI_XBF__GetOffAndSize                 0x0800a586   Section        0  gui_xbf.o(i.GUI_XBF__GetOffAndSize)
    i.GUI_XBF__IsInFont                      0x0800a5c2   Section        0  gui_xbf.o(i.GUI_XBF__IsInFont)
    i.GUI_X_Config                           0x0800a5e8   Section        0  guiconf.o(i.GUI_X_Config)
    i.GUI_X_Delay                            0x0800a60c   Section        0  gui_x_ucos.o(i.GUI_X_Delay)
    i.GUI_X_ErrorOut                         0x0800a618   Section        0  gui_x_ucos.o(i.GUI_X_ErrorOut)
    i.GUI_X_ExecIdle                         0x0800a61a   Section        0  gui_x_ucos.o(i.GUI_X_ExecIdle)
    i.GUI_X_GetTaskId                        0x0800a620   Section        0  gui_x_ucos.o(i.GUI_X_GetTaskId)
    i.GUI_X_GetTime                          0x0800a630   Section        0  gui_x_ucos.o(i.GUI_X_GetTime)
    i.GUI_X_Init                             0x0800a63c   Section        0  gui_x_ucos.o(i.GUI_X_Init)
    i.GUI_X_InitOS                           0x0800a658   Section        0  gui_x_ucos.o(i.GUI_X_InitOS)
    i.GUI_X_Lock                             0x0800a690   Section        0  gui_x_ucos.o(i.GUI_X_Lock)
    i.GUI_X_Unlock                           0x0800a6a8   Section        0  gui_x_ucos.o(i.GUI_X_Unlock)
    i.GUI__AddSpaceHex                       0x0800a6bc   Section        0  gui__addspacehex.o(i.GUI__AddSpaceHex)
    i.GUI__AllocAlphaBuffer                  0x0800a6d6   Section        0  gui__alpha.o(i.GUI__AllocAlphaBuffer)
    i.GUI__AlphaSuppressMixing               0x0800a6ec   Section        0  gui_setalpha.o(i.GUI__AlphaSuppressMixing)
    i.GUI__CalcTextRect                      0x0800a710   Section        0  gui__calctextrect.o(i.GUI__CalcTextRect)
    i.GUI__CompactPixelIndices               0x0800a7ae   Section        0  gui__compactpixelindices.o(i.GUI__CompactPixelIndices)
    i.GUI__CompactPixelIndicesEx             0x0800a8d6   Section        0  gui__compactpixelindices.o(i.GUI__CompactPixelIndicesEx)
    i.GUI__Config                            0x0800aa4c   Section        0  gui_core.o(i.GUI__Config)
    i.GUI__CreateBitmapFromStream            0x0800aa80   Section        0  gui_stream.o(i.GUI__CreateBitmapFromStream)
    i.GUI__DispLine                          0x0800aabc   Section        0  gui_charline.o(i.GUI__DispLine)
    i.GUI__DispStringInRect                  0x0800ab6c   Section        0  gui_dispstringinrect.o(i.GUI__DispStringInRect)
    i.GUI__DivideRound32                     0x0800acb0   Section        0  gui__divideround32.o(i.GUI__DivideRound32)
    i.GUI__DoAlphaBlending                   0x0800accc   Section        0  gui__alpha.o(i.GUI__DoAlphaBlending)
    i.GUI__DrawTwinArc2                      0x0800ae88   Section        0  gui__drawtwinarc.o(i.GUI__DrawTwinArc2)
    i.GUI__DrawTwinArc4                      0x0800aefc   Section        0  gui__drawtwinarc.o(i.GUI__DrawTwinArc4)
    i.GUI__ExpandPixelIndices                0x0800af68   Section        0  gui__expandpixelindices.o(i.GUI__ExpandPixelIndices)
    i.GUI__ExpandPixelIndicesEx              0x0800b044   Section        0  gui__expandpixelindices.o(i.GUI__ExpandPixelIndicesEx)
    i.GUI__FillTrippleArc                    0x0800b184   Section        0  gui__drawtwinarc.o(i.GUI__FillTrippleArc)
    i.GUI__GetAlphaBuffer                    0x0800b1f8   Section        0  gui__alpha.o(i.GUI__GetAlphaBuffer)
    i.GUI__GetCursorCharacter                0x0800b288   Section        0  gui__getcursorpos.o(i.GUI__GetCursorCharacter)
    i.GUI__GetCursorPosChar                  0x0800b298   Section        0  gui__getcursorpos.o(i.GUI__GetCursorPosChar)
    i.GUI__GetCursorPosX                     0x0800b2a8   Section        0  gui__getcursorpos.o(i.GUI__GetCursorPosX)
    i.GUI__GetFontSizeY                      0x0800b2b8   Section        0  gui__getfontsizey.o(i.GUI__GetFontSizeY)
    i.GUI__GetLineDistX                      0x0800b2cc   Section        0  gui_charline.o(i.GUI__GetLineDistX)
    i.GUI__GetLineNumChars                   0x0800b320   Section        0  gui_charline.o(i.GUI__GetLineNumChars)
    i.GUI__GetNumChars                       0x0800b358   Section        0  gui__getnumchars.o(i.GUI__GetNumChars)
    i.GUI__GetOrg                            0x0800b374   Section        0  gui_getorg.o(i.GUI__GetOrg)
    i.GUI__GetOverlap                        0x0800b390   Section        0  gui_charline.o(i.GUI__GetOverlap)
    i.GUI__HandleEOLine                      0x0800b3a8   Section        0  gui__handleeoline.o(i.GUI__HandleEOLine)
    i.GUI__IntersectRect                     0x0800b3c0   Section        0  gui__intersectrect.o(i.GUI__IntersectRect)
    i.GUI__IntersectRects                    0x0800b3fa   Section        0  gui__intersectrects.o(i.GUI__IntersectRects)
    i.GUI__ManageCache                       0x0800b44c   Section        0  gui__managecache.o(i.GUI__ManageCache)
    i.GUI__ManageCacheEx                     0x0800b45c   Section        0  gui__managecache.o(i.GUI__ManageCacheEx)
    i.GUI__MixColors                         0x0800b508   Section        0  gui__alpha.o(i.GUI__MixColors)
    i.GUI__MixColorsBulk                     0x0800b568   Section        0  gui__alpha.o(i.GUI__MixColorsBulk)
    i.GUI__Read16                            0x0800b5b6   Section        0  gui__read.o(i.GUI__Read16)
    i.GUI__Read32                            0x0800b5c8   Section        0  gui__read.o(i.GUI__Read32)
    i.GUI__ReadHeaderFromStream              0x0800b5e6   Section        0  gui_stream.o(i.GUI__ReadHeaderFromStream)
    i.GUI__ReduceRect                        0x0800b62c   Section        0  gui__reducerect.o(i.GUI__ReduceRect)
    i.GUI__RegisterExit                      0x0800b648   Section        0  gui_core.o(i.GUI__RegisterExit)
    i.GUI__SetText                           0x0800b658   Section        0  gui__settext.o(i.GUI__SetText)
    i.GUI__WrapGetNumBytesToNextLine         0x0800b6c4   Section        0  gui__wrap.o(i.GUI__WrapGetNumBytesToNextLine)
    i.GUI__WrapGetNumCharsDisp               0x0800b6d8   Section        0  gui__wrap.o(i.GUI__WrapGetNumCharsDisp)
    i.GUI__WrapGetNumCharsToNextLine         0x0800b6de   Section        0  gui__wrap.o(i.GUI__WrapGetNumCharsToNextLine)
    i.GUI__memset                            0x0800b73c   Section        0  gui__memset.o(i.GUI__memset)
    i.GUI__memset16                          0x0800b788   Section        0  gui__memset16.o(i.GUI__memset16)
    i.GUI__sqrt32                            0x0800b7c2   Section        0  gui__sqrt32.o(i.GUI__sqrt32)
    i.GUI__strcmp                            0x0800b7dc   Section        0  gui__strcmp.o(i.GUI__strcmp)
    i.GUI__strcmp_hp                         0x0800b800   Section        0  gui__strcmp.o(i.GUI__strcmp_hp)
    i.GUI__strlen                            0x0800b820   Section        0  gui__strlen.o(i.GUI__strlen)
    i.GUI_cos                                0x0800b834   Section        0  gui_drawline.o(i.GUI_cos)
    i.GUI_sin                                0x0800b83c   Section        0  gui_drawline.o(i.GUI_sin)
    i.GetEPRxAddr                            0x0800b890   Section        0  usb_regs.o(i.GetEPRxAddr)
    i.GetEPRxCount                           0x0800b8b0   Section        0  usb_regs.o(i.GetEPRxCount)
    i.GetEPTxAddr                            0x0800b8d0   Section        0  usb_regs.o(i.GetEPTxAddr)
    i.GetPinStateOfKey1                      0x0800b8ec   Section        0  key.o(i.GetPinStateOfKey1)
    i.GetPinStateOfKey2                      0x0800b908   Section        0  key.o(i.GetPinStateOfKey2)
    i.Get_Max_Lun                            0x0800b924   Section        0  usb_prop.o(i.Get_Max_Lun)
    i.Get_SerialNum                          0x0800b940   Section        0  hw_config.o(i.Get_SerialNum)
    i.GregorianDay                           0x0800b978   Section        0  bsp_date.o(i.GregorianDay)
    i.HEADER_AddItem                         0x0800b9f4   Section        0  header.o(i.HEADER_AddItem)
    i.HEADER_Callback                        0x0800bab4   Section        0  header.o(i.HEADER_Callback)
    i.HEADER_CreateEx                        0x0800bbe6   Section        0  header.o(i.HEADER_CreateEx)
    i.HEADER_CreateUser                      0x0800bc04   Section        0  header.o(i.HEADER_CreateUser)
    i.HEADER_DrawSkinFlex                    0x0800bce4   Section        0  header_skinflex.o(i.HEADER_DrawSkinFlex)
    i.HEADER_GetHeight                       0x0800bd22   Section        0  header.o(i.HEADER_GetHeight)
    i.HEADER_GetItemWidth                    0x0800bd54   Section        0  header.o(i.HEADER_GetItemWidth)
    i.HEADER_GetNumItems                     0x0800bd98   Section        0  header.o(i.HEADER_GetNumItems)
    i.HEADER_GetSel                          0x0800bdc4   Section        0  header_getsel.o(i.HEADER_GetSel)
    i.HEADER_SetDefaultSkin                  0x0800bdec   Section        0  header_skin.o(i.HEADER_SetDefaultSkin)
    i.HEADER_SetHeight                       0x0800be08   Section        0  header.o(i.HEADER_SetHeight)
    i.HEADER_SetItemWidth                    0x0800be36   Section        0  header.o(i.HEADER_SetItemWidth)
    i.HEADER_SetScrollPos                    0x0800beae   Section        0  header.o(i.HEADER_SetScrollPos)
    i.HardFault_Handler                      0x0800beec   Section        0  stm32f10x_it.o(i.HardFault_Handler)
    i.ICONVIEW_AddBitmapItem                 0x0800bf04   Section        0  iconview.o(i.ICONVIEW_AddBitmapItem)
    i.ICONVIEW_Callback                      0x0800bf94   Section        0  iconview.o(i.ICONVIEW_Callback)
    i.ICONVIEW_CreateEx                      0x0800c096   Section        0  iconview.o(i.ICONVIEW_CreateEx)
    i.ICONVIEW_CreateUser                    0x0800c0c0   Section        0  iconview.o(i.ICONVIEW_CreateUser)
    i.ICONVIEW_GetSel                        0x0800c15c   Section        0  iconview.o(i.ICONVIEW_GetSel)
    i.ICONVIEW_SetBkColor                    0x0800c184   Section        0  iconview.o(i.ICONVIEW_SetBkColor)
    i.ICONVIEW_SetFont                       0x0800c1bc   Section        0  iconview.o(i.ICONVIEW_SetFont)
    i.ICONVIEW_SetIconAlign                  0x0800c1ea   Section        0  iconview.o(i.ICONVIEW_SetIconAlign)
    i.ICONVIEW_SetSel                        0x0800c218   Section        0  iconview.o(i.ICONVIEW_SetSel)
    i.ICONVIEW_SetSpace                      0x0800c236   Section        0  iconview.o(i.ICONVIEW_SetSpace)
    i.ICONVIEW_SetTextColor                  0x0800c278   Section        0  iconview.o(i.ICONVIEW_SetTextColor)
    i.ILI9341_Delay                          0x0800c2b0   Section        0  bsp_ili9341_lcd.o(i.ILI9341_Delay)
    ILI9341_Delay                            0x0800c2b1   Thumb Code    18  bsp_ili9341_lcd.o(i.ILI9341_Delay)
    i.ILI9341_FSMC_Config                    0x0800c2c2   Section        0  bsp_ili9341_lcd.o(i.ILI9341_FSMC_Config)
    ILI9341_FSMC_Config                      0x0800c2c3   Thumb Code    90  bsp_ili9341_lcd.o(i.ILI9341_FSMC_Config)
    i.ILI9341_GPIO_Config                    0x0800c31c   Section        0  bsp_ili9341_lcd.o(i.ILI9341_GPIO_Config)
    ILI9341_GPIO_Config                      0x0800c31d   Thumb Code   198  bsp_ili9341_lcd.o(i.ILI9341_GPIO_Config)
    i.ILI9341_GramScan                       0x0800c3ec   Section        0  bsp_ili9341_lcd.o(i.ILI9341_GramScan)
    i.ILI9341_Init                           0x0800c438   Section        0  bsp_ili9341_lcd.o(i.ILI9341_Init)
    i.ILI9341_REG_Config                     0x0800c450   Section        0  bsp_ili9341_lcd.o(i.ILI9341_REG_Config)
    ILI9341_REG_Config                       0x0800c451   Thumb Code   368  bsp_ili9341_lcd.o(i.ILI9341_REG_Config)
    i.ILI9341_Rst                            0x0800c5c8   Section        0  bsp_ili9341_lcd.o(i.ILI9341_Rst)
    ILI9341_Rst                              0x0800c5c9   Thumb Code    38  bsp_ili9341_lcd.o(i.ILI9341_Rst)
    i.In0_Process                            0x0800c5f8   Section        0  usb_core.o(i.In0_Process)
    i.IntToUnicode                           0x0800c658   Section        0  hw_config.o(i.IntToUnicode)
    IntToUnicode                             0x0800c659   Thumb Code    58  hw_config.o(i.IntToUnicode)
    i.IsASSIC                                0x0800c692   Section        0  sim900a.o(i.IsASSIC)
    i.IsReceiveMS                            0x0800c6a8   Section        0  sim900a.o(i.IsReceiveMS)
    i.IsRing                                 0x0800c72c   Section        0  sim900a.o(i.IsRing)
    i.Key1_GPIO_Config                       0x0800c788   Section        0  key.o(i.Key1_GPIO_Config)
    i.Key2_GPIO_Config                       0x0800c7b4   Section        0  key.o(i.Key2_GPIO_Config)
    i.KeyCreate                              0x0800c7e0   Section        0  key.o(i.KeyCreate)
    i.Key_AccessTimes                        0x0800c7f0   Section        0  key.o(i.Key_AccessTimes)
    i.Key_RefreshState                       0x0800c7fc   Section        0  key.o(i.Key_RefreshState)
    i.LCD_AA_MixColors                       0x0800c880   Section        0  lcd_aa.o(i.LCD_AA_MixColors)
    i.LCD_AA_SetAndMask                      0x0800c8a0   Section        0  lcd_aa.o(i.LCD_AA_SetAndMask)
    i.LCD_Color2Index                        0x0800c8b0   Section        0  lcd.o(i.LCD_Color2Index)
    i.LCD_DrawBitmap                         0x0800c8cc   Section        0  lcd.o(i.LCD_DrawBitmap)
    i.LCD_DrawHLine                          0x0800cad4   Section        0  lcd.o(i.LCD_DrawHLine)
    i.LCD_DrawPixel                          0x0800cb2c   Section        0  lcd.o(i.LCD_DrawPixel)
    i.LCD_DrawVLine                          0x0800cb94   Section        0  lcd.o(i.LCD_DrawVLine)
    i.LCD_FillRect                           0x0800cbe8   Section        0  lcd.o(i.LCD_FillRect)
    i.LCD_GetBitsPerPixelEx                  0x0800cc40   Section        0  lcd_getex.o(i.LCD_GetBitsPerPixelEx)
    i.LCD_GetBkColorIndex                    0x0800cc48   Section        0  lcd_getcolorindex.o(i.LCD_GetBkColorIndex)
    i.LCD_GetColorIndex                      0x0800cc58   Section        0  lcd_getcolorindex.o(i.LCD_GetColorIndex)
    i.LCD_GetMirrorXEx                       0x0800cc68   Section        0  lcd_getex.o(i.LCD_GetMirrorXEx)
    i.LCD_GetMirrorYEx                       0x0800cc6e   Section        0  lcd_getex.o(i.LCD_GetMirrorYEx)
    i.LCD_GetNumColors                       0x0800cc74   Section        0  lcd_getex.o(i.LCD_GetNumColors)
    i.LCD_GetNumColorsEx                     0x0800cc84   Section        0  lcd_getex.o(i.LCD_GetNumColorsEx)
    i.LCD_GetNumLayers                       0x0800cc8a   Section        0  lcd_getnumdisplays.o(i.LCD_GetNumLayers)
    i.LCD_GetPalette                         0x0800cca4   Section        0  lcd_getex.o(i.LCD_GetPalette)
    i.LCD_GetPaletteEx                       0x0800ccb4   Section        0  lcd_getex.o(i.LCD_GetPaletteEx)
    i.LCD_GetPixelColor                      0x0800cccc   Section        0  lcd_getpixelcolor.o(i.LCD_GetPixelColor)
    i.LCD_GetPixelIndex                      0x0800ccdc   Section        0  lcd_getp.o(i.LCD_GetPixelIndex)
    i.LCD_GetPosEx                           0x0800cd3c   Section        0  lcd_set.o(i.LCD_GetPosEx)
    i.LCD_GetSwapXYEx                        0x0800cd68   Section        0  lcd_getex.o(i.LCD_GetSwapXYEx)
    i.LCD_GetVXSizeEx                        0x0800cd6e   Section        0  lcd_getex.o(i.LCD_GetVXSizeEx)
    i.LCD_GetVXSizeMax                       0x0800cd74   Section        0  lcd_getex.o(i.LCD_GetVXSizeMax)
    i.LCD_GetVYSizeEx                        0x0800cd7a   Section        0  lcd_getex.o(i.LCD_GetVYSizeEx)
    i.LCD_GetXSize                           0x0800cd80   Section        0  lcd_getex.o(i.LCD_GetXSize)
    i.LCD_GetXSizeEx                         0x0800cd90   Section        0  lcd_getex.o(i.LCD_GetXSizeEx)
    i.LCD_GetYSize                           0x0800cd98   Section        0  lcd_getex.o(i.LCD_GetYSize)
    i.LCD_GetYSizeEx                         0x0800cda8   Section        0  lcd_getex.o(i.LCD_GetYSizeEx)
    i.LCD_GetpPalConvTable                   0x0800cdae   Section        0  lcd_color.o(i.LCD_GetpPalConvTable)
    i.LCD_GetpPalConvTableBM                 0x0800cdb2   Section        0  lcd_color.o(i.LCD_GetpPalConvTableBM)
    i.LCD_GetpPalConvTableUncached           0x0800cdb8   Section        0  lcd_color.o(i.LCD_GetpPalConvTableUncached)
    i.LCD_Index2Color                        0x0800ce00   Section        0  lcd.o(i.LCD_Index2Color)
    i.LCD_Index2Color_565                    0x0800ce1c   Section        0  guicc_565_index2color.o(i.LCD_Index2Color_565)
    i.LCD_Index2Color_888                    0x0800ce48   Section        0  guicc_888_index2color.o(i.LCD_Index2Color_888)
    i.LCD_Index2Color_8888                   0x0800ce4a   Section        0  guicc_8888_index2color.o(i.LCD_Index2Color_8888)
    i.LCD_Index2Color_M565                   0x0800ce4c   Section        0  guicc_m565_index2color.o(i.LCD_Index2Color_M565)
    i.LCD_InitColors                         0x0800ce78   Section        0  lcd_color.o(i.LCD_InitColors)
    i.LCD_InitLUT                            0x0800ceac   Section        0  lcd_color.o(i.LCD_InitLUT)
    i.LCD_ReadRectEx                         0x0800cf1c   Section        0  lcd_readrect.o(i.LCD_ReadRectEx)
    LCD_ReadRectEx                           0x0800cf1d   Thumb Code   404  lcd_readrect.o(i.LCD_ReadRectEx)
    i.LCD_SelectLCD                          0x0800d0b4   Section        0  lcd_selectlcd.o(i.LCD_SelectLCD)
    i.LCD_SetBkColor                         0x0800d0f8   Section        0  lcd.o(i.LCD_SetBkColor)
    i.LCD_SetBkColorIndex                    0x0800d104   Section        0  lcd.o(i.LCD_SetBkColorIndex)
    i.LCD_SetClipRectEx                      0x0800d11c   Section        0  lcd_setcliprectex.o(i.LCD_SetClipRectEx)
    i.LCD_SetClipRectMax                     0x0800d14c   Section        0  lcd.o(i.LCD_SetClipRectMax)
    i.LCD_SetColor                           0x0800d168   Section        0  lcd.o(i.LCD_SetColor)
    i.LCD_SetColorIndex                      0x0800d174   Section        0  lcd.o(i.LCD_SetColorIndex)
    i.LCD_SetDrawMode                        0x0800d18c   Section        0  lcd.o(i.LCD_SetDrawMode)
    i.LCD_SetLUTEntryEx                      0x0800d198   Section        0  lcd_set.o(i.LCD_SetLUTEntryEx)
    i.LCD_SetPixelAA                         0x0800d1c4   Section        0  lcd_aa.o(i.LCD_SetPixelAA)
    i.LCD_SetPixelAA_NoTrans                 0x0800d24c   Section        0  lcd_aa.o(i.LCD_SetPixelAA_NoTrans)
    i.LCD_SetPixelAA_Xor                     0x0800d2dc   Section        0  lcd_aa.o(i.LCD_SetPixelAA_Xor)
    i.LCD_SetPosEx                           0x0800d374   Section        0  lcd_set.o(i.LCD_SetPosEx)
    i.LCD_SetSizeEx                          0x0800d3a0   Section        0  lcd_set.o(i.LCD_SetSizeEx)
    i.LCD_SetVSizeEx                         0x0800d3cc   Section        0  lcd_set.o(i.LCD_SetVSizeEx)
    i.LCD_SetVisEx                           0x0800d3f8   Section        0  lcd_set.o(i.LCD_SetVisEx)
    i.LCD_UpdateColorIndices                 0x0800d420   Section        0  lcd_updatecolorindices.o(i.LCD_UpdateColorIndices)
    i.LCD_X_Config                           0x0800d444   Section        0  lcdconf_flexcolor_template.o(i.LCD_X_Config)
    i.LCD_X_DisplayDriver                    0x0800d518   Section        0  lcdconf_flexcolor_template.o(i.LCD_X_DisplayDriver)
    i.LCD__DrawBitmap_1bpp                   0x0800d52c   Section        0  lcd.o(i.LCD__DrawBitmap_1bpp)
    i.LCD__GetBPP                            0x0800d6e0   Section        0  lcd_getex.o(i.LCD__GetBPP)
    i.LCD__GetBPPDevice                      0x0800d73c   Section        0  lcd_getex.o(i.LCD__GetBPPDevice)
    i.LED_GPIO_Config                        0x0800d770   Section        0  bsp_led.o(i.LED_GPIO_Config)
    i.LISTVIEW_AddColumn                     0x0800d7d0   Section        0  listview.o(i.LISTVIEW_AddColumn)
    i.LISTVIEW_AddItem                       0x0800d870   Section        0  messageapp.o(i.LISTVIEW_AddItem)
    LISTVIEW_AddItem                         0x0800d871   Thumb Code   406  messageapp.o(i.LISTVIEW_AddItem)
    i.LISTVIEW_AddRow                        0x0800da54   Section        0  listview.o(i.LISTVIEW_AddRow)
    i.LISTVIEW_Callback                      0x0800db58   Section        0  listview.o(i.LISTVIEW_Callback)
    i.LISTVIEW_CreateIndirect                0x0800dd5a   Section        0  listview_createindirect.o(i.LISTVIEW_CreateIndirect)
    i.LISTVIEW_CreateUser                    0x0800dd94   Section        0  listview.o(i.LISTVIEW_CreateUser)
    i.LISTVIEW_DeleteRow                     0x0800de7c   Section        0  listview_deleterow.o(i.LISTVIEW_DeleteRow)
    i.LISTVIEW_GetHeader                     0x0800df5a   Section        0  listview_getheader.o(i.LISTVIEW_GetHeader)
    i.LISTVIEW_GetLBorder                    0x0800df80   Section        0  listview_setlborder.o(i.LISTVIEW_GetLBorder)
    i.LISTVIEW_GetRBorder                    0x0800dfa8   Section        0  listview_setrborder.o(i.LISTVIEW_GetRBorder)
    i.LISTVIEW_GetSel                        0x0800dfd0   Section        0  listview_getsel.o(i.LISTVIEW_GetSel)
    i.LISTVIEW_GetWrapMode                   0x0800dff6   Section        0  listview_getwrapmode.o(i.LISTVIEW_GetWrapMode)
    i.LISTVIEW_OwnerDraw                     0x0800e01e   Section        0  listview.o(i.LISTVIEW_OwnerDraw)
    i.LISTVIEW_RowIsDisabled                 0x0800e11a   Section        0  listview_disablerow.o(i.LISTVIEW_RowIsDisabled)
    i.LISTVIEW_SetAutoScrollV                0x0800e132   Section        0  listview_setautoscroll.o(i.LISTVIEW_SetAutoScrollV)
    i.LISTVIEW_SetFont                       0x0800e138   Section        0  listview_setfont.o(i.LISTVIEW_SetFont)
    i.LISTVIEW_SetGridVis                    0x0800e16c   Section        0  listview_setgridvis.o(i.LISTVIEW_SetGridVis)
    i.LISTVIEW_SetHeaderHeight               0x0800e1aa   Section        0  listview.o(i.LISTVIEW_SetHeaderHeight)
    i.LISTVIEW_SetRowHeight                  0x0800e1d6   Section        0  listview_setrowheight.o(i.LISTVIEW_SetRowHeight)
    i.LISTVIEW_SetTextAlign                  0x0800e21c   Section        0  listview_settextalign.o(i.LISTVIEW_SetTextAlign)
    i.LISTVIEW__GetNumColumns                0x0800e266   Section        0  listview_getnumcolumns.o(i.LISTVIEW__GetNumColumns)
    i.LISTVIEW__GetNumRows                   0x0800e26c   Section        0  listview_getnumrows.o(i.LISTVIEW__GetNumRows)
    i.LISTVIEW__GetRowDistY                  0x0800e272   Section        0  listview.o(i.LISTVIEW__GetRowDistY)
    i.LISTVIEW__GetpRow                      0x0800e28e   Section        0  listview.o(i.LISTVIEW__GetpRow)
    i.LISTVIEW__InvalidateInsideArea         0x0800e2fe   Section        0  listview.o(i.LISTVIEW__InvalidateInsideArea)
    i.LISTVIEW__InvalidateRow                0x0800e332   Section        0  listview.o(i.LISTVIEW__InvalidateRow)
    i.LISTVIEW__InvalidateRowAndBelow        0x0800e388   Section        0  listview_deleterow.o(i.LISTVIEW__InvalidateRowAndBelow)
    i.LISTVIEW__SetSel                       0x0800e3d4   Section        0  listview.o(i.LISTVIEW__SetSel)
    i.LISTVIEW__UpdateScrollParas            0x0800e448   Section        0  listview.o(i.LISTVIEW__UpdateScrollParas)
    i.LcdReadDataMultiple                    0x0800e520   Section        0  lcdconf_flexcolor_template.o(i.LcdReadDataMultiple)
    LcdReadDataMultiple                      0x0800e521   Thumb Code    18  lcdconf_flexcolor_template.o(i.LcdReadDataMultiple)
    i.LcdWriteData                           0x0800e538   Section        0  lcdconf_flexcolor_template.o(i.LcdWriteData)
    LcdWriteData                             0x0800e539   Thumb Code     6  lcdconf_flexcolor_template.o(i.LcdWriteData)
    i.LcdWriteDataMultiple                   0x0800e544   Section        0  lcdconf_flexcolor_template.o(i.LcdWriteDataMultiple)
    LcdWriteDataMultiple                     0x0800e545   Thumb Code    18  lcdconf_flexcolor_template.o(i.LcdWriteDataMultiple)
    i.LcdWriteReg                            0x0800e55c   Section        0  lcdconf_flexcolor_template.o(i.LcdWriteReg)
    LcdWriteReg                              0x0800e55d   Thumb Code     8  lcdconf_flexcolor_template.o(i.LcdWriteReg)
    i.MAL_Config                             0x0800e564   Section        0  hw_config.o(i.MAL_Config)
    i.MAL_GetStatus                          0x0800e56c   Section        0  mass_mal.o(i.MAL_GetStatus)
    i.MAL_Init                               0x0800e594   Section        0  mass_mal.o(i.MAL_Init)
    i.MAL_Read                               0x0800e5c4   Section        0  mass_mal.o(i.MAL_Read)
    i.MAL_Write                              0x0800e5e0   Section        0  mass_mal.o(i.MAL_Write)
    i.MASS_Data_Setup                        0x0800e608   Section        0  usb_prop.o(i.MASS_Data_Setup)
    i.MASS_GetConfigDescriptor               0x0800e648   Section        0  usb_prop.o(i.MASS_GetConfigDescriptor)
    i.MASS_GetDeviceDescriptor               0x0800e654   Section        0  usb_prop.o(i.MASS_GetDeviceDescriptor)
    i.MASS_GetStringDescriptor               0x0800e660   Section        0  usb_prop.o(i.MASS_GetStringDescriptor)
    i.MASS_Get_Interface_Setting             0x0800e680   Section        0  usb_prop.o(i.MASS_Get_Interface_Setting)
    i.MASS_NoData_Setup                      0x0800e694   Section        0  usb_prop.o(i.MASS_NoData_Setup)
    i.MASS_Reset                             0x0800e6e4   Section        0  usb_prop.o(i.MASS_Reset)
    i.MASS_Status_In                         0x0800e7c4   Section        0  usb_prop.o(i.MASS_Status_In)
    i.MASS_Status_Out                        0x0800e7c6   Section        0  usb_prop.o(i.MASS_Status_Out)
    i.MASS_init                              0x0800e7c8   Section        0  usb_prop.o(i.MASS_init)
    i.MESSAGEBOX_Callback                    0x0800e7ec   Section        0  messagebox.o(i.MESSAGEBOX_Callback)
    i.MESSAGEBOX_Create                      0x0800e848   Section        0  messagebox.o(i.MESSAGEBOX_Create)
    i.MULTIEDIT_AddKey                       0x0800ea3c   Section        0  multiedit.o(i.MULTIEDIT_AddKey)
    i.MULTIEDIT_AddText                      0x0800ea5e   Section        0  multiedit.o(i.MULTIEDIT_AddText)
    i.MULTIEDIT_Callback                     0x0800eb9c   Section        0  multiedit.o(i.MULTIEDIT_Callback)
    i.MULTIEDIT_CreateIndirect               0x0800ed4c   Section        0  multiedit_createindirect.o(i.MULTIEDIT_CreateIndirect)
    i.MULTIEDIT_CreateUser                   0x0800ed88   Section        0  multiedit.o(i.MULTIEDIT_CreateUser)
    i.MULTIEDIT_EnableBlink                  0x0800ee98   Section        0  multiedit.o(i.MULTIEDIT_EnableBlink)
    i.MULTIEDIT_GetText                      0x0800eefe   Section        0  multiedit.o(i.MULTIEDIT_GetText)
    i.MULTIEDIT_GetTextSize                  0x0800ef60   Section        0  multiedit.o(i.MULTIEDIT_GetTextSize)
    i.MULTIEDIT_SetAutoScrollH               0x0800efaa   Section        0  multiedit.o(i.MULTIEDIT_SetAutoScrollH)
    i.MULTIEDIT_SetAutoScrollV               0x0800efb0   Section        0  multiedit.o(i.MULTIEDIT_SetAutoScrollV)
    i.MULTIEDIT_SetFont                      0x0800efb6   Section        0  multiedit.o(i.MULTIEDIT_SetFont)
    i.MULTIEDIT_SetInsertMode                0x0800f000   Section        0  multiedit.o(i.MULTIEDIT_SetInsertMode)
    i.MULTIEDIT_SetMaxNumChars               0x0800f006   Section        0  multiedit.o(i.MULTIEDIT_SetMaxNumChars)
    i.MULTIEDIT_SetReadOnly                  0x0800f09c   Section        0  multiedit.o(i.MULTIEDIT_SetReadOnly)
    i.MULTIEDIT_SetText                      0x0800f0a2   Section        0  multiedit.o(i.MULTIEDIT_SetText)
    i.MULTIEDIT_SetTextColor                 0x0800f0c0   Section        0  multiedit.o(i.MULTIEDIT_SetTextColor)
    i.MULTIEDIT_SetWrapWord                  0x0800f0f2   Section        0  multiedit.o(i.MULTIEDIT_SetWrapWord)
    i.MULTIPAGE_DrawSkinFlex                 0x0800f0f8   Section        0  multipage_skinflex.o(i.MULTIPAGE_DrawSkinFlex)
    i.MULTIPAGE_GetFont                      0x0800f334   Section        0  multipage.o(i.MULTIPAGE_GetFont)
    i.MULTIPAGE_SetDefaultSkin               0x0800f35c   Section        0  multipage_skin.o(i.MULTIPAGE_SetDefaultSkin)
    i.MULTIPAGE__CalcBorderRect              0x0800f378   Section        0  multipage.o(i.MULTIPAGE__CalcBorderRect)
    i.MULTIPAGE__GetPagePos                  0x0800f38e   Section        0  multipage.o(i.MULTIPAGE__GetPagePos)
    i.MULTIPAGE__GetPageSize                 0x0800f3b2   Section        0  multipage.o(i.MULTIPAGE__GetPageSize)
    i.MULTIPAGE__GetTextRect                 0x0800f3f6   Section        0  multipage.o(i.MULTIPAGE__GetTextRect)
    i.Mass_Storage_ClearFeature              0x0800f4d8   Section        0  usb_prop.o(i.Mass_Storage_ClearFeature)
    i.Mass_Storage_In                        0x0800f4f4   Section        0  usb_bot.o(i.Mass_Storage_In)
    i.Mass_Storage_Out                       0x0800f554   Section        0  usb_bot.o(i.Mass_Storage_Out)
    i.Mass_Storage_SetConfiguration          0x0800f5cc   Section        0  usb_prop.o(i.Mass_Storage_SetConfiguration)
    i.Mass_Storage_SetDeviceAddress          0x0800f600   Section        0  usb_prop.o(i.Mass_Storage_SetDeviceAddress)
    i.MemManage_Handler                      0x0800f60c   Section        0  stm32f10x_it.o(i.MemManage_Handler)
    i.NMI_Handler                            0x0800f60e   Section        0  stm32f10x_it.o(i.NMI_Handler)
    i.NOP_Process                            0x0800f610   Section        0  usb_core.o(i.NOP_Process)
    i.NVIC_Configuration_Usart2              0x0800f612   Section        0  bsp_usart2.o(i.NVIC_Configuration_Usart2)
    NVIC_Configuration_Usart2                0x0800f613   Thumb Code    30  bsp_usart2.o(i.NVIC_Configuration_Usart2)
    i.NVIC_Init                              0x0800f630   Section        0  misc.o(i.NVIC_Init)
    i.NVIC_PriorityGroupConfig               0x0800f694   Section        0  misc.o(i.NVIC_PriorityGroupConfig)
    i.NoData_Setup0                          0x0800f6a8   Section        0  usb_core.o(i.NoData_Setup0)
    NoData_Setup0                            0x0800f6a9   Thumb Code   204  usb_core.o(i.NoData_Setup0)
    i.OSCfg_Init                             0x0800f788   Section        0  os_cfg_app.o(i.OSCfg_Init)
    i.OSIdleTaskHook                         0x0800f78a   Section        0  os_cpu_c.o(i.OSIdleTaskHook)
    i.OSInit                                 0x0800f78c   Section        0  os_core.o(i.OSInit)
    i.OSInitHook                             0x0800f894   Section        0  os_cpu_c.o(i.OSInitHook)
    i.OSIntExit                              0x0800f8c8   Section        0  os_core.o(i.OSIntExit)
    i.OSSched                                0x0800f97c   Section        0  os_core.o(i.OSSched)
    i.OSSchedLock                            0x0800fa00   Section        0  os_core.o(i.OSSchedLock)
    i.OSSchedUnlock                          0x0800fa40   Section        0  os_core.o(i.OSSchedUnlock)
    i.OSSemCreate                            0x0800fa94   Section        0  os_sem.o(i.OSSemCreate)
    i.OSSemPend                              0x0800fad8   Section        0  os_sem.o(i.OSSemPend)
    i.OSSemPost                              0x0800fbdc   Section        0  os_sem.o(i.OSSemPost)
    i.OSStart                                0x0800fbf8   Section        0  os_core.o(i.OSStart)
    i.OSStatReset                            0x0800fc54   Section        0  os_stat.o(i.OSStatReset)
    i.OSStatTaskCPUUsageInit                 0x0800fc98   Section        0  os_stat.o(i.OSStatTaskCPUUsageInit)
    i.OSStatTaskHook                         0x0800fd44   Section        0  os_cpu_c.o(i.OSStatTaskHook)
    i.OSTaskCreate                           0x0800fd48   Section        0  os_task.o(i.OSTaskCreate)
    i.OSTaskCreateHook                       0x0800fe44   Section        0  os_cpu_c.o(i.OSTaskCreateHook)
    i.OSTaskDel                              0x0800fe48   Section        0  os_task.o(i.OSTaskDel)
    i.OSTaskDelHook                          0x0800ff04   Section        0  os_cpu_c.o(i.OSTaskDelHook)
    i.OSTaskResume                           0x0800ff06   Section        0  os_task.o(i.OSTaskResume)
    i.OSTaskReturnHook                       0x0800ff20   Section        0  os_cpu_c.o(i.OSTaskReturnHook)
    i.OSTaskSemPend                          0x0800ff24   Section        0  os_task.o(i.OSTaskSemPend)
    i.OSTaskSemPost                          0x08010038   Section        0  os_task.o(i.OSTaskSemPost)
    i.OSTaskStkInit                          0x08010054   Section        0  os_cpu_c.o(i.OSTaskStkInit)
    i.OSTaskSuspend                          0x080100b8   Section        0  os_task.o(i.OSTaskSuspend)
    i.OSTaskSwHook                           0x080100d0   Section        0  os_cpu_c.o(i.OSTaskSwHook)
    i.OSTimeDly                              0x08010100   Section        0  os_time.o(i.OSTimeDly)
    i.OSTimeDlyHMSM                          0x08010184   Section        0  os_time.o(i.OSTimeDlyHMSM)
    i.OSTimeGet                              0x08010248   Section        0  os_time.o(i.OSTimeGet)
    i.OSTimeTick                             0x08010264   Section        0  os_time.o(i.OSTimeTick)
    i.OSTimeTickHook                         0x080102a4   Section        0  os_cpu_c.o(i.OSTimeTickHook)
    i.OS_CPU_SysTickHandler                  0x080102a8   Section        0  os_cpu_c.o(i.OS_CPU_SysTickHandler)
    i.OS_CPU_SysTickInit                     0x080102cc   Section        0  os_cpu_c.o(i.OS_CPU_SysTickInit)
    i.OS_FlagInit                            0x080102f4   Section        0  os_flag.o(i.OS_FlagInit)
    i.OS_IdleTask                            0x08010304   Section        0  os_core.o(i.OS_IdleTask)
    i.OS_IdleTaskInit                        0x0801032c   Section        0  os_core.o(i.OS_IdleTaskInit)
    i.OS_MemInit                             0x08010394   Section        0  os_mem.o(i.OS_MemInit)
    i.OS_MsgPoolInit                         0x080103a4   Section        0  os_msg.o(i.OS_MsgPoolInit)
    i.OS_MsgQFreeAll                         0x080103f8   Section        0  os_msg.o(i.OS_MsgQFreeAll)
    i.OS_MsgQInit                            0x08010430   Section        0  os_msg.o(i.OS_MsgQInit)
    i.OS_MutexInit                           0x08010440   Section        0  os_mutex.o(i.OS_MutexInit)
    i.OS_Pend                                0x08010450   Section        0  os_core.o(i.OS_Pend)
    i.OS_PendDataInit                        0x08010498   Section        0  os_core.o(i.OS_PendDataInit)
    i.OS_PendListInit                        0x080104be   Section        0  os_core.o(i.OS_PendListInit)
    i.OS_PendListInsertPrio                  0x080104c8   Section        0  os_core.o(i.OS_PendListInsertPrio)
    i.OS_PendListRemove                      0x08010524   Section        0  os_core.o(i.OS_PendListRemove)
    i.OS_PendListRemove1                     0x0801054a   Section        0  os_core.o(i.OS_PendListRemove1)
    i.OS_Post                                0x08010580   Section        0  os_core.o(i.OS_Post)
    i.OS_Post1                               0x08010608   Section        0  os_core.o(i.OS_Post1)
    i.OS_PrioGetHighest                      0x08010630   Section        0  os_prio.o(i.OS_PrioGetHighest)
    i.OS_PrioInit                            0x08010654   Section        0  os_prio.o(i.OS_PrioInit)
    i.OS_PrioInsert                          0x0801066c   Section        0  os_prio.o(i.OS_PrioInsert)
    i.OS_PrioRemove                          0x0801068c   Section        0  os_prio.o(i.OS_PrioRemove)
    i.OS_QInit                               0x080106ac   Section        0  os_q.o(i.OS_QInit)
    i.OS_RdyListInit                         0x080106bc   Section        0  os_core.o(i.OS_RdyListInit)
    i.OS_RdyListInsert                       0x080106e0   Section        0  os_core.o(i.OS_RdyListInsert)
    i.OS_RdyListInsertHead                   0x08010710   Section        0  os_core.o(i.OS_RdyListInsertHead)
    i.OS_RdyListInsertTail                   0x0801074c   Section        0  os_core.o(i.OS_RdyListInsertTail)
    i.OS_RdyListRemove                       0x08010784   Section        0  os_core.o(i.OS_RdyListRemove)
    i.OS_SemInit                             0x080107d8   Section        0  os_sem.o(i.OS_SemInit)
    i.OS_SemPost                             0x080107e8   Section        0  os_sem.o(i.OS_SemPost)
    i.OS_StatTask                            0x08010874   Section        0  os_stat.o(i.OS_StatTask)
    i.OS_StatTaskInit                        0x080109ac   Section        0  os_stat.o(i.OS_StatTaskInit)
    i.OS_TaskBlock                           0x08010a6c   Section        0  os_core.o(i.OS_TaskBlock)
    i.OS_TaskInit                            0x08010aa0   Section        0  os_task.o(i.OS_TaskInit)
    i.OS_TaskInitTCB                         0x08010ab8   Section        0  os_task.o(i.OS_TaskInitTCB)
    i.OS_TaskRdy                             0x08010b54   Section        0  os_core.o(i.OS_TaskRdy)
    i.OS_TaskResume                          0x08010b72   Section        0  os_task.o(i.OS_TaskResume)
    i.OS_TaskReturn                          0x08010c2c   Section        0  os_task.o(i.OS_TaskReturn)
    i.OS_TaskSemPost                         0x08010c44   Section        0  os_task.o(i.OS_TaskSemPost)
    i.OS_TaskSuspend                         0x08010cfc   Section        0  os_task.o(i.OS_TaskSuspend)
    i.OS_TickListInit                        0x08010dbc   Section        0  os_tick.o(i.OS_TickListInit)
    i.OS_TickListInsert                      0x08010de8   Section        0  os_tick.o(i.OS_TickListInsert)
    i.OS_TickListRemove                      0x08010ed8   Section        0  os_tick.o(i.OS_TickListRemove)
    i.OS_TickListResetPeak                   0x08010f10   Section        0  os_tick.o(i.OS_TickListResetPeak)
    i.OS_TickListUpdate                      0x08010f38   Section        0  os_tick.o(i.OS_TickListUpdate)
    i.OS_TickTask                            0x08011068   Section        0  os_tick.o(i.OS_TickTask)
    i.OS_TickTaskInit                        0x08011090   Section        0  os_tick.o(i.OS_TickTaskInit)
    i.OS_TmrInit                             0x0801113c   Section        0  os_tmr.o(i.OS_TmrInit)
    i.OS_TmrLink                             0x08011244   Section        0  os_tmr.o(i.OS_TmrLink)
    i.OS_TmrResetPeak                        0x080112f8   Section        0  os_tmr.o(i.OS_TmrResetPeak)
    i.OS_TmrTask                             0x08011320   Section        0  os_tmr.o(i.OS_TmrTask)
    i.OS_TmrUnlink                           0x080113d0   Section        0  os_tmr.o(i.OS_TmrUnlink)
    i.Out0_Process                           0x0801141c   Section        0  usb_core.o(i.Out0_Process)
    i.Ov7725_GPIO_Config                     0x08011468   Section        0  bsp_ov7725.o(i.Ov7725_GPIO_Config)
    i.Ov7725_Init                            0x08011478   Section        0  bsp_ov7725.o(i.Ov7725_Init)
    i.PMAToUserBufferCopy                    0x080114d8   Section        0  usb_mem.o(i.PMAToUserBufferCopy)
    i.PROGBAR_DrawSkinFlex                   0x080114fc   Section        0  progbar_skinflex.o(i.PROGBAR_DrawSkinFlex)
    i.PROGBAR_SetDefaultSkin                 0x08011580   Section        0  progbar_skin.o(i.PROGBAR_SetDefaultSkin)
    i.PROGBAR__GetTextLocked                 0x0801159c   Section        0  progbar.o(i.PROGBAR__GetTextLocked)
    i.PROGBAR__GetTextRect                   0x080115a2   Section        0  progbar.o(i.PROGBAR__GetTextRect)
    i.PROGBAR__Value2Pos                     0x08011624   Section        0  progbar.o(i.PROGBAR__Value2Pos)
    i.PWR_BackupAccessCmd                    0x08011674   Section        0  stm32f10x_pwr.o(i.PWR_BackupAccessCmd)
    i.PYSearch                               0x08011680   Section        0  pysearch.o(i.PYSearch)
    i.Post0_Process                          0x08011714   Section        0  usb_core.o(i.Post0_Process)
    i.PowerOn                                0x08011754   Section        0  usb_pwr.o(i.PowerOn)
    i.RADIO_DrawSkinFlex                     0x08011780   Section        0  radio_skinflex.o(i.RADIO_DrawSkinFlex)
    i.RADIO_SetDefaultSkin                   0x08011838   Section        0  radio_skin.o(i.RADIO_SetDefaultSkin)
    i.RADIO__GetButtonSize                   0x08011854   Section        0  radio.o(i.RADIO__GetButtonSize)
    i.RCC_ADCCLKConfig                       0x0801187c   Section        0  stm32f10x_rcc.o(i.RCC_ADCCLKConfig)
    i.RCC_AHBPeriphClockCmd                  0x08011890   Section        0  stm32f10x_rcc.o(i.RCC_AHBPeriphClockCmd)
    i.RCC_APB1PeriphClockCmd                 0x080118ac   Section        0  stm32f10x_rcc.o(i.RCC_APB1PeriphClockCmd)
    i.RCC_APB2PeriphClockCmd                 0x080118c8   Section        0  stm32f10x_rcc.o(i.RCC_APB2PeriphClockCmd)
    i.RCC_BackupResetCmd                     0x080118e4   Section        0  stm32f10x_rcc.o(i.RCC_BackupResetCmd)
    i.RCC_ClearFlag                          0x080118f0   Section        0  stm32f10x_rcc.o(i.RCC_ClearFlag)
    i.RCC_GetClocksFreq                      0x08011900   Section        0  stm32f10x_rcc.o(i.RCC_GetClocksFreq)
    i.RCC_GetFlagStatus                      0x080119ac   Section        0  stm32f10x_rcc.o(i.RCC_GetFlagStatus)
    i.RCC_LSEConfig                          0x080119dc   Section        0  stm32f10x_rcc.o(i.RCC_LSEConfig)
    i.RCC_RTCCLKCmd                          0x08011a04   Section        0  stm32f10x_rcc.o(i.RCC_RTCCLKCmd)
    i.RCC_RTCCLKConfig                       0x08011a10   Section        0  stm32f10x_rcc.o(i.RCC_RTCCLKConfig)
    i.RCC_USBCLKConfig                       0x08011a20   Section        0  stm32f10x_rcc.o(i.RCC_USBCLKConfig)
    i.RTC_CheckAndConfig                     0x08011a2c   Section        0  bsp_rtc.o(i.RTC_CheckAndConfig)
    i.RTC_ClearITPendingBit                  0x08011b4c   Section        0  stm32f10x_rtc.o(i.RTC_ClearITPendingBit)
    i.RTC_Configuration                      0x08011b5c   Section        0  bsp_rtc.o(i.RTC_Configuration)
    i.RTC_EnterConfigMode                    0x08011bc4   Section        0  stm32f10x_rtc.o(i.RTC_EnterConfigMode)
    i.RTC_ExitConfigMode                     0x08011bd4   Section        0  stm32f10x_rtc.o(i.RTC_ExitConfigMode)
    i.RTC_GetCounter                         0x08011be4   Section        0  stm32f10x_rtc.o(i.RTC_GetCounter)
    i.RTC_GetITStatus                        0x08011bf8   Section        0  stm32f10x_rtc.o(i.RTC_GetITStatus)
    i.RTC_IRQHandler                         0x08011c18   Section        0  stm32f10x_it.o(i.RTC_IRQHandler)
    i.RTC_ITConfig                           0x08011c54   Section        0  stm32f10x_rtc.o(i.RTC_ITConfig)
    i.RTC_NVIC_Config                        0x08011c70   Section        0  bsp_rtc.o(i.RTC_NVIC_Config)
    i.RTC_SetCounter                         0x08011c90   Section        0  stm32f10x_rtc.o(i.RTC_SetCounter)
    i.RTC_SetPrescaler                       0x08011cb0   Section        0  stm32f10x_rtc.o(i.RTC_SetPrescaler)
    i.RTC_TimeCovr                           0x08011cd0   Section        0  bsp_rtc.o(i.RTC_TimeCovr)
    i.RTC_WaitForLastTask                    0x08011ce8   Section        0  stm32f10x_rtc.o(i.RTC_WaitForLastTask)
    i.RTC_WaitForSynchro                     0x08011cf8   Section        0  stm32f10x_rtc.o(i.RTC_WaitForSynchro)
    i.Read_Byte                              0x08011d10   Section        0  humitureapp.o(i.Read_Byte)
    Read_Byte                                0x08011d11   Thumb Code    92  humitureapp.o(i.Read_Byte)
    i.Read_DHT11                             0x08011d70   Section        0  humitureapp.o(i.Read_DHT11)
    i.Read_Memory                            0x08011e0c   Section        0  memory.o(i.Read_Memory)
    i.SCCB_Ack                               0x08011ec0   Section        0  bsp_sccb.o(i.SCCB_Ack)
    SCCB_Ack                                 0x08011ec1   Thumb Code    56  bsp_sccb.o(i.SCCB_Ack)
    i.SCCB_GPIO_Config                       0x08011efc   Section        0  bsp_sccb.o(i.SCCB_GPIO_Config)
    i.SCCB_NoAck                             0x08011f40   Section        0  bsp_sccb.o(i.SCCB_NoAck)
    SCCB_NoAck                               0x08011f41   Thumb Code    56  bsp_sccb.o(i.SCCB_NoAck)
    i.SCCB_ReadByte                          0x08011f7c   Section        0  bsp_sccb.o(i.SCCB_ReadByte)
    i.SCCB_ReceiveByte                       0x08011ff8   Section        0  bsp_sccb.o(i.SCCB_ReceiveByte)
    SCCB_ReceiveByte                         0x08011ff9   Thumb Code    78  bsp_sccb.o(i.SCCB_ReceiveByte)
    i.SCCB_SendByte                          0x0801204c   Section        0  bsp_sccb.o(i.SCCB_SendByte)
    SCCB_SendByte                            0x0801204d   Thumb Code    82  bsp_sccb.o(i.SCCB_SendByte)
    i.SCCB_Start                             0x080120a4   Section        0  bsp_sccb.o(i.SCCB_Start)
    SCCB_Start                               0x080120a5   Thumb Code    80  bsp_sccb.o(i.SCCB_Start)
    i.SCCB_Stop                              0x080120f8   Section        0  bsp_sccb.o(i.SCCB_Stop)
    SCCB_Stop                                0x080120f9   Thumb Code    56  bsp_sccb.o(i.SCCB_Stop)
    i.SCCB_WaitAck                           0x08012134   Section        0  bsp_sccb.o(i.SCCB_WaitAck)
    SCCB_WaitAck                             0x08012135   Thumb Code    74  bsp_sccb.o(i.SCCB_WaitAck)
    i.SCCB_WriteByte                         0x08012184   Section        0  bsp_sccb.o(i.SCCB_WriteByte)
    i.SCCB_delay                             0x080121c4   Section        0  bsp_sccb.o(i.SCCB_delay)
    SCCB_delay                               0x080121c5   Thumb Code    14  bsp_sccb.o(i.SCCB_delay)
    i.SCROLLBAR_AddValue                     0x080121d2   Section        0  scrollbar.o(i.SCROLLBAR_AddValue)
    i.SCROLLBAR_Callback                     0x080121fc   Section        0  scrollbar.o(i.SCROLLBAR_Callback)
    i.SCROLLBAR_CreateAttached               0x08012338   Section        0  scrollbar_create.o(i.SCROLLBAR_CreateAttached)
    i.SCROLLBAR_CreateEx                     0x0801236e   Section        0  scrollbar.o(i.SCROLLBAR_CreateEx)
    i.SCROLLBAR_CreateUser                   0x0801238c   Section        0  scrollbar.o(i.SCROLLBAR_CreateUser)
    i.SCROLLBAR_Dec                          0x08012488   Section        0  scrollbar.o(i.SCROLLBAR_Dec)
    i.SCROLLBAR_DrawSkinFlex                 0x08012490   Section        0  scrollbar_skinflex.o(i.SCROLLBAR_DrawSkinFlex)
    i.SCROLLBAR_GetValue                     0x08012624   Section        0  scrollbar_getvalue.o(i.SCROLLBAR_GetValue)
    i.SCROLLBAR_Inc                          0x0801264a   Section        0  scrollbar.o(i.SCROLLBAR_Inc)
    i.SCROLLBAR_SetDefaultSkin               0x08012650   Section        0  scrollbar_skin.o(i.SCROLLBAR_SetDefaultSkin)
    i.SCROLLBAR_SetValue                     0x0801266c   Section        0  scrollbar.o(i.SCROLLBAR_SetValue)
    i.SCROLLBAR__InvalidatePartner           0x080126c0   Section        0  scrollbar.o(i.SCROLLBAR__InvalidatePartner)
    i.SCROLLBAR__Rect2VRect                  0x080126dc   Section        0  scrollbar.o(i.SCROLLBAR__Rect2VRect)
    i.SCSI_Address_Management                0x08012708   Section        0  usb_scsi.o(i.SCSI_Address_Management)
    i.SCSI_Format_Cmd                        0x08012788   Section        0  usb_scsi.o(i.SCSI_Format_Cmd)
    i.SCSI_Inquiry_Cmd                       0x080127b8   Section        0  usb_scsi.o(i.SCSI_Inquiry_Cmd)
    i.SCSI_Invalid_Cmd                       0x080127ec   Section        0  usb_scsi.o(i.SCSI_Invalid_Cmd)
    i.SCSI_ModeSense10_Cmd                   0x0801282c   Section        0  usb_scsi.o(i.SCSI_ModeSense10_Cmd)
    i.SCSI_ModeSense6_Cmd                    0x08012838   Section        0  usb_scsi.o(i.SCSI_ModeSense6_Cmd)
    i.SCSI_Read10_Cmd                        0x08012844   Section        0  usb_scsi.o(i.SCSI_Read10_Cmd)
    i.SCSI_ReadCapacity10_Cmd                0x080128bc   Section        0  usb_scsi.o(i.SCSI_ReadCapacity10_Cmd)
    i.SCSI_ReadFormatCapacity_Cmd            0x08012930   Section        0  usb_scsi.o(i.SCSI_ReadFormatCapacity_Cmd)
    i.SCSI_RequestSense_Cmd                  0x0801299c   Section        0  usb_scsi.o(i.SCSI_RequestSense_Cmd)
    i.SCSI_Start_Stop_Unit_Cmd               0x080129b4   Section        0  usb_scsi.o(i.SCSI_Start_Stop_Unit_Cmd)
    i.SCSI_TestUnitReady_Cmd                 0x080129bc   Section        0  usb_scsi.o(i.SCSI_TestUnitReady_Cmd)
    i.SCSI_Verify10_Cmd                      0x080129f4   Section        0  usb_scsi.o(i.SCSI_Verify10_Cmd)
    i.SCSI_Write10_Cmd                       0x08012a30   Section        0  usb_scsi.o(i.SCSI_Write10_Cmd)
    i.SLIDER_Callback                        0x08012a98   Section        0  slider.o(i.SLIDER_Callback)
    i.SLIDER_CreateIndirect                  0x08012b08   Section        0  slider_createindirect.o(i.SLIDER_CreateIndirect)
    i.SLIDER_CreateUser                      0x08012b40   Section        0  slider.o(i.SLIDER_CreateUser)
    i.SLIDER_Dec                             0x08012bd8   Section        0  slider.o(i.SLIDER_Dec)
    i.SLIDER_DrawSkinFlex                    0x08012c18   Section        0  slider_skinflex.o(i.SLIDER_DrawSkinFlex)
    i.SLIDER_GetValue                        0x08012d18   Section        0  slider.o(i.SLIDER_GetValue)
    i.SLIDER_Inc                             0x08012d3e   Section        0  slider.o(i.SLIDER_Inc)
    i.SLIDER_SetDefaultSkin                  0x08012d80   Section        0  slider_skin.o(i.SLIDER_SetDefaultSkin)
    i.SLIDER_SetRange                        0x08012d9c   Section        0  slider.o(i.SLIDER_SetRange)
    i.SLIDER_SetValue                        0x08012dde   Section        0  slider.o(i.SLIDER_SetValue)
    i.SPI_Cmd                                0x08012e2c   Section        0  stm32f10x_spi.o(i.SPI_Cmd)
    i.SPI_FLASH_BufferRead                   0x08012e44   Section        0  fatfs_flash_spi.o(i.SPI_FLASH_BufferRead)
    i.SPI_FLASH_BufferWrite                  0x08012e98   Section        0  fatfs_flash_spi.o(i.SPI_FLASH_BufferWrite)
    i.SPI_FLASH_PageWrite                    0x08012f6c   Section        0  fatfs_flash_spi.o(i.SPI_FLASH_PageWrite)
    i.SPI_FLASH_ReadID                       0x08012fcc   Section        0  fatfs_flash_spi.o(i.SPI_FLASH_ReadID)
    i.SPI_FLASH_SectorErase                  0x08013010   Section        0  fatfs_flash_spi.o(i.SPI_FLASH_SectorErase)
    i.SPI_FLASH_SendByte                     0x08013058   Section        0  fatfs_flash_spi.o(i.SPI_FLASH_SendByte)
    i.SPI_FLASH_WaitForWriteEnd              0x080130c4   Section        0  fatfs_flash_spi.o(i.SPI_FLASH_WaitForWriteEnd)
    i.SPI_FLASH_WriteEnable                  0x0801310c   Section        0  fatfs_flash_spi.o(i.SPI_FLASH_WriteEnable)
    i.SPI_I2S_GetFlagStatus                  0x08013130   Section        0  stm32f10x_spi.o(i.SPI_I2S_GetFlagStatus)
    i.SPI_I2S_ReceiveData                    0x0801313e   Section        0  stm32f10x_spi.o(i.SPI_I2S_ReceiveData)
    i.SPI_I2S_SendData                       0x08013142   Section        0  stm32f10x_spi.o(i.SPI_I2S_SendData)
    i.SPI_Init                               0x08013146   Section        0  stm32f10x_spi.o(i.SPI_Init)
    i.SPI_TIMEOUT_UserCallback               0x08013180   Section        0  fatfs_flash_spi.o(i.SPI_TIMEOUT_UserCallback)
    SPI_TIMEOUT_UserCallback                 0x08013181   Thumb Code    12  fatfs_flash_spi.o(i.SPI_TIMEOUT_UserCallback)
    i.SVC_Handler                            0x080131b4   Section        0  stm32f10x_it.o(i.SVC_Handler)
    i.SaveMessage                            0x080131b8   Section        0  messageapp.o(i.SaveMessage)
    SaveMessage                              0x080131b9   Thumb Code   308  messageapp.o(i.SaveMessage)
    i.SendMessage                            0x08013330   Section        0  messageapp.o(i.SendMessage)
    SendMessage                              0x08013331   Thumb Code    66  messageapp.o(i.SendMessage)
    i.SetBTABLE                              0x0801337c   Section        0  usb_regs.o(i.SetBTABLE)
    i.SetColorValue                          0x0801338c   Section        0  bsp_breathing.o(i.SetColorValue)
    i.SetDeviceAddress                       0x080133a0   Section        0  usb_core.o(i.SetDeviceAddress)
    i.SetEPRxAddr                            0x080133e8   Section        0  usb_regs.o(i.SetEPRxAddr)
    i.SetEPRxCount                           0x08013408   Section        0  usb_regs.o(i.SetEPRxCount)
    i.SetEPRxStatus                          0x0801344c   Section        0  usb_regs.o(i.SetEPRxStatus)
    i.SetEPRxValid                           0x0801347c   Section        0  usb_regs.o(i.SetEPRxValid)
    i.SetEPTxAddr                            0x080134a4   Section        0  usb_regs.o(i.SetEPTxAddr)
    i.SetEPTxCount                           0x080134c4   Section        0  usb_regs.o(i.SetEPTxCount)
    i.SetEPTxStatus                          0x080134e0   Section        0  usb_regs.o(i.SetEPTxStatus)
    i.SetEPType                              0x08013510   Section        0  usb_regs.o(i.SetEPType)
    i.SetSysClock                            0x0801352c   Section        0  system_stm32f10x.o(i.SetSysClock)
    SetSysClock                              0x0801352d   Thumb Code     4  system_stm32f10x.o(i.SetSysClock)
    i.SetSysClockTo72                        0x08013530   Section        0  system_stm32f10x.o(i.SetSysClockTo72)
    SetSysClockTo72                          0x08013531   Thumb Code   166  system_stm32f10x.o(i.SetSysClockTo72)
    i.Set_CSW                                0x080135e0   Section        0  usb_bot.o(i.Set_CSW)
    i.Set_Scsi_Sense_Data                    0x08013620   Section        0  usb_scsi.o(i.Set_Scsi_Sense_Data)
    i.Set_System                             0x0801362c   Section        0  hw_config.o(i.Set_System)
    i.Set_USBClock                           0x08013630   Section        0  hw_config.o(i.Set_USBClock)
    i.Setup0_Process                         0x08013644   Section        0  usb_core.o(i.Setup0_Process)
    i.Soft_Reset                             0x080136b8   Section        0  bsp.o(i.Soft_Reset)
    i.Standard_ClearFeature                  0x080136dc   Section        0  usb_core.o(i.Standard_ClearFeature)
    i.Standard_GetConfiguration              0x080137ec   Section        0  usb_core.o(i.Standard_GetConfiguration)
    i.Standard_GetDescriptorData             0x08013814   Section        0  usb_core.o(i.Standard_GetDescriptorData)
    i.Standard_GetInterface                  0x08013834   Section        0  usb_core.o(i.Standard_GetInterface)
    i.Standard_GetStatus                     0x0801385c   Section        0  usb_core.o(i.Standard_GetStatus)
    i.Standard_SetConfiguration              0x08013918   Section        0  usb_core.o(i.Standard_SetConfiguration)
    i.Standard_SetDeviceFeature              0x08013950   Section        0  usb_core.o(i.Standard_SetDeviceFeature)
    i.Standard_SetEndPointFeature            0x08013974   Section        0  usb_core.o(i.Standard_SetEndPointFeature)
    i.Standard_SetInterface                  0x08013a08   Section        0  usb_core.o(i.Standard_SetInterface)
    i.SystemInit                             0x08013a54   Section        0  system_stm32f10x.o(i.SystemInit)
    i.TEMP_HUM_GPIO_Config                   0x08013aa4   Section        0  humitureapp.o(i.TEMP_HUM_GPIO_Config)
    i.TEMP_HUM_Mode_IPU                      0x08013ad0   Section        0  humitureapp.o(i.TEMP_HUM_Mode_IPU)
    TEMP_HUM_Mode_IPU                        0x08013ad1   Thumb Code    24  humitureapp.o(i.TEMP_HUM_Mode_IPU)
    i.TEMP_HUM_Mode_Out_PP                   0x08013aec   Section        0  humitureapp.o(i.TEMP_HUM_Mode_Out_PP)
    TEMP_HUM_Mode_Out_PP                     0x08013aed   Thumb Code    30  humitureapp.o(i.TEMP_HUM_Mode_Out_PP)
    i.TEXT_Callback                          0x08013b10   Section        0  text.o(i.TEXT_Callback)
    i.TEXT_Create                            0x08013b76   Section        0  text_create.o(i.TEXT_Create)
    i.TEXT_CreateEx                          0x08013b94   Section        0  text.o(i.TEXT_CreateEx)
    i.TEXT_CreateIndirect                    0x08013bb0   Section        0  text_createindirect.o(i.TEXT_CreateIndirect)
    i.TEXT_CreateUser                        0x08013bec   Section        0  text.o(i.TEXT_CreateUser)
    i.TEXT_GetDefaultFont                    0x08013c8c   Section        0  text_default.o(i.TEXT_GetDefaultFont)
    i.TEXT_SetBkColor                        0x08013c98   Section        0  text_setbkcolor.o(i.TEXT_SetBkColor)
    i.TEXT_SetFont                           0x08013cd8   Section        0  text_setfont.o(i.TEXT_SetFont)
    i.TEXT_SetText                           0x08013d06   Section        0  text_settext.o(i.TEXT_SetText)
    i.TEXT_SetTextAlign                      0x08013d5a   Section        0  text_settextalign.o(i.TEXT_SetTextAlign)
    i.TEXT_SetTextColor                      0x08013d84   Section        0  text_settextcolor.o(i.TEXT_SetTextColor)
    i.TI1_Config                             0x08013db4   Section        0  stm32f10x_tim.o(i.TI1_Config)
    TI1_Config                               0x08013db5   Thumb Code    94  stm32f10x_tim.o(i.TI1_Config)
    i.TI2_Config                             0x08013e28   Section        0  stm32f10x_tim.o(i.TI2_Config)
    TI2_Config                               0x08013e29   Thumb Code   102  stm32f10x_tim.o(i.TI2_Config)
    i.TI3_Config                             0x08013ea4   Section        0  stm32f10x_tim.o(i.TI3_Config)
    TI3_Config                               0x08013ea5   Thumb Code    98  stm32f10x_tim.o(i.TI3_Config)
    i.TI4_Config                             0x08013f1c   Section        0  stm32f10x_tim.o(i.TI4_Config)
    TI4_Config                               0x08013f1d   Thumb Code   102  stm32f10x_tim.o(i.TI4_Config)
    i.TIM3_Breathing_Close                   0x08013f98   Section        0  bsp_breathing.o(i.TIM3_Breathing_Close)
    i.TIM3_Breathing_Init                    0x08013fec   Section        0  bsp_breathing.o(i.TIM3_Breathing_Init)
    i.TIM3_GPIO_Config                       0x08013ffc   Section        0  bsp_breathing.o(i.TIM3_GPIO_Config)
    TIM3_GPIO_Config                         0x08013ffd   Thumb Code    46  bsp_breathing.o(i.TIM3_GPIO_Config)
    i.TIM3_Mode_Config                       0x08014034   Section        0  bsp_breathing.o(i.TIM3_Mode_Config)
    TIM3_Mode_Config                         0x08014035   Thumb Code   136  bsp_breathing.o(i.TIM3_Mode_Config)
    i.TIM_ARRPreloadConfig                   0x080140c0   Section        0  stm32f10x_tim.o(i.TIM_ARRPreloadConfig)
    i.TIM_ClearITPendingBit                  0x080140d8   Section        0  stm32f10x_tim.o(i.TIM_ClearITPendingBit)
    i.TIM_Cmd                                0x080140de   Section        0  stm32f10x_tim.o(i.TIM_Cmd)
    i.TIM_ForcedOC2Config                    0x080140f6   Section        0  stm32f10x_tim.o(i.TIM_ForcedOC2Config)
    i.TIM_ForcedOC3Config                    0x0801410a   Section        0  stm32f10x_tim.o(i.TIM_ForcedOC3Config)
    i.TIM_ForcedOC4Config                    0x08014116   Section        0  stm32f10x_tim.o(i.TIM_ForcedOC4Config)
    i.TIM_GetCapture2                        0x0801412a   Section        0  stm32f10x_tim.o(i.TIM_GetCapture2)
    i.TIM_GetCounter                         0x0801412e   Section        0  stm32f10x_tim.o(i.TIM_GetCounter)
    i.TIM_GetFlagStatus                      0x08014132   Section        0  stm32f10x_tim.o(i.TIM_GetFlagStatus)
    i.TIM_ICInit                             0x08014140   Section        0  stm32f10x_tim.o(i.TIM_ICInit)
    i.TIM_OC2Init                            0x080141cc   Section        0  stm32f10x_tim.o(i.TIM_OC2Init)
    i.TIM_OC2PreloadConfig                   0x08014254   Section        0  stm32f10x_tim.o(i.TIM_OC2PreloadConfig)
    i.TIM_OC3Init                            0x08014268   Section        0  stm32f10x_tim.o(i.TIM_OC3Init)
    i.TIM_OC3PreloadConfig                   0x080142ec   Section        0  stm32f10x_tim.o(i.TIM_OC3PreloadConfig)
    i.TIM_OC4Init                            0x080142f8   Section        0  stm32f10x_tim.o(i.TIM_OC4Init)
    i.TIM_OC4PreloadConfig                   0x08014360   Section        0  stm32f10x_tim.o(i.TIM_OC4PreloadConfig)
    i.TIM_SetCounter                         0x08014374   Section        0  stm32f10x_tim.o(i.TIM_SetCounter)
    i.TIM_SetIC1Prescaler                    0x08014378   Section        0  stm32f10x_tim.o(i.TIM_SetIC1Prescaler)
    i.TIM_SetIC2Prescaler                    0x08014388   Section        0  stm32f10x_tim.o(i.TIM_SetIC2Prescaler)
    i.TIM_SetIC3Prescaler                    0x080143a0   Section        0  stm32f10x_tim.o(i.TIM_SetIC3Prescaler)
    i.TIM_SetIC4Prescaler                    0x080143b0   Section        0  stm32f10x_tim.o(i.TIM_SetIC4Prescaler)
    i.TIM_TimeBaseInit                       0x080143c8   Section        0  stm32f10x_tim.o(i.TIM_TimeBaseInit)
    i.TIMx_CHx_Cap_Init                      0x08014464   Section        0  touchpad.o(i.TIMx_CHx_Cap_Init)
    i.TM_FATFS_FLASH_SPI_disk_initialize     0x080144e4   Section        0  fatfs_flash_spi.o(i.TM_FATFS_FLASH_SPI_disk_initialize)
    i.TM_FATFS_FLASH_SPI_disk_ioctl          0x080145e0   Section        0  fatfs_flash_spi.o(i.TM_FATFS_FLASH_SPI_disk_ioctl)
